:020000040800F2
:1000000000000220A9010008F122000821310008A7
:10001000F1220008F1220008F1220008000000008F
:10002000000000000000000000000000F1220008B5
:10003000F122000800000000F1220008810F0008F2
:10004000F1220008F1220008F1220008F122000844
:1000500000000000F122000803090008F122000856
:10006000F1220008F1220008F1220008F122000824
:10007000F1220008F1220008F1220008F122000814
:10008000F1220008F1220008F1220008F122000804
:10009000F1220008F1220008F1220008F1220008F4
:1000A000F1220008F1220008F1220008F1220008E4
:1000B000F1220008F1220008F1220008F1220008D4
:1000C000F1220008F1220008F1220008F1220008C4
:1000D000F1220008F1220008F1220008F1220008B4
:1000E000F1220008F1220008F1220008F1220008A4
:1000F000F1220008F1220008F1220008F122000894
:10010000F1220008CD0C0008F1220008F1220008BD
:10011000F1220008F1220008F1220008F122000873
:10012000F1220008F1220008F1220008F122000863
:10013000F1220008F1220008F1220008F122000853
:10014000F1220008F1220008F1220008F122000843
:10015000F1220008F1220008F1220008F122000833
:10016000F1220008F1220008F1220008F122000823
:10017000F1220008F1220008F122000853090008CA
:10018000F1220008F1220008000000000000000039
:10019000000000000000000000000000000000005F
:0801A000F1220008F122000821
:1001A80080B56F4602F0A1F840F2380040F2000135
:1001B800C2F20000C2F20001814208D240F20001FE
:1001C8000022C2F2000141F8042B8142FBD340F225
:1001D800000040F20001C2F20000C2F200018142B8
:1001E8000DD243F63C5140F20002C0F60001C2F2C3
:1001F800000251F8043B42F8043B8242F9D34EF620
:100208008850CEF20000016841F47001016002F0EC
:1002180066F8FEDE02F004BE084643F26921C0F625
:100228000001022202F024BC7047704770477047F3
:1002380040F203000021C2F2000000F0ACB840F226
:1002480006000021C2F2000000F0A5B840F200004C
:100258000021C2F2000000F09EB801F001BBD0B549
:1002680002AF0446062002F041F80438C0B20B2859
:100278009FBF4EF61851CEF200014454D0BD43F250
:10028800A8320C21C0F6000202F040F9FEDE02F0AE
:1002980065B802F061B8F0B503AF4DF804BD86B09B
:1002A8000C460169A1426CD901AB50F83420059481
:1002B80007C300EBC4014B68049384B301A800F1A1
:1002C8000805601EB4EB500F33D044080298A042D2
:1002D80038D9019800EBC401284601F09BFA06467C
:1002E80001F0C7FA0599F2B2C0B2824213D1A14215
:1002F80031D00298A04238D90198002C00EBC403F1
:1003080050F834205B6840F8312000EBC1004360AE
:100318000594D6D100210198DDE9032300E00021EE
:1003280040F8312000EBC100436006B05DF804BB23
:10033800F0BD43F2B83043F23C42C0F60000C0F6CC
:10034800000210E043F24C4043F27842C0F600004D
:10035800C0F6000211E043F2B83043F2BC42C0F6E6
:100368000000C0F60002232108E043F24C4043F2AB
:10037800CC42C0F60000C0F60002292102F0AEF817
:10038800FEDE43F2884043F2AC42C0F60000C0F6FD
:1003980000022221F2E7B0B502AF044601200D4663
:1003A80001F061FA01061FBFC0B26178B1FBF0F23B
:1003B80002FB10101FBF20448570481C607018BFD6
:1003C800B0BD43F2A01043F27052C0F60000C0F670
:1003D8000002392102F082F8FEDEF0B503AF4DF8D5
:1003E800048D0546006801F042FA04462E6801F0C3
:1003F80038FA717810B1BFF35F8FFFE7C8B2E6B281
:10040800864201D1002017E00120D5F8008001F0D4
:100418002AFA010614D0C0B20134B6FBF0F101FB90
:1004280010604044857801F01CFA10B1BFF35F8F6B
:10043800FFE7012088F8004029465DF8048BF0BDED
:1004480043F2A01043F2E052C0F60000C0F60002EA
:10045800392102F043F8FEDEF0B503AF2DE9000BB9
:100468008EB0064600688846013001F000FA00F1B7
:100478000109054607F84A9C346801F0F2F9217829
:1004880010B1BFF35F8FFFE717F84A0C07F8491C54
:10049800C9B288421AD00120366801F0E4F9010691
:1004A8003AD0C0B2E9B2B1FBF0F202FB101030440E
:1004B80080F8028001F0D5F910B1BFF35F8FFFE734
:1004C80086F801900EB0BDE8000BF0BD02200DA922
:1004D800079008A806900020CDE9040003200390A7
:1004E80043F22C60C0F60000029042F21D30C0F6C4
:1004F80000000B90CDE90901A7F14A000C900CA867
:100508000890A7F1490043F2E0510D9002A8C0F607
:10051800000102F01CF8FEDE43F2A01043F2E052A4
:10052800C0F60000C0F60002392101F0D7FFFEDE58
:10053800F0B503AF2DE900078EB004460068914678
:100548008846013001F093F900F1010A064607F8E0
:100558004AAC256801F085F9297810B1BFF35F8F9F
:10056800FFE717F84A0C07F8491CC9B288421DD0A2
:100578000220246801F077F901063DD0C0B2F1B23B
:10058800B1FBF0F202FB101004EB400080F803907E
:1005980080F8028001F065F910B1BFF35F8FFFE7C3
:1005A80084F801A00EB0BDE80007F0BD02200DA937
:1005B800079008A806900020CDE9040003200390C6
:1005C80043F22C60C0F60000029042F21D30C0F6E3
:1005D80000000B90CDE90901A7F14A000C900CA886
:1005E8000890A7F1490043F2E0510D9002A8C0F627
:1005F800000101F0ACFFFEDE43F2A01043F2E0522E
:10060800C0F60000C0F60002392101F067FFFEDEE7
:10061800D0B502AF84B0007830B101280BD043F2D6
:100628004462C0F600020AE001AC43F25062C0F630
:100638000002072305E043F24A62C0F6000201AC5B
:100648000623204602F0D4FB204601F093FF04B0B5
:10065800D0BDF0B503AF2DE9000FA1B080464EF62E
:10066800F050CEF20000006810F0010409D043F207
:1006780057600521C0F6000000F0E3FF002840F0B5
:100688002581029401F09FFD01F0A6FD002003AE34
:10069800C4F20200C16821F00301C160016821F0C1
:1006A80003010160304601F05AFA15AD1ECE284606
:1006B8001EC096E81E001EC0A8200D9C01F078FD03
:1006C80001F07BFD0EAECDE91E044FF0010A29466C
:1006D8003046CDF874A001F04BFA4FF6084043F6C7
:1006E8000041CFF6FF70C4F201010A584FF00D091E
:1006F80022F00F020A50886840F00100886043F633
:100708000C40C4F20100026822F00102026008688D
:1007180040F0010008600D20022101F066FD0ECEB8
:1007280028460EC096E81E001EC0142001F03FFDAA
:10073800834640F2084040F60004C4F247200021F6
:10074800C0F800A4C0F800A0C4F200040160A069C9
:1007580069F3CE20A061206840F080002060284620
:1007680001F021FD0646284601F01FFD05465846C2
:1007780001F01FFD00287CD0E9B2012918BF022131
:100788007143B1FBF0F0411E0A0C0AEB1141A26261
:1007980089B200296DD0B0FBF1F0B0F5803F72D27C
:1007A800E06201252068002140F0040020606561B6
:1007B800206820F00400206015A8256001F05FFD86
:1007C80001F04CF8012001F04EF840F20301C2F2AA
:1007D80000010A784B789A4268D003063DD0C0B22F
:1007E800B2FBF0F303FB102001230844847840F2A5
:1007F8004C00C2F200000355501C0870012001F0A3
:1008080032F801061FBF002140F20F02C2F20002B7
:1008180053781FBFC0B2B3FBF0F606FB1030C8E92F
:1008280000111FBFC8F80810A8F80C1088F811109C
:1008380002991FBF88F810104EF20421CEF2000171
:100848004FF400361FBF0E6010448470581C1FBF41
:10085800507021B0BDE8000FF0BD43F2A01043F284
:100868007052C0F60000C0F60002392101F036FED1
:10087800FEDE43F2502043F23422C0F60000C0F6F8
:1008880000021921F2E7022043F2C82307F81D0CE1
:1008980043F23420C0F60000C0F60003009043F293
:1008A8006B20C0F60000A7F11D021DE043F278603E
:1008B80043F29823C0F600008DF85450009043F29C
:1008C8006B20C0F60000C0F600030CE043F268603D
:1008D80043F2A823C0F60000C0F60003009043F2DC
:1008E8006B20C0F6000015AA2B2101F056FDFEDE94
:1008F80080B56F4601F03BFDFCE7B0B502AF82B0B2
:1009080000F0A6FF012507F8095C00F057FF044630
:100918004AF28020C0F2190000F08FFF01462046FD
:1009280000F052FF0146A7F1090000F036FC43F63B
:100938000040C4F201004561016821F00101016035
:10094800002001F01AFD02B0B0BDF0B503AF2DE9EB
:10095800000F85B040F2090440F2380B0DF10C0885
:10096800C2F20004C2F2000B4FF0010A08F10400C1
:100978000190204600F07BFF064600F072FF617888
:1009880010B1BFF35F8FFFE7C8B2F5B2854200F040
:100998005881022000F067FF010600F05981C0B2BB
:1009A8000136B5FBF0F101FB105004EB400045881F
:1009B80000F057FF10B1BFF35F8FFFE7290AE80780
:1009C800267030D140F20000C2F20000CDE90300E9
:1009D8004046FFF741FDDBF8000007F825AC0A2880
:1009E8005BD210215844C4F20201096801F00101E8
:1009F8000171DBF800000130CBF8000000F0DEFEEA
:100A080006464AF28020C0F2190000F016FF01469F
:100A1800304600F0D9FE0146A7F1250000F0BDFBE5
:100A28000028A6D030E140F250004446C2F200004F
:100A380050F8219040F25400C2F20000455C40F2A8
:100A48000600C2F20000CDE903004046FFF704FDAE
:100A580040F2480607F825ACC2F20006304601F01D
:100A680002FC8246000445D0304601F002FC3146C3
:100A78000646084601F0E9FBE8074FF000084FF684
:100A88009C7000F0B480B1B240F248061FFA8AF2B6
:100A98008A42C2F2000630D132E0002004211BF85D
:100AA800012001310E291044F9D1052840F2BD80FA
:100AB80040F20300C2F20000CDE903000198FFF7FD
:100AC8008CFCC00700F0E98017F8250C40F24C06B2
:100AD800CAB20223C2F200060028B3548DF80C10E3
:100AE80000F08A8040F20F014046C2F2000100F097
:100AF800D8F993E0304601F0A8FB4FF001086420D4
:100B08000AEB0001304601F0BAFB304601F0A4FBC5
:100B180017F8256C022E22D2022007F8250CE020B7
:100B280001F02BFC40F256004FF0010AC2F200001F
:100B38000078B0B34EF28070C0F24C0000F07DFE39
:100B48000146484600F040FE0146A7F1250042460E
:100B580000F0D7FBC0B20228A0462ED084E040F2B5
:100B680056004FF0010AC2F20000007870B34EF24E
:100B78008070C0F24C0000F060FE0146484600F06C
:100B880023FE0146A7F12500424600F0BAFBA04625
:100B980040F20904C0B20228C2F200043FF4E9AEF0
:100BA80062E040F24805C2F20005284601F04DFB1C
:100BB8002846002101F063FBA0460020A0EB0610A8
:100BC800C0B201F0DAFB07F8256C0BE040F24805EB
:100BD800C2F20005284601F038FB2846002101F042
:100BE8004EFBA04640F20904C2F20004C1E640F2FE
:100BF8004806C2F2000683E7F02007F825AC01F0AA
:100C0800BCFB40F20F014046C2F2000100F049F976
:100C1800002001F0B2FB002007F8250C4EF204205A
:100C28004FF40031CEF20000016043F6004100208D
:100C3800CBF80000C4F20101086840F00100086028
:100C480097E6002001F099FB05B0BDE8000FF0BD64
:100C580043F2A01043F2E052C0F60000C0F60002D2
:100C6800392101F03BFCFEDE8DF80C0043F2FC60FC
:100C7800C0F6000043F2B823009043F26B20C0F6A0
:100C88000000C0F6000318E043F2886043F2A8238E
:100C9800C0F60000C0F600030AE0022043F29823E1
:100CA8008DF80C0043F29860C0F60000C0F600030F
:100CB800009043F26B20C0F6000003AA2B2101F03C
:100CC8006CFBFEDEF0B503AF2DE9000F8BB001F031
:100CD80050FB40F20F0540F2030940F256080DF1AF
:100CE8000C0AC2F20005C2F20009C2F200084FF075
:100CF800000B0190284600F0BAFD044600F0B1FD53
:100D0800697810B1BFF35F8FFFE7C8B2E6B28642D9
:100D180000F0A280012000F0A6FD010600F0A380EB
:100D2800C0B20134B6FBF0F101FB106028448678AC
:100D380000F097FD10B1BFF35F8FFFE740F24C0062
:100D48002C70C2F200003146845D5046CDE903990B
:100D5800FFF782FB022007F83E0C24B1012C05D0D6
:100D680098F80000E0B388F800B0C3E798F80000EE
:100D78000028BFD1012088F8000000F01FFD0146BF
:100D8800A7F13E00012200F0BCFAC0B20228B1D09F
:100D980040F2550107F83D0CC2F20001097800291C
:100DA800A8D001204FF0000B089009A80790002058
:100DB800069005900220049043F2CC60C0F6000033
:100DC800039040F21D20C0F600000A90A7F13D00F4
:100DD8000990504600F06DFC00283FF48BAF4EE0C0
:100DE800012088F8000000F0E9FC0146A7F13E0068
:100DF800012200F086FAC0B202283FF47BAF40F22D
:100E0800550107F83D0CC2F20001097800293FF4AA
:100E180071AF01204FF0000B089009A8079000203F
:100E2800069005900220049043F2CC60C0F60000C2
:100E3800039040F21D20C0F600000A90A7F13D0083
:100E48000990504600F035FC00283FF453AF43F2B8
:100E5800DC60C0F6000016E0019801F08EFA0BB0D5
:100E6800BDE8000FF0BD43F2A01043F2E052C0F617
:100E78000000C0F60002392101F030FBFEDE43F22B
:100E8800EC60C0F6000043F2A823009043F26B2008
:100E980003AAC0F60000C0F600032B2101F07DFA7A
:100EA800FEDEF0B503AF2DE9000B8EB001F10108AD
:100EB80090F800900D46404600F0D9FC441C0646C8
:100EC80007F84A4C00F0CDFC297810B1BFF35F8FCA
:100ED800FFE717F84A0C07F8491CC9B2884219D02D
:100EE800012000F0C0FC01063AD0C0B2F1B2B1FB5B
:100EF800F0F202FB1010284480F8029000F0B1FCD8
:100F080010B1BFF35F8FFFE788F800400EB0BDE86F
:100F1800000BF0BD02200DA9079008A8069000203C
:100F2800CDE904000320039043F22C60C0F60000D2
:100F3800029042F21D30C0F600000B90CDE9090185
:100F4800A7F14A000C900CA80890A7F1490043F2B9
:100F5800E0510D9002A8C0F6000101F0F8FAFEDE9B
:100F680043F2A01043F2E052C0F60000C0F60002BF
:100F7800392101F0B3FAFEDEF0B503AF2DE9000F19
:100F880085B0E02001F0F9F940F21804C2F200043B
:100F98002069002800F08E800DF10C08206802906E
:100FA80000F056FC039002A8414600F03CFCC0B299
:100FB800FF2840F088802069002800F0DA80B0F12E
:100FC800010B04EBCB004668C4F810B050D0606841
:100FD800354654F83B10BBF1010FCDE90010C4E9C8
:100FE800001601D1002636E04FF000094FF0010845
:100FF80008F101065E4517D2C14500F09280C3454D
:1010080040F2AB80B14500F08C8004EBC80004EBE3
:10101800C60100F0FFFB5FFA80FA00F02AFCC0B2BC
:10102800824508BF464600E04646B14500F082804A
:10103800B34540F2898004EBC60154F8360049688C
:1010480044F8390004EBC900B1464160700000F172
:101058000108D845CCD30098314644F8360004EB53
:10106800C60045602046FFF716F9019E0DF10C08F1
:10107800C6F30725F02001F080F9E807324640F270
:101088000900C2F20000CDE9030040460CBF002170
:101098000121FFF74DFA4EF210004FF40041CEF255
:1010A8000000C0F8F811E02001F067F92069002875
:1010B8007FF474AF4EF21001CEF20001086820F000
:1010C8000200086023E000F0B9FB05460C46DDE9A4
:1010D800020100F08CFB00F0AFFBA0FB050111B191
:1010E8006FF07F400CE0002C4DD0844201D90120E4
:1010F80006E0B0FBF4F16FF07F40814238BF08464C
:101108004EF21001CEF20001486000208860F02005
:1011180001F033F9002001F030F905B0BDE8000F07
:10112800F0BD43F2B83043F23C42C0F60000C0F6CE
:10113800000207E043F2B83043F2BC42C0F60000B8
:10114800C0F60002232111E043F24C4043F2CC42A6
:10115800C0F60000C0F6000207E043F24C4043F23C
:101168007842C0F60000C0F60002292101F0B6F965
:10117800FEDE43F2DC4043F26052C0F60000C0F6E7
:1011880000022D21F2E743F2502043F23432C0F638
:101198000000C0F600021921E8E7F0B503AF2DE919
:1011A800000B82B004460078884660B140F2000027
:1011B800C2F20000CDE9000068460430FFF70DF9DF
:1011C80005460E4617E001202070F02001F0D5F802
:1011D80040F20000C2F20000CDE900006846043089
:1011E800FFF7FBF8054600200E464FF0000901F016
:1011F800C4F884F80090E80701D101257CE040F2AA
:101208004800F5B2C2F2000040F825802678022E88
:1012180018D202202070E02001F0AFF840F218093F
:10122800CDE90085C2F20009D9F81000F0B140F20A
:1012380018016846C2F2000100F0F5FAC0B2FF28B2
:1012480023D11BE040F21804CDF80080C2F200045C
:101258000195206990B340F218016846C2F2000176
:1012680000F0E1FAC0B2FF2837D12FE04EF21000AB
:10127800CEF20000016841F0020101604EF6045010
:101288004FF08061CEF200000160D9F81010DDE95E
:10129800000249F8310009EBC103D9F810005A607F
:1012A8000130C9F810004846FEF7F5FF0025A5EB08
:1012B8000610C0B201F061F826701DE04EF2100071
:1012C800CEF20000016841F0020101604EF60450C0
:1012D8004FF08061CEF2000001602169DDE9000273
:1012E80044F8310004EBC10320695A6001302061E1
:1012F8002046FEF7D0FF0025284602B0BDE8000BC7
:10130800F0BDF0B503AF2DE9000F83B00678924623
:1013180088468146022E1BD2022089F80000E02070
:1013280001F02BF840F20600C2F20000CDE90000FF
:101338000020A0EB061B68460430FFF74EF8044671
:101348005FFA8BF00D4601F018F889F800600BE0A1
:1013580040F20600C2F20000CDE900006846043001
:10136800FFF73BF804460D46E00700F0858040F2A1
:101378005001E8B2C2F2000100F5807541F8208002
:1013880040F25401C2F2000101F800A099F80040AF
:10139800022C18D2022089F80000E02000F0EDFFAE
:1013A80040F21806CDE90085C2F200063069F0B1B6
:1013B80040F218016846C2F2000100F034FAC0B2E7
:1013C800FF2823D11BE040F21804CDF80080C2F2B8
:1013D80000040195206980B340F218016846C2F202
:1013E800000100F020FAC0B2FF2835D12DE04EF2FE
:1013F8001000CEF20000016841F0020101604EF6D3
:1014080004504FF08061CEF2000001603169DDE9DF
:10141800000246F8310006EBC10330695A6001301A
:1014280030613046FEF737FF0020A0EB0410C0B251
:1014380000F0A3FF89F800401CE04EF21000CEF245
:101448000000016841F0020101604EF604504FF0BF
:101458008061CEF2000001602169DDE9000244F8F4
:10146800310004EBC10320695A6001302061204635
:10147800FEF711FF4FF0020A504603B0BDE8000F17
:10148800F0BD80B56F4686B0FEF703FFFEF7D0FECD
:10149800FEF7D5FEFEF7DAFE40F235000124C2F26F
:1014A80000004EF2100504704EF20640CEF2000025
:1014B800F021CEF200054FF4004280F84910C5F83B
:1014C800F820E02280F82B204FF40032C5F8F420F1
:1014D80001704020C5F8F000F020FEF7C0FE286833
:1014E80040F004002860286840F0010028604EF6AB
:1014F800FC50CEF20000016841F080710160FEF7F7
:10150800ACFE00F0ABF9014640F23400C2F2000034
:10151800047001AC2046FFF79CF894E82E0040F2D6
:101528003800C2F200002EC040F25500C2F200009E
:101538009DF81410017040F256009DF81520C2F273
:101548000000027000F07DF9FEF7A1FEFFF7D0F968
:10155800FEDE80B56F4682B000228029019203D258
:101568008DF8041001222FE002220B4662F39F132C
:10157800B1F5006F05D28DF80530C02343EA91110B
:1015880020E0B1F5803F0DD28DF806308B0962F36B
:101598009F13E02242EA11318DF805308DF80410CE
:1015A800032211E08DF807308B0962F39F138DF841
:1015B80006300B0B62F39F13F02242EA914104229A
:1015C8008DF805308DF80410006801A900F0CAF8FC
:1015D80002B080BDF0B503AF4DF804BD88B00190EE
:1015E80002AA91E8785043F20C711046C0F6000147
:1015F80080E8785001A800F0EAFF08B05DF804BB65
:10160800F0BD70470068FFF7A4BFF0B503AF4DF811
:1016180004BD88B0006802AA019091E8785010468D
:1016280043F20C71C0F6000180E8785001A800F080
:10163800CEFF08B05DF804BBF0BD0068006800F09C
:1016480091B8F0B503AF2DE9000B84B08846814608
:1016580000F07EFE064600F07FFE00F091FE40F2AC
:101668002C0506F00104C2F200052868012801D102
:10167800686811E0032001A903900420029043F256
:101688002870C0F6000001260190012000F094F8AF
:10169800411C06D0C5E900604946424600F062F8A0
:1016A80006460CB900F05AFE304604B0BDE8000BFF
:1016B800F0BDF0B503AF2DE9000B88B0814600F00E
:1016C80047FE054600F048FE00F05AFE40F22C06A0
:1016D80005F00108C2F200063068012811D0032085
:1016E80002A904900420039043F22870C0F6000079
:1016F80001250290012000F05FF8411C11D0C6E9D5
:101708000050301D019002AA99E87A10104680E82E
:101718007A1043F20C7101A8C0F6000100F057FFDF
:101728000546B8F1000F08BF00F018FE284608B0BB
:10173800BDE8000BF0BD80B56F4684B0032001A959
:1017480003900420029043F22870C0F60000019034
:10175800012000F031F801460130B0FA80F040096C
:1017680004B080BD0AB3F0B503AF2DE9000B84B017
:1017780001AB0C4607C301A981460520154600F0B8
:101788001BF880B10DF10408854210D3064603907A
:10179800281A414604440520CDE9019400F00CF8CC
:1017A80000283546F0D1002002E0002070470120D3
:1017B80004B0BDE8000BF0BDABBE704741F20400B9
:1017C800CEF2000000687047B1F1FF3FC4BF084483
:1017D800704780B56F4643F2BC7043F2E472C0F6BE
:1017E8000000C0F60002272100F078FEFEDE401A55
:1017F800B0F1FF3FC8BF704780B56F4643F28A70AB
:1018080043F2AC72C0F60000C0F60002212100F0DD
:1018180065FEFEDE09680068401A18BF012048BF4F
:101828004FF0FF30704709680068401A18BF012060
:1018380048BF4FF0FF3070477047704701200121C3
:10184800704741F204000021CEF2000001607047A9
:1018580041F20400CEF20000006870470020704793
:10186800704700207047FF2828BFFF207047007886
:101878007047FF207047F0B503AF2DE9000F85B022
:10188800D1E9004AD2E900E396685445039300F28F
:1018980082800A7A002A7ED1D1E9032346F60049DC
:1018A800D1F814B0C0F2DC29544504933DD2CDE9F7
:1018B8000106D2F80080B8F1000F00F08A8004FB1E
:1018C80009F1002C70D0DBF80020002A75D0B1FB9C
:1018D800F8F000FB08F5B5FBF4F0B5FBF2F2A9EB64
:1018E800000304980668BEEB030018BF01209E455C
:1018F80038BF4FF0FF30B6EB020C04F1010248BFCD
:10190800CCF1000C30B9039DB5EB0C0018BF0120D9
:10191800654505DBC0B2012804BFCDE9024C9E46EF
:10192800494492451446CCD104E034D1CDE90106AE
:10193800D2F80080B8F1000F4BD0BAF1000F33D0C5
:10194800DBF80020CAB30AFB09F0B0FBF8F000FB93
:1019580008F3B3FBFAF0B3FBF2F2A9EB0001049829
:10196800BEEB0105066818BF01258E4538BF4FF04C
:10197800FF35B21A48BF5242DDE901062DB9039B73
:101988009D1A18BF0125934205DBEBB2012B02BF5C
:10199800564603928E460399C0F800E0C0E9011646
:1019A80005B0BDE8000FF0BD43F6800043F66802BD
:1019B800C0F60000C0F6000207E043F6800043F6D8
:1019C800FC12C0F60000C0F60002192100F086FDE6
:1019D800FEDE43F6800043F6EC12C0F60000C0F6C7
:1019E8000002F2E7F0B503AF2DE9000BD0E9003EA5
:1019F80073452FD8057A6DBBD0E903C8734515D256
:101A0800D8F80090DCF800504BB39D4230D3B5FBBA
:101A1800F3F05E1CB9FBF0F404FB109088423CBF65
:101A28001A460146B6453346EED100E012D1BEF162
:101A3800000F14D0DCF80030734519D3D8F8000033
:101A4800B3FBFEF3B0FBF3F606FB130088423CBF82
:101A58007246014608461146BDE8000BF0BD43F644
:101A6800800043F66802C0F60000C0F6000207E0F6
:101A780043F6800043F6DC12C0F60000C0F6000210
:101A8800192100F02BFDFEDED0B502AF0B68D3F8AC
:101A980000E0BEF1000F1ED032B38B68D3F800C04F
:101AA800BCF1000F29D046F600434968C0F2DC2398
:101AB800826002FB03F40968B4FBFEF404FB0EF435
:101AC800B4FBF2F29A1A0260B4FBFCF2891A48BF1E
:101AD80049424160D0BD43F6800043F6EC12C0F69F
:101AE8000000C0F6000210E043F6800043F66802EA
:101AF800C0F60000C0F6000207E043F6800043F697
:101B0800FC12C0F60000C0F60002192100F0E6FC45
:101B1800FEDE80B56F46C9B1026812688A4221BFED
:101B28004068B2FBF1F20068B0FBF2F324BF03FB9C
:101B3800120080BD43F6800043F6DC12C0F60000B8
:101B4800C0F60002192100F0C9FCFEDE43F6800051
:101B580043F66802C0F60000C0F60002F2E7002172
:101B680080F828100162816101618160016070471D
:101B7800F0B503AF2DE9000FA3B0D1E900A5804669
:101B880046F6004C43F6000BBAF1000F04BF42F2D0
:101B98000045C0F2F405D1E90809C0F2DC2C08952B
:101BA800C4F2020B002808BFA946CDF82490A94525
:101BB80004BF91F82800002800F00F81B9F1000F48
:101BC800CDF810A000F098824DF68360C4F21B3067
:101BD800A5FB00624CF60046C1F6BF16B6FBF9F647
:101BE80026F0010A48F27F46C0F21E06BAF1080F35
:101BF80028BF4FF0080AAC1991F828600AFB09F3CE
:101C08000591A4FB0001CDF828A030466046069651
:101C1800002E029308BF18460B900BA8119008A835
:101C280010900020C90C8DF83C00900CB1EB924F3D
:101C38000E900D9100F269828142CDF800800795DF
:101C480002D2481C0D9002E001208DF83C000DF1F5
:101C5800340808F10C000390FFF75BFF8E464146FD
:101C68000DF1680B91E87C008446584661467CC0BB
:101C7800584672465C46FFF7B5FE002900F04F82D1
:101C8800089E44F2402343F6000BC0F20F03B6FB54
:101C9800F1F0C4F2020BA0F574220C90A2F51072B8
:101CA8009A4200F24582069AA2B30AA8129009A89D
:101CB80011900CA81090002002918DF83C0009208A
:101CC8000DF14C0A03990E9005200D905046042200
:101CD800FFF7DAFE2146204698E87C1080E87C1061
:101CE80020AA9AE86800104668C016A8FFF7C3FD46
:101CF8000C98002800F02F82189946F60045C0F28B
:101D0800DC25DDF828A0DDF800806943B1FBF0F49C
:101D180002990BE0DDF80080B14200F23882029AA5
:101D280046F60045C0F2DC25B2FBF0F404FB005295
:101D3800531E49F68172C1F25E62AB42A3FB026296
:101D4800C0F0008247F6C073049E03EA84154FF082
:101D58000053002E18BF4FF0015301F03F066043B7
:101D6800334459194FF4403303EACA33920D03F54B
:101D7800403303F44033194402F00F0341EA03618E
:101D8800CBF80410079B994502D1099E059906E0F6
:101D98000599BAF1000F00F0E781B0FBFAF6DDF81B
:101DA80010A0B0FBF2F09945019005D10020012464
:101DB80005903546012316E0A6F1B77044F20042BB
:101DC800A0F55850C0F69502904200F2D681002046
:101DD800012300243546059005E0002001240690E3
:101DE800012005900023D1E90202002808BF2A46F5
:101DF800002A00F03781A5F1010E03930EEB0200D3
:101E0800B0FBF2F2012A0FD0022A09D0002A00F012
:101E18003281D01E032836D24FF0900C042205E000
:101E28004FF0800C022201E04FF0000C4DF6806666
:101E3800D1E90403B5FBF2F9C0F28026B145324678
:101E480038BF4A46002818BF1A46002A00F01C81ED
:101E5800A9F1010304949818B0FBF2F2012A0FD0FB
:101E6800022A09D0002A00F01881D01E032812D2B5
:101E780004204FF4A05219E002204FF4805215E0DC
:101E88000120002212E0901F062880F0BB804FF04E
:101E9800A00C0822CAE7901F4FF4E05206284FF022
:101EA800100038BF4FF4C05238BF0820B9FBF0F417
:101EB8000795B442029000F2F9804BF60050D1E940
:101EC8000656C0F201508145014638BF4946002DEB
:101ED80018BF3146002900F0F2800B44B3FBF1F340
:101EE800012B0FD0022B09D0002B00F0F180D91E56
:101EF80003290AD204254FF4204310E002254FF4A9
:101F080000430CE00125002309E0991F4FF46043CA
:101F18001025062938BF4FF4404338BF0825B9FBC0
:101F2800F5F6864200F2DE8045F2C7414FEADE1040
:101F3800C0F21E11BAF1000FA0FB0101DBF800048A
:101F48004FEAD0004FEA912160F3DF0141F4E060ED
:101F5800CBF8000409D0DBF8000040F48030CBF85F
:101F68000000DBF800008003FBD5059848B9DBF8D2
:101F7800000040F08070CBF80000DBF80000800122
:101F8800FBD5DBF8081042EA0C004FF6F042184384
:101F980091430843CBF80800102000F0E1F9DBF882
:101FA8000800049920F00300002908BF4FF0020A36
:101FB8005044CBF80800029888F81800079888F869
:101FC8001950C8E90094C8F80C000398C8F8100024
:101FD80001990698C8F80860C8F8141070B10598F7
:101FE800B0BB46F60040C0F2DC20401A4DF2C141B9
:101FF80048BF4042C0F20101884229DA23B0BDE857
:10200800000FF0BDA2F10C001C2803D24FF0B00C59
:1020180010220BE7A2F12800382803D24FF0C00C99
:10202800402203E7A2F16000602803D24FF0D00CF1
:102038008022FBE6A2F1C0004FF0F00C4FF40072D2
:10204800C02838BF4FF0E00C38BF4FF48072EDE67F
:1020580043F6043043F63032C0F60000C0F6000202
:102068002C219DE043F6800043F66C22C0F6000068
:10207800C0F6000293E043F6403043F68832C0F6DB
:102088000000C0F600022BE043F6800043F67C22F5
:10209800C0F60000C0F6000281E043F6403043F687
:1020A8007832C0F60000C0F6000219E043F68C2032
:1020B80043F6B022C0F60000C0F600021AE043F66C
:1020C800800043F6C022C0F60000C0F6000266E0B9
:1020D80043F6403043F66832C0F60000C0F600020E
:1020E80028215DE043F6D02043F6F422C0F6000034
:1020F800C0F60002242153E043F6800043F6201284
:10210800C0F60000C0F6000249E043F6990043F625
:102118003012C0F60000C0F600022B2140E043F662
:10212800800043F64012C0F60000C0F6000236E018
:1021380043F6501043F68C12C0F60000C0F60002B9
:102148003C212DE043F6800043F6BC12C0F60000A7
:10215800C0F6000223E043F6800043F69C12C0F666
:102168000000C0F600021AE043F6800043F6CC12E5
:10217800C0F60000C0F6000211E043F60C2043F65A
:102188005C22C0F60000C0F60002502108E043F6C9
:10219800800043F6AC12C0F60000C0F60002192118
:1021A80000F09CF9FEDE40687047007E704770477B
:1021B80070474FF47A714843704744F24021C0F2A7
:1021C8000F014843704743F63000C4F2020001682B
:1021D80041F001010160704743F63000C4F202008B
:1021E800016841F0080101607047D0B502AF40F6C0
:1021F80000448300C4F20204202B0BD201FA03FE30
:102208000F21D4F820C099402CEA010141EA0E01BF
:1022180021620CE003F01C03D4F824C001FA03FE89
:102228000F2199402CEA010141EA0E0161621E2149
:1022380001EA4000022123680322814002FA00F0EB
:1022480023EA000008432060D0BD40F2104000217E
:10225800C4F201200160704740F210400121C4F22D
:1022680001200160704740F63800C4F200000068A1
:10227800704740F62C00C4F200000068704788B22E
:1022880040F63801C4F2000108607047D0B502AFCB
:1022980084B00078DFE800F00215070E43F6A93293
:1022A800C0F6000203E043F6A132C0F6000201AC1A
:1022B80008230CE001AC43F69832C0F6000209236B
:1022C80005E001AC43F6B132C0F600020323204614
:1022D80000F08EFD204600F04DF904B0D0BD80B569
:1022E8006F46FFF7CEF8FEDEFEE77047C1B20F205B
:1022F800DFE801F00406080A0C0E0F0004207047FE
:1023080005207047062070470B2070470C20704747
:102318000E207047B0B502AF056808460C4600F0BD
:102328005FFD28B128462146BDE8B04000F08BBDCE
:10233800204600F059FD28B128462146BDE8B040A6
:1023480000F0B1BD28462146BDE8B04000F0DBBD35
:1023580000F00AB800BE704772B6704762B67047A0
:1023680040080138FDD17047EFF31080704730BF47
:102378007047EFF31180C0B2704780F3118870473F
:1023880070470068FEE770474CF2A95046F65C318A
:10239800C6F26500C3F6D431704780B56F468EB07B
:1023A8008DE80F000AA902200891002109900791E1
:1023B800CDE9050143F6B830C0F60000D7F808C0EB
:1023C800049043F27F00C0F600000D9002A80C9024
:1023D80043F2C300C0F6000061460B9068460A90BD
:1023E80004A800F0B4F8FEDEF0B503AF4DF804BD64
:1023F8008EB00C460546D1E906010C22CB6843F69F
:10240800D831C0F60001984728B1012630460EB0F1
:102418005DF804BBF0BDA86838B1019043F297029B
:10242800D4E90601C0F6000217E0D5E90060C168EA
:10243800304688474AF61E12C7F6F26251404BF6FC
:10244800F442CEF6C742504008431CD1019643F2ED
:102458008902D4E90601C0F60002039201AA029299
:10246800012602AA0D960C9200220B920A920222D1
:10247800099243F6E832C0F60002089208AA00F072
:10248800A6F80028C2D1EA6842F68D73C0F60003A8
:10249800D4E9060102F10C060793CDE9053602F1ED
:1024A8000803049343F2C303C0F60003CDE90223F3
:1024B80002AB03220C9300230D920B93CDE9092361
:1024C80043F6FC32C0F60002089208AA00F07FF832
:1024D800064630460EB05DF804BBF0BD80B56F46C9
:1024E80088B0944643F6B432C0F60002CDE906013E
:1024F800002304920122684661460593CDE9023320
:10250800019206AA009200F022F8FEDE80B56F461E
:102518008CB0CDE9000108A902200691002107909E
:102528000591CDE9030143F64840C0F6000069462D
:10253800029042F68D70C0F600000B90CDE90901BB
:1025480001A8089002A8114600F001F8FEDE80B547
:102558006F4684B0CDE9020143F6C830C0F60000EA
:10256800019043F6B430C0F600000090684600F0D1
:10257800ADFDFEDEB0B502AF0446057A406808B38B
:102588000DB101251DE0012810D1607A70B12168D4
:10259800087840070AD4D1E906010122CB6843F63E
:1025A8005841C0F600010125984750B92168012219
:1025B800D1E90601CB6843F65941C0F600019847B6
:1025C80005462572002D18BF01252846B0BDF0B577
:1025D80003AF2DE9000F8DB014460322D4F808B0DC
:1025E8008DF83020202205920022BBF1000F0492C2
:1025F8000B910A900892069271D0E268D4E9006AB9
:10260800524588BF5246002A039600F09580CDE9CE
:1026180001A2D6E90032CE681946B047002840F03A
:10262800A18002980025D4F810904FF01008A0F16E
:10263800010A0BEB8501D1E90532D1E901040E7FCE
:1026480005900BEB08008DF8306004946BB1022BF9
:102658000DD009EBC20342F28B36C0F600065B6868
:10266800B34204D159F832201268012400E0002452
:102678005BF80830CDE90642C96869B102290DD076
:1026880009EBC30142F28B32C0F60002496891425D
:1026980004D159F833100B68012100E0002150F8EB
:1026A800102C099359F8320009EBC20252680891BC
:1026B80004A99047002855D1BAF1000F57D00399C3
:1026C800DDE90A034A19DB68D2E902129847AAF140
:1026D800010A08F1200808350028AAD042E0D4F8F9
:1026E8001490D4E9006AD14588BFD146B9F1000FEA
:1026F800039626D0D6E90032CE6824691946B04739
:1027080080BB0398A9F1010504340DF1100800F10C
:10271800080654F8040C41462268904710BB95B14E
:10272800DDE90A03D6E90012DB689847013D08365F
:1027380008340028EDD015E04FF00009CA4504D848
:1027480019E04FF00009CA4515D9039A4946DDE951
:102758000A034E46DB6852F8311002EBC902526890
:10276800984740B101200DB0BDE8000FF0BDDDE98C
:1027780001A9CA45E9D800200DB0BDE8000FF0BD99
:10278800F0B503AF2DE9000F83B0D7E902649A468C
:102798008346E1B1DBF800E02B211EF0010008BF01
:1027A8004FF4881100EB04085FEA4E7017D5BAF1B0
:1027B800000F24D0AAF101000AF0030C032821D24B
:1027C8004FF000091346BCF1000F4BD165E0DBF870
:1027D80000E004F101082D215FEA4E70E7D40022E1
:1027E8004FF0000ADBF8080001285ED0584653462F
:1027F80000F01CF9002800F07980012594E04FF0E2
:1028080000094AE002912AF003014D424FF0000905
:1028180011461346CDE900461A78587802F0C002EE
:102828009E78DC78802A00F0C00008BF09F1010911
:10283800802806F0C00008BF09F10109802804F0CB
:10284800C00008BF09F10109802808BF09F1010982
:1028580004330435E0D10A46DDE900460299BCF1AB
:10286800000F1AD0187800F0C000802808BF09F1BE
:102878000109BCF1010F10D0587800F0C000802881
:1028880008BF09F10109BCF1020F06D0987800F0E1
:10289800C000802808BF09F1010908EB0A00A0EB75
:1028A8000908DBF808000128A0D1DBF80C90C14525
:1028B80015D95FEA0E7026D40192A9EB08009BF89F
:1028C800202000258146032A08BF01220291DFE863
:1028D80002F0450241024FF0000905463EE0584625
:1028E800534600F0A3F8002840F07A80DBF81C106B
:1028F8002246DBF81800CB68314603B0BDE8000F6C
:10290800BDE8F0401847DBF80400012502903020AC
:102918009BF8203001935346CBF8040058468BF8B7
:10292800205000F083F820B1284603B0BDE8000F1E
:10293800F0BD9BF82020A9EB08010020B146032A2E
:1029480008BF01220D46DFE802F0360233020025F7
:10295800084630E0411C45084FEA51090135013D60
:1029680008D0DBE90602DBF804101269904700285A
:10297800F5D035E0DDE9012158465346DBF80480FF
:1029880000F054F860BBDBE906012246CB6831460B
:10299800984728BBDBE906A409F101060125013E99
:1029A80032D022695046414690470028F7D0BBE70D
:1029B800480801314D08461C013E08D0DBE90602F3
:1029C800DBF80410126990470028F5D008E0DBE92D
:1029D80006012246CB684946DBF80480984728B1AF
:1029E8000125284603B0BDE8000FF0BDDBE9069AD3
:1029F8006E1C0125013E0DD0DAF8102048464146EC
:102A080090470028F6D08FE70025284603B0BDE898
:102A1800000FF0BD019800258BF820000298CBF834
:102A28000400284603B0BDE8000FF0BDF0B503AFC1
:102A38004DF804BD1C4615460646B1F5881F08D05A
:102A4800D6E906021269904718B101205DF804BB67
:102A5800F0BD4DB1D6E906012246CB6829465DF89E
:102A680004BBBDE8F040184700205DF804BBF0BD8A
:102A7800F0B503AF2DE9000F81B0D0F808E0834628
:102A8800006991460C46BEF1010F13D1012814D0FC
:102A9800B9F1000F00F02081A9F1010E09F0030C33
:102AA800BEF1030F6AD200232146BCF1000F40F0AB
:102AB8008A80A0E0012840F02981DBF8143004EB7B
:102AC80009050022204600942BBB85424FD00146C1
:102AD800009C11F9013BB3F1FF3F40F39C80002AB1
:102AE80018BF4A4540F0E2802046E8E011F8010BA3
:102AF80000F03F0808464FF4E01101EA864141EA38
:102B08000A3141EA8C114144B1F5881F2FD0011BCD
:102B1800013B0A44D9D0854229D0044610F9011B4B
:102B2800B1F1FF3FF3DCCEB2A84207D06178A01C18
:102B380001F03F0A0146E02EE9D304E04FF0000A15
:102B48002946E02EE3D3A94207D011F8010B00F083
:102B58003F0C0846F02EDAD304E04FF0000C29466B
:102B6800F02ED4D3A942C1D14FF00008C3E74A469A
:102B7800009CBEF1010F40F02981A8E029F0030173
:102B880000234E42A04621460D784C78887805F0FF
:102B9800C005CA78802D04F0C00408BF0133802C1A
:102BA80000F0C00008BF0133802802F0C00008BF51
:102BB8000133802808BF013304310436E4D1444688
:102BC800BCF1000F17D0087800F0C000802808BFBB
:102BD8000133BCF1010F0ED0487800F0C000802806
:102BE80008BF0133BCF1020F05D0887800F0C0009F
:102BF800802808BF0133DBF80C80A9EB03004045AF
:102C080080F08480BEF1030F12D200222346BCF16B
:102C1800000F32D166E0DBB2A94200F0AC80417807
:102C2800023001F03F018901E02B80F0A98056E7CE
:102C380029F0030000224642A646234618785D780C
:102C480000F0C0009C78D978802805F0C00008BF43
:102C58000132802804F0C00008BF0132802801F04A
:102C6800C00008BF0132802808BF0132043304368F
:102C7800E4D17446BCF1000F34D0187800F0C000DD
:102C8800802808BF0132BCF1010F2BD0587800F022
:102C9800C000802808BF0132BCF1020F22D098780A
:102CA80000F0C000802808BF01321BE04A4504D26A
:102CB800A05610F1400FBFF617AF002000220028E1
:102CC8000CBF4A460446BEF1010F40F07F80914692
:102CD800B9F1000F7FF4E0AEDBF80C80B8F1000F1B
:102CE80014D000229BF820002546C31E18BF0346B7
:102CF800A2EB090000EB080100208A46DFE803F098
:102D080010020C024FF0000A084609E0DBF81C101C
:102D18004A46DBF818005BE0480801314FEA510ADF
:102D2800441C013C08D0DBE90602DBF804101269F8
:102D380090470028F5D014E0DBE906014A46CB6845
:102D48002946DBF80480984758B9DBE906650AF19B
:102D58000104013C0AD02A693046414690470028C0
:102D6800F7D0012001B0BDE8000FF0BD002001B090
:102D7800BDE8000FF0BD00212846E02BFFF4AFAE00
:102D8800A84207D010F8016B06F03F06F02BFFF4BD
:102D9800A6AE04E000262846F02BFFF4A0AE31438F
:102DA8004FF4E01606EA8343A8421ABF007800F001
:102DB8003F00002043EA81110844B0F5881F7FF4E2
:102DC8008EAE4A46BEF1010F3FF481AFDBE9060142
:102DD800CB68214601B0BDE8000FBDE8F0401847B8
:102DE8000078C0F3001070470078C0F340107047B7
:102DF800F0B503AF4DF804BD0D460646D1E906010E
:102E08001C46CB681146224698473072B4FA84F0C3
:102E1800400970720020C6E900505DF804BBF0BD9F
:102E280000780A4638B143F224711046C0F6000112
:102E38000422FFF71DBE43F624511046C0F60001D8
:102E48000522FFF715BE80B56F46A2B002788C4602
:102E580002F00F0303F157000A2B38BF03F13000CB
:102E68000023B3EB121F0BD0130903F15701A02A5B
:102E780038BF03F130018DF886107E22022301E06D
:102E88007F2201238DF8870002A8104443F65A4296
:102E9800CDE90003C0F60002604601210223FFF7D6
:102EA8006FFC22B080BD80B56F46A2B002788C4618
:102EB80002F00F0303F137000A2B38BF03F130008B
:102EC8000023B3EB121F0BD0130903F13701A02A1B
:102ED80038BF03F130018DF886107E22022301E00D
:102EE8007F2201238DF8870002A8104443F65A4236
:102EF800CDE90003C0F60002604601210223FFF776
:102F08003FFC22B080BD80B56F468CB00278642A41
:102F180015D348F21F53D0B2C5F2EB13A0FB03033D
:102F280064205B0903FB102043F65C42C0F60002F4
:102F3800C0B232F81000ADF82D00242003E00A2AB0
:102F480006D22620134603F1300202AB1A5408E0D9
:102F580043F65C40C0F6000030F81200ADF82D00D2
:102F68002520C0F1270202AB18440023CDE9000256
:102F780043F6B4320846C0F600020121FFF700FC10
:102F88000CB080BDF0B503AF2DE9000F8DB004681B
:102F980048F21F5043F65C480D4642F210718C42CD
:102FA800C5F2EB10C0F600083BD341F259794EF256
:102FB800FF0E0DF10C0B0023CDF2B7194FF0640A88
:102FC800C0F2F55E0295A4FB092574454FEA553217
:102FD80002FB11450BEB0301A3F104031446AEB247
:102FE800A6FB006C4FEA5C1606FB1A5538F816600B
:102FF800A1F82360ADB238F81550A1F8255042F277
:103008001071E0D8029D03F127011446632C0BDCF4
:1030180023460A2B17DB023938F8130003AA50524B
:1030280016E02721632CF3DDA2B20239A2FB0023AC
:1030380003AE64225B0903FB124292B238F81220F5
:1030480072520A2BE7DA013903AA03F1300050540F
:10305800C1F1270003AA114443F6B432CDE90010A8
:10306800C0F60002284601210023FFF789FB0DB0B6
:10307800BDE8000FF0BDD0E90020C368104618472E
:1030880000680B46D0E900121846FFF7F1BCF0B50E
:1030980003AF2DE9000B86B0D0F800E06A46D1E90D
:1030A80006C113469EE8710383E871036046FFF783
:1030B8008EFA06B0BDE8000BF0BD0B46D0E9001251
:1030C8001846FFF7D5BC0068FFF78EB980B56F4684
:1030D8008AB00090FFF740F9FEF72DFBC8B9012030
:1030E8000191079008A806900020CDE9040002206D
:1030F800039043F62C50C0F6000002A9029043F258
:10310800CF00C0F6000009906846089001A8FEF7B5
:1031180061FAFFF71FF9FEE770460421084202D161
:10312800EFF3088002E0EFF30980FFE7FEE7D4D46D
:103138002F686F6D652F616E647265772F2E6361DE
:1031480072676F2F72656769737472792F73726310
:103158002F6769746875622E636F6D2D31656363BF
:103168003632393964623965633832332F686561BC
:10317800706C6573732D302E352E362F7372632F56
:10318800737073632F6D6F642E72730000000000FC
:103198000000000000000000617474656D70742008
:1031A800746F2063616C63756C6174652074686505
:1031B8002072656D61696E64657220776974682034
:1031C800612064697669736F72206F66207A657210
:1031D8006F2F686F6D652F616E647265772F2E6330
:1031E8006172676F2F72656769737472792F737272
:1031F800632F6769746875622E636F6D2D3165631F
:10320800633632393964623965633832332F7374FF
:103218006D3332663478782D68616C2D302E382EF7
:10322800332F7372632F70776D2E7273D931000844
:103238005B000000310300000100000000000000F6
:103248000000000000000000617474656D70742057
:10325800746F20646976696465206279207A657282
:103268006F282963616C6C65642060526573756CA6
:10327800743A3A756E77726170282960206F6E20F3
:10328800616E2060457272602076616C7565000021
:1032980037020008010000000100000019060008BC
:1032A80033020008000000000100000021020008AD
:1032B8003102000801000000010000001D020008A2
:1032C80035020008010000000100000095220008F6
:1032D8002F686F6D652F616E647265772F2E63613D
:1032E80072676F2F72656769737472792F7372636F
:1032F8002F6769746875622E636F6D2D316563631E
:103308003632393964623965633832332F636F7204
:103318007465782D6D2D727469632D302E352E35B8
:103328002F7372632F74712E72730000D8320008E5
:103338005A00000044000000260000002F686F6D4E
:10334800652F616E647265772F2E636172676F2FC8
:1033580072656769737472792F7372632F67697402
:103368006875622E636F6D2D316563633632393946
:1033780064623965633832332F636F727465782DF0
:103388006D2D302E362E372F7372632F706572694C
:1033980070686572616C2F7363622E72730000002F
:1033A80044330008610000007D0200000D000000A9
:1033B800617373657274696F6E206661696C6564A8
:1033C8003A20696E64657820213D2073656C662E0D
:1033D800706F732F686F6D652F616E647265772FDC
:1033E8002E636172676F2F72656769737472792FC4
:1033F8007372632F6769746875622E636F6D2D3100
:103408006563633632393964623965633832332F1C
:10341800686561706C6573732D302E352E362F7389
:1034280072632F62696E6172795F686561702E726E
:1034380073000000DB3300085E0000009D010000FF
:1034480009000000617373657274696F6E206661AC
:10345800696C65643A20696E646578203C20736500
:103468006C662E646174612E6C656E2829000000FC
:10347800DB3300085E0000009E0100000900000028
:10348800617373657274696F6E206661696C6564D7
:103498003A20706F73203C20646174612E6C656EF5
:1034A80028290000DB3300085E00000084010000CA
:1034B80009000000DB3300085E000000A7010000DF
:1034C80009000000DB3300085E000000A8010000CE
:1034D80009000000617373657274696F6E2066611C
:1034E800696C65643A202173656C662E61735F733D
:1034F8006C69636528292E69735F656D7074792816
:10350800292F686F6D652F616E647265772F2E6342
:103518006172676F2F72656769737472792F73723E
:10352800632F6769746875622E636F6D2D316563EB
:10353800633632393964623965633832332F6865E6
:1035480061706C6573732D302E352E362F73726350
:103558002F7665632E727300093500085600000047
:103568005000000009000000383100085B0000002E
:10357800FC010000010000002F686F6D652F616E6F
:10358800647265772F2E636172676F2F7265676942
:10359800737472792F7372632F6769746875622EFA
:1035A800636F6D2D3165636336323939646239650D
:1035B800633832332F686561706C6573732D302EF4
:1035C800352E362F7372632F737073632F73706C7D
:1035D80069742E7273000000803500085D000000D9
:1035E800E700000001000000617373657274696F81
:1035F8006E206661696C65643A2060286C65667443
:1036080020213D20726967687429600A20206C6552
:1036180066743A2060602C0A2072696768743A20E0
:1036280060600000F03500082D0000001D3600081D
:103638000C0000002936000801000000546F67677D
:103648006C655475726E4F6E5475726E4F6666690E
:103658006E69740A7372632F6D61696E2E727300DE
:103668005C3600080B000000530000001900000041
:103678005C3600080B0000007000000031000000FC
:103688005C3600080B0000009C000000520000009F
:103698005C3600080B000000A800000035000000A0
:1036A80048656172746265617420616C72656164F9
:1036B80079207363686564756C65642E2045727241
:1036C8006F72200AA836000823000000CB360008D5
:1036D800010000005C3600080B000000DB00000061
:1036E800490000005C3600080B000000CC00000018
:1036F800490000005C3600080B000000F2000000E2
:103708005A0000000B160008040000000400000026
:10371800431600080D160008131600087472756524
:103728003A7474002F686F6D652F616E64726577E7
:103738002F2E636172676F2F726567697374727970
:103748002F7372632F6769746875622E636F6D2DAE
:1037580031656363363239396462396563383233C7
:103768002F636F727465782D6D2D727469632D30B7
:103778002E352E352F7372632F637963636E742E23
:1037880072737365636F6E6420696E7374616E74AF
:10379800206973206C61746572207468616E20738F
:1037A800656C66002C3700085E00000035000000DC
:1037B80009000000617373657274696F6E20666139
:1037C800696C65643A206475722E696E6E65722044
:1037D8003C202831203C3C20333129002C3700087C
:1037E8005E00000046000000090000002F686F6DB1
:1037F800652F616E647265772F2E7275737475709C
:103808002F746F6F6C636861696E732F6E69676878
:10381800746C792D7838365F36342D756E6B6E6F13
:10382800776E2D6C696E75782D676E752F6C696271
:103838002F727573746C69622F7372632F7275734C
:10384800742F6C6962726172792F636F72652F735E
:1038580072632F6F70732F61726974682E727300B0
:10386800F437000873000000DA01000001000000CE
:103878000000000000000000617474656D70742021
:10388800746F20646976696465206279207A65724C
:103898006F63616C6C656420604F7074696F6E3A19
:1038A8003A756E77726170282960206F6E206120EA
:1038B800604E6F6E65602076616C75652F686F6D00
:1038C800652F616E647265772F2E636172676F2F43
:1038D80072656769737472792F7372632F6769747D
:1038E8006875622E636F6D2D3165636336323939C1
:1038F80064623965633832332F73746D33326634DA
:1039080078782D68616C2D302E382E332F737263C2
:103918002F7263632E727300C43800085B000000C6
:10392800640000002C000000C43800085B000000A0
:10393800790000000E000000C43800085B00000099
:103948007B00000016000000617373657274696F74
:103958006E206661696C65643A2076636F5F696E94
:10396800203E3D20315F3030305F30303020262619
:103978002076636F5F696E203C3D20325F303030C7
:103988005F303030C43800085B0000007C00000065
:1039980009000000C43800085B0000008B0000002C
:1039A8000D000000C43800085B0000008D00000016
:1039B8000D000000C43800085B0000009200000001
:1039C80018000000C43800085B0000009D000000DB
:1039D8000D000000C43800085B00000076000000FD
:1039E8001C000000C43800085B00000085000000CF
:1039F80020000000C43800085B00000087000000B9
:103A080038000000617373657274696F6E206661B7
:103A1800696C65643A2021737973636C6B5F6F6EB0
:103A28005F706C6C207C7C20737973636C6B203CBA
:103A38003D20737973636C6B5F6D61782026262057
:103A4800737973636C6B203E3D20737973636C6B81
:103A58005F6D696EC43800085B0000000401000057
:103A680009000000C43800085B00000007010000DE
:103A78002B000000C43800085B000000350100007E
:103A880029000000617373657274696F6E20666146
:103A9800696C65643A2070636C6B31203C3D207022
:103AA800636C6B315F6D6178C43800085B0000009F
:103AB8004101000009000000C43800085B00000054
:103AC8004601000029000000617373657274696F14
:103AD8006E206661696C65643A2070636C6B322095
:103AE8003C3D2070636C6B325F6D6178C4380008B0
:103AF8005B0000005201000009000000617373655B
:103B08007274696F6E206661696C65643A20636CD3
:103B18006F636B732E69735F706C6C3438636C6B96
:103B28005F76616C69642829C43800085B0000006E
:103B3800880100000D000000696E7465726E616C8A
:103B4800206572726F723A20656E746572656420C2
:103B5800756E726561636861626C6520636F646528
:103B6800C43800085B000000470100001200000094
:103B7800C43800085B000000360100001200000095
:103B8800C43800085B0000000801000012000000B3
:103B9800556E646572666C6F774F766572666C6F8A
:103BA80077496E66696E6974654E614E3A20000009
:103BB800B43B000800000000B43B0008020000000D
:103BC8008F23000800000000010000009123000876
:103BD80070616E69636B65642061742027272C20EF
:103BE800E43B000801000000E53B0008030000007A
:103BF8003A000000B43B000800000000F83B000851
:103C080001000000F83B000801000000696E6465CF
:103C180078206F7574206F6620626F756E64733AD2
:103C280020746865206C656E206973202062757445
:103C38002074686520696E646578206973200000C7
:103C4800143C000820000000343C0008120000006A
:103C58002C29307830303031303230333034303510
:103C68003036303730383039313031313132313324
:103C7800313431353136313731383139323032310A
:103C880032323233323432353236323732383239F0
:103C980033303331333233333334333533363337E8
:103CA80033383339343034313432343334343435CE
:103CB80034363437343834393530353135323533B4
:103CC800353435353536353735383539363036319A
:103CD8003632363336343635363636373638363980
:103CE8003730373137323733373437353736373778
:103CF800373837393830383138323833383438355E
:103D08003836383738383839393039313932393343
:103D180039343935393639373938393966616C7358
:103D2800650A0000293D000800000000293D000840
:043D38000100000086
:04000005080001A945
:00000001FF
