:020000040800F2
:1000000000000220A901000869200008992E0008BC
:10001000692000086920000869200008000000002D
:10002000000000000000000000000000692000083F
:10003000692000080000000069200008091000087D
:10004000692000086920000869200008692000086C
:1000500000000000692000089B0B000869200008D0
:10006000692000086920000869200008692000084C
:10007000692000086920000869200008692000083C
:10008000692000086920000869200008692000082C
:10009000692000086920000869200008692000081C
:1000A000692000086920000869200008692000080C
:1000B00069200008692000086920000869200008FC
:1000C00069200008692000086920000869200008EC
:1000D00069200008692000086920000869200008DC
:1000E00069200008692000086920000869200008CC
:1000F00069200008692000086920000869200008BC
:1001000069200008630E00086920000869200008C3
:10011000692000086920000869200008692000089B
:10012000692000086920000869200008692000088B
:10013000692000086920000869200008692000087B
:10014000692000086920000869200008692000086B
:10015000692000086920000869200008692000085B
:10016000692000086920000869200008692000084B
:10017000692000086920000869200008E50B0008D4
:10018000692000086920000800000000000000004D
:10019000000000000000000000000000000000005F
:0801A000692000086920000835
:1001A80080B56F4601F05DFF40F2480040F2000163
:1001B800C2F20000C2F20001814208D240F20001FE
:1001C8000022C2F2000141F8042B8142FBD340F225
:1001D800000040F20001C2F20000C2F200018142B8
:1001E8000DD243F6DC2140F20002C0F60001C2F253
:1001F800000251F8043B42F8043B8242F9D34EF620
:100208008850CEF20000016841F47001016001F0ED
:1002180022FFFEDE02F0C0BC084642F6D971C0F6E5
:100228000001022202F0E0BA704770477047704739
:1002380040F206000021C2F2000000F0B9B840F216
:1002480009000021C2F2000000F0B2B840F2030039
:100258000021C2F2000000F0ABB840F2000000211B
:10026800C2F2000000F0A4B801F0B5B9D0B502AFF1
:100278000446062001F0F6FE0438C0B20B289FBFE2
:100288004EF61851CEF200014454D0BD43F220126C
:100298000C21C0F6000201F0F5FFFEDE01F01ABFE6
:1002A80001F016BFF0B503AF4DF804BD86B00446A3
:1002B80040F21800C2F20000016AA1426ED900EBB8
:1002C800C40350F834200DF1080C5B6801900594C4
:1002D8008CE80E0084B301A800F10805601EB4EB99
:1002E800500F33D044080298A04238D9019800EB47
:1002F800C401284601F050F9064601F075F9059940
:10030800F2B2C0B2824213D1A14231D00298A042C7
:1003180038D90198002C00EBC40350F834205B68EE
:1003280040F8312000EBC10043600594D6D100218C
:100338000198DDE9032300E0002140F8312000EBBB
:10034800C100436006B05DF804BBF0BD43F2301055
:1003580043F2B412C0F60000C0F6000210E043F207
:10036800C41043F2F012C0F60000C0F6000211E01B
:1003780043F2301043F23422C0F60000C0F6000207
:10038800232108E043F2C41043F24422C0F60000DF
:10039800C0F60002292101F05DFFFEDE43F20020D5
:1003A80043F22422C0F60000C0F600022221F2E740
:1003B800B0B502AF044601200D4601F00FF9010661
:1003C8001FBFC0B26178B1FBF0F202FB10101FBF73
:1003D80020448570481C607018BFB0BD42F610708C
:1003E80043F2E822C0F60000C0F60002392101F00D
:1003F80031FFFEDED0B502AF0446012001F0EEF871
:1004080021786278914201D10020D0BD02061FBF39
:10041800C0B2B1FBF0F202FB101001311FBF217016
:1004280020448178012018BFD0BD42F6107043F2F5
:10043800E822C0F60000C0F60002392101F00AFFE8
:10044800FEDEF0B503AF2DE900078EB00446006864
:1004580091468846013001F0C5F800F1010A0646C8
:1004680007F84AAC256801F0B7F8297810B1BFF34E
:100478005F8FFFE717F84A0C07F8491CC9B2884292
:100488001DD00220246801F0A9F801063DD0C0B2B1
:10049800F1B2B1FBF0F202FB101004EB400080F85F
:1004A800039080F8028001F097F810B1BFF35F8FD6
:1004B800FFE784F801A00EB0BDE80007F0BD0220F8
:1004C8000DA9079008A806900020CDE90400032094
:1004D800039043F2A430C0F60000029042F2950067
:1004E800C0F600000B90CDE90901A7F14A000C9075
:1004F8000CA80890A7F1490043F258310D9002A8C2
:10050800C0F6000101F0DFFEFEDE42F6107043F295
:100518005832C0F60000C0F60002392101F09AFEF8
:10052800FEDEF0B503AF2DE900078EB00446006883
:1005380091468846013001F055F800F1010A064657
:1005480007F84AAC256801F047F8297810B1BFF3DD
:100558005F8FFFE717F84A0C07F8491CC9B28842B1
:100568001DD00220246801F039F801063DD0C0B240
:10057800F1B2B1FBF0F202FB101004EB400080F87E
:10058800039080F8028001F027F810B1BFF35F8F65
:10059800FFE784F801A00EB0BDE80007F0BD022017
:1005A8000DA9079008A806900020CDE904000320B3
:1005B800039043F2A430C0F60000029042F2950086
:1005C800C0F600000B90CDE90901A7F14A000C9094
:1005D8000CA80890A7F1490043F258310D9002A8E1
:1005E800C0F6000101F06FFEFEDE42F6107043F225
:1005F8005832C0F60000C0F60002392101F02AFE88
:10060800FEDEF0B503AF2DE9000B8EB0064600689C
:100618008846013000F0E6FF00F10109054607F8B9
:100628004A9C346800F0D8FF217810B1BFF35F8F7F
:10063800FFE717F84A0C07F8491CC9B288421AD0D4
:100648000120366800F0CAFF01063AD0C0B2E9B20C
:10065800B1FBF0F202FB1010304480F8028000F089
:10066800BBFF10B1BFF35F8FFFE786F801900EB0B4
:10067800BDE8000BF0BD02200DA9079008A8069060
:100688000020CDE904000320039043F2A430C0F613
:100698000000029042F29500C0F600000B90CDE9F0
:1006A8000901A7F14A000C900CA80890A7F149008D
:1006B80043F258310D9002A8C0F6000101F003FE84
:1006C800FEDE42F6107043F25832C0F60000C0F663
:1006D8000002392101F0BEFDFEDED0B502AF84B0C4
:1006E800007830B101280BD043F26842C0F600020E
:1006F8000AE001AC43F27442C0F60002072305E0A9
:1007080043F26E42C0F6000201AC0623204602F016
:100718002BFA204601F0EAFD04B0D0BDF0B503AFD6
:100728002DE9000FA1B080464EF6F050CEF2000041
:10073800006810F0010409D043F27B400521C0F69F
:10074800000000F082FE002840F0EA8003AE029428
:10075800304601F0BFF815AD1ECE28461EC096E8FB
:100768001E001EC0A8200D9C01F0DDFB01F0E0FB7F
:100778000EAECDE91E044FF0010A29463046CDF8E9
:1007880074A001F0B0F801F0D9FB01F0E0FB002003
:100798004FF00D09C4F20200C16821F00301C160E5
:1007A800016821F0030101604FF6084043F600415B
:1007B800CFF6FF70C4F201010A5822F00F020A5066
:1007C800886840F00100886043F60C40C4F20100DC
:1007D800026822F001020260086840F00100086027
:1007E8000D20022101F0BCFB0ECE28460EC096E873
:1007F8001E001EC0142001F095FB834640F20840FD
:1008080040F60004C4F247200021C0F800A4C0F854
:1008180000A0C4F200040160A06969F3CE20A061C1
:10082800206840F080002060284601F077FB0646EB
:10083800284601F075FB0546584601F075FB00286F
:100848004FD0E9B2012918BF02217143B1FBF0F082
:10085800411E0A0C0AEB1141A26289B2002940D05C
:10086800B0FBF1F0B0F5803F47D2E062206840F07D
:100878000400206001206061216821F004012160EA
:10088800206015A80021002401F0B4FB012000F02D
:10089800B9F8C0B2032801BFC8F80B40C8E9004442
:1008A800C8F8084088F8114001BF029888F810007D
:1008B80021B0BDE8000F08BFF0BD8DF8540043F229
:1008C8009C40C0F6000043F23803009042F6DB700B
:1008D800C0F60000C0F6000315AA2B2101F019FC90
:1008E800FEDE42F6C07042F6A472C0F60000C0F602
:1008F8000002192101F0AEFCFEDE022043F20803DB
:1009080007F81D0C42F6A470C0F60000C0F60003FC
:10091800009042F6DB70C0F60000A7F11D02DCE78C
:1009280043F28C4043F21803C0F60000C0F60003FF
:10093800009042F6DB70C0F60000CDE780B56F4648
:1009480001F0D1FBFCE7F0B503AF4DF8048D82B0A0
:10095800804601F0B9FB044601F0BAFB01F0CCFB7C
:1009680040F20300C2F20000FFF744FD0646E0072C
:100978000D4608BF01F0AEFBF0074FF001003DD077
:1009880060F31F2501F0A0FB044601F0A1FB01F074
:10099800B3FB40F2180604F00104C2F20006CDE9E8
:1009A8000085306A50B140F218016846C2F2000171
:1009B80000F0FBFDC0B2FF280FD107E04EF2100097
:1009C800CEF20000016841F0020101604EF60450C9
:1009D8004FF08061CEF200000160306ADDE900125C
:1009E80046F8301006EBC003316A5A6001313162B3
:1009F800FFF758FC0CB901F06DFB002002B05DF860
:100A0800048BF0BDF0B503AF4DF8048D054601F039
:100A18005BFB044601F05CFB01F06EFB40F2060054
:100A2800C2F20000FFF7E6FC0646E007884608BF6A
:100A380001F050FBF00730D040F259015FFA88F01E
:100A4800C2F200010D5401F03FFB054601F040FBE6
:100A580001F052FB022000F0C1FD010621D040F256
:100A68001201C0B2C2F200014A78B2FBF0F303FBF4
:100A78001020012301EB400080F803808370501C94
:100A88004870E80708BF01F025FB4EF20420032553
:100A9800CEF200004FF40031016028465DF8048B67
:100AA800F0BD42F6107043F2E822C0F60000C0F62E
:100AB8000002392101F0CEFBFEDEF0B503AF2DE9CF
:100AC800000B82B00D46804601F0FEFA064601F0A2
:100AD800FFFA01F011FB40F20900C2F20000FFF733
:100AE80089FC0446F007894608BF01F0F3FAE007DD
:100AF8004AD040F25C005FFA89F6C2F2000040F882
:100B0800268040F26000C2F20000855501F0DCFA50
:100B1800044601F0DDFA01F0EFFA40F2180506F597
:100B28004071C2F2000504F00104286ACDE9008191
:100B380050B140F218016846C2F2000100F035FDDC
:100B4800C0B2FF280FD107E04EF21000CEF200002D
:100B5800016841F0020101604EF604504FF08061D7
:100B6800CEF200000160286ADDE9001245F8301075
:100B780005EBC003296A5A6001312962FFF792FB2D
:100B88000CB901F0A7FA0225284602B0BDE8000B0F
:100B9800F0BDB0B502AF00F016FD01F0A6FA0446AC
:100BA80000F0CEFC05464AF28020C0F2190000F0A1
:100BB80006FD0146284600F0C9FCFFF7C4FE43F6CF
:100BC80000400121C4F201004161016821F00101E6
:100BD80001602046BDE8B04001F08BBAF0B503AF24
:100BE8002DE9000F85B040F20C0440F2480A40F2AB
:100BF800580B0DF10C09C2F20004C2F2000AC2F24D
:100C0800000B204600F0EEFC054600F0E5FC61789C
:100C180010B1BFF35F8FFFE7C8B2EEB2864200F0B3
:100C2800D680022000F0DAFC010600F0D880C0B2BD
:100C38000135B6FBF0F101FB106004EB400046887B
:100C480000F0CAFC10B1BFF35F8FFFE7310AF0076D
:100C580025702FD140F20300C2F20000CDE9030055
:100C68004846FFF7CEFCD02001F043FADAF800003E
:100C78000A285BD210215044C4F20201096801F02D
:100C880001014171DAF800000130CAF8000000F0F3
:100C980057FC05464AF28020C0F2190000F08FFC8C
:100CA8000146284600F052FCFFF74DFE002800F0F0
:100CB8008280B0E040F25C00C2F2000050F821509F
:100CC80040F26000C2F20000465C40F20900C2F245
:100CD8000000CDE903004846FFF793FCE02001F04F
:100CE80008FA584601F07AF9804600043AD05C4682
:100CF80002952046CB4601F077F9814620462546E5
:100D080001F05EF9F0074FF000064FF69C7056D0E0
:100D18001FFA89F1D946AB46029D40F20C041FFA2E
:100D280088F28A42C2F200041FD120E00020052187
:100D38001AF8012001310F291044F9D1052805D9E5
:100D48000220FFF75FFEC0B2032872D143F60041CC
:100D58000020CAF80000C4F20101086840F0010050
:100D6800086028E0584601F02BF90126642008EBBA
:100D78000001584601F03EF9584601F028F99BF861
:100D88000000012810D14EF28070C0F24C0000F033
:100D980016FC0146284600F0D9FB3146FFF78DFEC8
:100DA800C0B2022807D026E0584601F009F9584693
:100DB800002101F01FF9F02001F09BF921E740F232
:100DC8000C04D946AB46C2F20004029DCFE70020CE
:100DD80005B0BDE8000FBDE8F04001F08AB942F661
:100DE800107043F25832C0F60000C0F600023921F4
:100DF80001F030FAFEDE8DF80C0043F2FC30C0F64C
:100E0800000043F22803009042F6DB70C0F60000B1
:100E1800C0F600031CE043F2484043F21803C0F652
:100E28000000C0F60003009042F6DB70C0F6000038
:100E38000EE08DF80C0043F25840C0F6000043F273
:100E48003803009042F6DB70C0F60000C0F60003DD
:100E580003AA2B2101F05DF9FEDEF0B503AF2DE901
:100E6800000F85B001F041F940F2120540F2060A80
:100E780040F258080DF10C09C2F20005C2F2000A4E
:100E8800C2F200080290284600F0ACFB044600F0CD
:100E9800A3FB697810B1BFF35F8FFFE7C8B2E6B272
:100EA800864200F08180022000F098FB010600F0E5
:100EB8008380C0B20134B6FBF0F101FB106005EB92
:100EC8004000B0F802B000F087FB10B1BFF35F8FAD
:100ED800FFE74FEA1B215FEACB702C702CD140F260
:100EE8000000C2F20000CDE903004846FFF789FB85
:100EF800D02001F0FEF840F248010122C2F20001C0
:100F080008790A71012813D000F01AFBFFF71BFDBE
:100F180040F26101C2F20001097849B140B143F2DF
:100F28000C401C21C0F6000000F08FFA00284FD1B9
:100F3800E02001F0DEF8A6E740F25900CDE903AA67
:100F4800C2F20000445C4846FFF75BFB98F80000DB
:100F580028B1022C18BF002C22D0012021E0601EED
:100F680002281DD2012088F8000000F0E9FA0121CA
:100F7800FFF7A3FDC0B202281FBF40F26100C2F212
:100F88000000007800283FF47EAF43F2BC301F21F8
:100F9800C0F6000000F059FA00283FF474AF1CE0D6
:100FA800002088F800006EE7029805B0BDE8000F41
:100FB800BDE8F04001F09DB842F6107043F2583297
:100FC800C0F60000C0F60002392101F043F9FEDE48
:100FD80043F23840C0F6000003E043F2EC30C0F6BC
:100FE800000043F21803009042F6DB7003AAC0F633
:100FF8000000C0F600032B2101F08BF8FEDED4D4EC
:10100800F0B503AF2DE9000F87B04EF2100840F29B
:10101800180640F212090DF1140ACEF20008C2F2C5
:101028000006C2F2000901F04FF8044601F050F83A
:1010380001F062F8306A0394D8B13068049000F087
:10104800C2FA059004A8514600F0AFFAC0B2FF28D2
:1010580017D000F0B5FA05460C46DDE9040100F0AA
:1010680088FA00F0ABFAA0FB050111B36FF07F40DE
:101078002DE0D8F80000002520F00200C8F8000094
:101088002AE0306A002800F0EC80B0F1010A06EB93
:10109800CA004068C6F820A020D07568BAF1010FD0
:1010A80056F83A1002900191C6E9001019D10024AF
:1010B8004AE0002C00F0DF80844201D9012006E0DC
:1010C800B0FBF4F06FF07F41884228BF0846002546
:1010D800C8F80400C8F8085004244AE0040A054681
:1010E80045E04FF000094FF0010808F101045445AC
:1010F80013D2C14518BFA14500F0948006EBC80083
:1011080006EBC40100F048FA5FFA80FB00F06CFAC5
:10111800C0B2834508BF444600E04446A14500F0FC
:101128008A80A24540F2918006EBC40156F834004B
:10113800496846F8390006EBC900A14641606000DD
:1011480000F10108D045D0D3019846F8340006EBE9
:10115800C400029941602046FFF7A4F84EF2100837
:1011680040F212092C0ACEF20008C2F200090DF171
:10117800140A039810F0010008BF00F0ABFFE0B2BA
:10118800DFE800F003310F264C0000F09DFF044615
:1011980000F09EFF00F0B0FF50460021CDE9059910
:1011A8000AE000F091FF044600F092FF00F0A4FF6F
:1011B800CDE90599504601212A46FFF7B2F9E00723
:1011C80008BF00F087FF4FF40030C8F8F4012AE7A1
:1011D80000F07AFF044600F07BFF00F08DFF40F23C
:1011E8000C00012109E000F06FFF044600F070FFD9
:1011F80000F082FF40F20C000021C2F20000CDE9AD
:10120800050050462A46FFF71CF9E00708BF00F022
:1012180061FF4FF40040C8F8F80104E707B0BDE8E3
:10122800000FF0BD43F2301043F2B412C0F60000D4
:10123800C0F6000207E043F2301043F23422C0F651
:101248000000C0F60002232108E043F2C41043F274
:101258004422C0F60000C0F60002292100F0FAFF7F
:10126800FEDE43F2542043F2D822C0F60000C0F656
:1012780000022D21F2E742F6C07043F2AC02C0F63C
:101288000000C0F600021921E8E780B56F4686B075
:10129800FFF706F8FEF7E1FFFEF7D8FFFEF7C8FFF5
:1012A800FEF7CDFF40F245000124C2F200004EF2E5
:1012B800100504704EF20640CEF20000F02180F8CE
:1012C8004910CEF200054FF40041C5F8F810E021AE
:1012D80080F82B104FF40031C5F8F410D0210170BC
:1012E8004020C5F8F000E020FEF7C0FF286840F075
:1012F80004002860286840F0010028604EF6FC5081
:10130800CEF20000016841F080710160FEF7ACFF89
:1013180000F05FF940F24400C2F20000047001AC32
:101328002046FFF7FBF994E82E0040F24800C2F28D
:1013380000002EC040F26100C2F200009DF81410B7
:10134800017040F258009DF81520C2F200000270AA
:10135800FEF7A4FFFFF7F2FAFEDE80B56F4682B013
:1013680000228029019203D28DF8041001222FE077
:1013780002220B4662F39F13B1F5006F05D28DF878
:101388000530C02343EA911120E0B1F5803F0DD22A
:101398008DF806308B0962F39F13E02242EA11317F
:1013A8008DF805308DF80410032211E08DF8073010
:1013B8008B0962F39F138DF806300B0B62F39F13B2
:1013C800F02242EA914104228DF805308DF804108C
:1013D800006801A900F088F802B080BDF0B503AF3D
:1013E8004DF804BD88B0019002AA91E8785043F204
:1013F800AC411046C0F6000180E8785001A800F022
:10140800A2FF08B05DF804BBF0BD70470068FFF7A5
:10141800A4BFF0B503AF4DF804BD88B0006802AAB8
:10142800019091E87850104643F2AC41C0F60001B3
:1014380080E8785001A800F086FF08B05DF804BB8A
:10144800F0BD0068006800F04FB8F0B503AF2DE9B3
:10145800000B84B08846814600F036FE064600F050
:1014680037FE00F049FE40F23C0506F00104C2F2E6
:1014780000052868012801D1686811E0032001A946
:1014880003900420029043F2C840C0F600000126F1
:101498000190012000F052F8411C06D0C5E9006017
:1014A8004946424600F020F806460CB900F012FE04
:1014B800304604B0BDE8000BF0BD80B56F4684B07F
:1014C800032001A903900420029043F2C840C0F60B
:1014D80000000190012000F031F801460130B0FA17
:1014E80080F0400904B080BD0AB3F0B503AF2DE920
:1014F800000B84B001AB0C4607C301A98146052047
:10150800154600F01BF880B10DF10408854210D390
:1015180006460390281A414604440520CDE9019463
:1015280000F00CF800283546F0D1002002E0002039
:101538007047012004B0BDE8000BF0BDABBE70479A
:1015480041F20400CEF2000000687047B1F1FF3F9D
:10155800C4BF0844704780B56F4643F2645043F2F5
:101568008C52C0F60000C0F60002272100F072FE7F
:10157800FEDE401AB0F1FF3FC8BF704780B56F4626
:1015880043F2325043F25452C0F60000C0F6000253
:10159800212100F05FFEFEDE09680068401A18BFCE
:1015A800012048BF4FF0FF30704709680068401AB3
:1015B80018BF012048BF4FF0FF3070477047704791
:1015C80001200121704741F20400CEF200000068BA
:1015D800704700207047704700207047FF2828BFD9
:1015E800FF20704700787047FF207047F0B503AFC1
:1015F8002DE9000F85B0D1E9004AD2E900E39668E9
:101608005445039300F282800A7A002A7ED1D1E9F8
:10161800032346F60049D1F814B0C0F2DC2954453A
:1016280004933DD2CDE90106D2F80080B8F1000F4D
:1016380000F08A8004FB09F1002C70D0DBF8002050
:10164800002A75D0B1FBF8F000FB08F5B5FBF4F003
:10165800B5FBF2F2A9EB000304980668BEEB0300A1
:1016680018BF01209E4538BF4FF0FF30B6EB020C83
:1016780004F1010248BFCCF1000C30B9039DB5EB71
:101688000C0018BF0120654505DBC0B2012804BF66
:10169800CDE9024C9E46494492451446CCD104E01B
:1016A80034D1CDE90106D2F80080B8F1000F4BD053
:1016B800BAF1000F33D0DBF80020CAB30AFB09F0F7
:1016C800B0FBF8F000FB08F3B3FBFAF0B3FBF2F25F
:1016D800A9EB00010498BEEB0105066818BF0125B7
:1016E8008E4538BF4FF0FF35B21A48BF5242DDE988
:1016F80001062DB9039B9D1A18BF0125934205DBEE
:10170800EBB2012B02BF564603928E460399C0F8EE
:1017180000E0C0E9011605B0BDE8000FF0BD43F2D6
:10172800206043F21062C0F60000C0F6000207E035
:1017380043F2206043F29C72C0F60000C0F600023B
:10174800192100F087FDFEDE43F2206043F28C721F
:10175800C0F60000C0F60002F2E7F0B503AF2DE9CD
:10176800000BD0E9003E73452FD8057A6DBBD0E950
:1017780003C8734515D2D8F80090DCF800504BB375
:101788009D4230D3B5FBF3F05E1CB9FBF0F404FBCB
:10179800109088423CBF1A460146B6453346EED102
:1017A80000E012D1BEF1000F14D0DCF80030734510
:1017B80019D3D8F80000B3FBFEF3B0FBF3F606FB31
:1017C800130088423CBF7246014608461146BDE8F0
:1017D800000BF0BD43F2206043F21062C0F6000037
:1017E800C0F6000207E043F2206043F27C72C0F6C4
:1017F8000000C0F60002192100F02CFDFEDED0B575
:1018080002AF0B68D3F800E0BEF1000F1ED032B370
:101818008B68D3F800C0BCF1000F29D046F600430E
:101828004968C0F2DC23826002FB03F40968B4FB58
:10183800FEF404FB0EF4B4FBF2F29A1A0260B4FB55
:10184800FCF2891A48BF49424160D0BD43F220608A
:1018580043F28C72C0F60000C0F6000210E043F2BA
:10186800206043F21062C0F60000C0F6000207E0F4
:1018780043F2206043F29C72C0F60000C0F60002FA
:10188800192100F0E7FCFEDE80B56F46C9B1026899
:1018980012688A4221BF4068B2FBF1F20068B0FBCF
:1018A800F2F324BF03FB120080BD43F2206043F231
:1018B8007C72C0F60000C0F60002192100F0CAFCD4
:1018C800FEDE43F2206043F21062C0F60000C0F66C
:1018D8000002F2E7002180F82810016281610161AD
:1018E800816001607047F0B503AF2DE9000FA3B028
:1018F800D1E900A5804646F6004C43F6000BBAF144
:10190800000F04BF42F20045C0F2F405D1E908090E
:10191800C0F2DC2C0895C4F2020B002808BFA946C7
:10192800CDF82490A94504BF91F82800002800F0BC
:101938000F81B9F1000FCDF810A000F098824DF694
:101948008360C4F21B30A5FB00624CF60046C1F66A
:10195800BF16B6FBF9F626F0010A48F27F46C0F238
:101968001E06BAF1080F28BF4FF0080AAC1991F803
:1019780028600AFB09F30591A4FB0001CDF828A013
:10198800304660460696002E029308BF18460B9014
:101998000BA8119008A810900020C90C8DF83C00E5
:1019A800900CB1EB924F0E900D9100F2698281423A
:1019B800CDF80080079502D2481C0D9002E0012066
:1019C8008DF83C000DF1340808F10C000390FFF786
:1019D8005BFF8E4641460DF1680B91E87C0084461A
:1019E800584661467CC0584672465C46FFF7B5FECD
:1019F800002900F04F82089E44F2402343F6000B72
:101A0800C0F20F03B6FBF1F0C4F2020BA0F574228A
:101A18000C90A2F510729A4200F24582069AA2B37F
:101A28000AA8129009A811900CA810900020029101
:101A38008DF83C0009200DF14C0A03990E90052001
:101A48000D9050460422FFF7DAFE2146204698E81A
:101A58007C1080E87C1020AA9AE86800104668C0CC
:101A680016A8FFF7C3FD0C98002800F02F821899DC
:101A780046F60045C0F2DC25DDF828A0DDF8008038
:101A88006943B1FBF0F402990BE0DDF80080B14244
:101A980000F23882029A46F60045C0F2DC25B2FB15
:101AA800F0F404FB0052531E49F68172C1F25E62E3
:101AB800AB42A3FB0262C0F0008247F6C073049EEB
:101AC80003EA84154FF00053002E18BF4FF001535E
:101AD80001F03F066043334459194FF4403303EA99
:101AE800CA33920D03F5403303F44033194402F02E
:101AF8000F0341EA0361CBF80410079B994502D113
:101B0800099E059906E00599BAF1000F00F0E781F2
:101B1800B0FBFAF6DDF810A0B0FBF2F099450190A1
:101B280005D10020012405903546012316E0A6F1D1
:101B3800B77044F20042A0F55850C0F695029042A2
:101B480000F2D6810020012300243546059005E0E7
:101B5800002001240690012005900023D1E902020B
:101B6800002808BF2A46002A00F03781A5F1010E97
:101B780003930EEB0200B0FBF2F2012A0FD0022A07
:101B880009D0002A00F03281D01E032836D24FF047
:101B9800900C042205E04FF0800C022201E04FF087
:101BA800000C4DF68066D1E90403B5FBF2F9C0F2EA
:101BB8008026B145324638BF4A46002818BF1A4623
:101BC800002A00F01C81A9F1010304949818B0FBC5
:101BD800F2F2012A0FD0022A09D0002A00F0188157
:101BE800D01E032812D204204FF4A05219E002207C
:101BF8004FF4805215E00120002212E0901F0628C1
:101C080080F0BB804FF0A00C0822CAE7901F4FF469
:101C1800E05206284FF0100038BF4FF4C05238BFCA
:101C28000820B9FBF0F40795B442029000F2F9805D
:101C38004BF60050D1E90656C0F2015081450146E5
:101C480038BF4946002D18BF3146002900F0F28000
:101C58000B44B3FBF1F3012B0FD0022B09D0002B5F
:101C680000F0F180D91E03290AD204254FF420433D
:101C780010E002254FF400430CE00125002309E0A1
:101C8800991F4FF460431025062938BF4FF440438D
:101C980038BF0825B9FBF5F6864200F2DE8045F22A
:101CA800C7414FEADE10C0F21E11BAF1000FA0FBC7
:101CB8000101DBF800044FEAD0004FEA912160F3FC
:101CC800DF0141F4E060CBF8000409D0DBF8000044
:101CD80040F48030CBF80000DBF800008003FBD52F
:101CE800059848B9DBF8000040F08070CBF8000098
:101CF800DBF800008001FBD5DBF8081042EA0C0095
:101D08004FF6F042184391430843CBF808001020DF
:101D180000F0E2F9DBF80800049920F0030000293C
:101D280008BF4FF0020A5044CBF80800029888F820
:101D38001800079888F81950C8E90094C8F80C00EA
:101D48000398C8F8100001990698C8F80860C8F800
:101D5800141070B10598B0BB46F60040C0F2DC2004
:101D6800401A4DF2C14148BF4042C0F201018842C9
:101D780029DA23B0BDE8000FF0BDA2F10C001C2841
:101D880003D24FF0B00C10220BE7A2F1280038283C
:101D980003D24FF0C00C402203E7A2F16000602894
:101DA80003D24FF0D00C8022FBE6A2F1C0004FF026
:101DB800F00C4FF40072C02838BF4FF0E00C38BF69
:101DC8004FF48072EDE643F6A40043F6D002C0F665
:101DD8000000C0F600022C219DE043F2206043F68B
:101DE8000C02C0F60000C0F6000293E043F6E000E3
:101DF80043F62812C0F60000C0F600022BE043F2BA
:101E0800206043F61C02C0F60000C0F6000281E024
:101E180043F6E00043F61812C0F60000C0F60002D0
:101E280019E043F62C0043F65002C0F60000C0F655
:101E380000021AE043F2206043F66002C0F6000098
:101E4800C0F6000266E043F6E00043F60812C0F66A
:101E58000000C0F6000228215DE043F6700043F65A
:101E68009402C0F60000C0F60002242153E043F2B9
:101E7800206043F2C062C0F60000C0F6000249E0EC
:101E880043F2396043F2D062C0F60000C0F60002A7
:101E98002B2140E043F2206043F2E062C0F60000EC
:101EA800C0F6000236E043F2F06043F22C72C0F64E
:101EB8000000C0F600023C212DE043F2206043F20E
:101EC8005C72C0F60000C0F6000223E043F2206016
:101ED80043F23C72C0F60000C0F600021AE043F27A
:101EE800206043F26C72C0F60000C0F6000211E0F8
:101EF80043F2AC7043F2FC72C0F60000C0F6000278
:101F0800502108E043F2206043F24C72C0F6000012
:101F1800C0F60002192100F09DF9FEDE4068704706
:101F2800007E7047704770474FF47A714843704796
:101F380044F24021C0F20F014843704743F6300095
:101F4800C4F20200016841F001010160704743F6E4
:101F58003000C4F20200016841F0080101607047D6
:101F6800D0B502AF40F600448300C4F20204202B2F
:101F78000BD201FA03FE0F21D4F820C099402CEAB5
:101F8800010141EA0E0121620CE003F01C03D4F8C0
:101F980024C001FA03FE0F2199402CEA010141EA0D
:101FA8000E0161621E2101EA40000221236803221A
:101FB800814002FA00F023EA000008432060D0BD07
:101FC80040F210400021C4F201200160704740F245
:101FD80010400121C4F201200160704740F638002A
:101FE800C4F200000068704740F62C00C4F20000FC
:101FF8000068704788B240F63801C4F200010860F2
:102008007047D4D4D0B502AF84B00078DFE800F0D0
:102018000215070E43F64912C0F6000203E043F624
:102028004112C0F6000201AC08230CE001AC43F6F3
:102038003812C0F60002092305E001AC43F651123C
:10204800C0F600020323204600F08EFD204600F073
:102058004DF904B0D0BD80B56F46FFF716F9FEDE26
:10206800FEE77047C1B20F20DFE801F00406080A56
:102078000C0E0F000420704705207047062070479B
:102088000B2070470C2070470E207047B0B502AF88
:10209800056808460C4600F05FFD28B12846214631
:1020A800BDE8B04000F08BBD204600F059FD28B1D6
:1020B80028462146BDE8B04000F0B1BD284621467B
:1020C800BDE8B04000F0DBBD00F00AB800BE7047C4
:1020D80072B6704762B6704740080138FDD1704744
:1020E800EFF31080704730BF7047EFF31180C0B234
:1020F800704780F31188704770470068FEE77047A3
:102108004CF2A95046F65C31C6F26500C3F6D431EC
:10211800704780B56F468EB08DE80F000AA902207F
:102128000891002109900791CDE9050143F658105F
:10213800C0F60000D7F808C0049042F6F750C0F681
:1021480000000D9002A80C9042F63B60C0F600001B
:1021580061460B9068460A9004A800F0B4F8FEDEC9
:10216800F0B503AF4DF804BD8EB00C460546D1E975
:1021780006010C22CB6843F67811C0F60001984797
:1021880028B1012630460EB05DF804BBF0BDA86842
:1021980038B1019042F60F62D4E90601C0F6000298
:1021A80017E0D5E90060C168304688474AF61E1234
:1021B800C7F6F26251404BF6F442CEF6C7425040A1
:1021C80008431CD1019642F60162D4E90601C0F623
:1021D8000002039201AA0292012602AA0D960C920D
:1021E80000220B920A920222099243F68812C0F644
:1021F8000002089208AA00F0A6F80028C2D1EA68EE
:1022080042F60553C0F60003D4E9060102F10C06B4
:102218000793CDE9053602F10803049342F63B63C0
:10222800C0F60003CDE9022302AB03220C9300237E
:102238000D920B93CDE9092343F69C12C0F60002D8
:10224800089208AA00F07FF8064630460EB05DF8FE
:1022580004BBF0BD80B56F4688B0944643F654126F
:10226800C0F60002CDE90601002304920122684667
:1022780061460593CDE90233019206AA009200F067
:1022880022F8FEDE80B56F468CB0CDE9000108A9C2
:1022980002200691002107900591CDE9030143F63C
:1022A800E810C0F600006946029042F60550C0F6F4
:1022B80000000B90CDE9090101A8089002A8114679
:1022C80000F001F8FEDE80B56F4684B0CDE902016A
:1022D80043F66810C0F60000019043F65410C0F6AB
:1022E80000000090684600F0ADFDFEDEB0B502AF1C
:1022F8000446057A406808B30DB101251DE00128A0
:1023080010D1607A70B12168087840070AD4D1E901
:1023180006010122CB6843F6F811C0F60001012539
:10232800984750B921680122D1E90601CB6843F6E4
:10233800F911C0F60001984705462572002D18BF0F
:1023480001252846B0BDF0B503AF2DE9000F8DB0CB
:1023580014460322D4F808B08DF8302020220592C4
:102368000022BBF1000F04920B910A90089206928A
:1023780071D0E268D4E9006A524588BF5246002A03
:10238800039600F09580CDE901A2D6E90032CE6827
:102398001946B047002840F0A18002980025D4F8DB
:1023A80010904FF01008A0F1010A0BEB8501D1E95C
:1023B8000532D1E901040E7F05900BEB08008DF87A
:1023C800306004946BB1022B0DD009EBC20342F2CA
:1023D8000316C0F600065B68B34204D159F83220F0
:1023E8001268012400E000245BF80830CDE90642B9
:1023F800C96869B102290DD009EBC30142F2031281
:10240800C0F600024968914204D159F833100B68AC
:10241800012100E0002150F8102C099359F83200EE
:1024280009EBC2025268089104A99047002855D1C7
:10243800BAF1000F57D00399DDE90A034A19DB689E
:10244800D2E902129847AAF1010A08F120080835D2
:102458000028AAD042E0D4F81490D4E9006AD14503
:1024680088BFD146B9F1000F039626D0D6E90032CD
:10247800CE6824691946B04780BB0398A9F10105C5
:1024880004340DF1100800F1080654F8040C414614
:102498002268904710BB95B1DDE90A03D6E900121E
:1024A800DB689847013D083608340028EDD015E070
:1024B8004FF00009CA4504D819E04FF00009CA4591
:1024C80015D9039A4946DDE90A034E46DB6852F8F6
:1024D800311002EBC9025268984740B101200DB093
:1024E800BDE8000FF0BDDDE901A9CA45E9D8002023
:1024F8000DB0BDE8000FF0BDF0B503AF2DE9000F3A
:1025080083B0D7E902649A468346E1B1DBF800E07C
:102518002B211EF0010008BF4FF4881100EB0408BE
:102528005FEA4E7017D5BAF1000F24D0AAF1010066
:102538000AF0030C032821D24FF000091346BCF11E
:10254800000F4BD165E0DBF800E004F101082D2114
:102558005FEA4E70E7D400224FF0000ADBF808006B
:1025680001285ED05846534600F01CF9002800F0B8
:102578007980012594E04FF000094AE002912AF0A1
:1025880003014D424FF0000911461346CDE90046BC
:102598001A78587802F0C0029E78DC78802A00F019
:1025A800C00008BF09F10109802806F0C00008BF73
:1025B80009F10109802804F0C00008BF09F10109E8
:1025C800802808BF09F1010904330435E0D10A461F
:1025D800DDE900460299BCF1000F1AD0187800F026
:1025E800C000802808BF09F10109BCF1010F10D013
:1025F800587800F0C000802808BF09F10109BCF133
:10260800020F06D0987800F0C000802808BF09F1B2
:10261800010908EB0A00A0EB0908DBF8080001280B
:10262800A0D1DBF80C90C14515D95FEA0E7026D40D
:102638000192A9EB08009BF8202000258146032A77
:1026480008BF01220291DFE802F0450241024FF083
:10265800000905463EE05846534600F0A3F8002816
:1026680040F07A80DBF81C102246DBF81800CB68B3
:10267800314603B0BDE8000FBDE8F0401847DBF86D
:1026880004000125029030209BF820300193534626
:10269800CBF8040058468BF8205000F083F820B19E
:1026A800284603B0BDE8000FF0BD9BF82020A9EB39
:1026B80008010020B146032A08BF01220D46DFE8C1
:1026C80002F0360233020025084630E0411C450876
:1026D8004FEA51090135013D08D0DBE90602DBF874
:1026E8000410126990470028F5D035E0DDE9012192
:1026F80058465346DBF8048000F054F860BBDBE929
:1027080006012246CB683146984728BBDBE906A478
:1027180009F101060125013E32D0226950464146A1
:1027280090470028F7D0BBE7480801314D08461C00
:10273800013E08D0DBE90602DBF804101269904775
:102748000028F5D008E0DBE906012246CB684946B7
:10275800DBF80480984728B10125284603B0BDE876
:10276800000FF0BDDBE9069A6E1C0125013E0DD075
:10277800DAF810204846414690470028F6D08FE7FF
:102788000025284603B0BDE8000FF0BD01980025DC
:102798008BF820000298CBF80400284603B0BDE867
:1027A800000FF0BDF0B503AF4DF804BD1C4615464B
:1027B8000646B1F5881F08D0D6E906021269904787
:1027C80018B101205DF804BBF0BD4DB1D6E9060192
:1027D8002246CB6829465DF804BBBDE8F04018479F
:1027E80000205DF804BBF0BDF0B503AF2DE9000F84
:1027F80081B0D0F808E08346006991460C46BEF1E6
:10280800010F13D1012814D0B9F1000F00F0208175
:10281800A9F1010E09F0030CBEF1030F6AD20023DF
:102828002146BCF1000F40F08A80A0E0012840F06A
:102838002981DBF8143004EB0905002220460094B6
:102848002BBB85424FD00146009C11F9013BB3F1E7
:10285800FF3F40F39C80002A18BF4A4540F0E280C1
:102868002046E8E011F8010B00F03F0808464FF455
:10287800E01101EA864141EA0A3141EA8C114144FA
:10288800B1F5881F2FD0011B013B0A44D9D08542DE
:1028980029D0044610F9011BB1F1FF3FF3DCCEB299
:1028A800A84207D06178A01C01F03F0A0146E02E3B
:1028B800E9D304E04FF0000A2946E02EE3D3A94209
:1028C80007D011F8010B00F03F0C0846F02EDAD3C0
:1028D80004E04FF0000C2946F02ED4D3A942C1D110
:1028E8004FF00008C3E74A46009CBEF1010F40F0D4
:1028F8002981A8E029F0030100234E42A046214681
:102908000D784C78887805F0C005CA78802D04F0D9
:10291800C00408BF0133802C00F0C00008BF013399
:10292800802802F0C00008BF0133802808BF0133A7
:1029380004310436E4D14446BCF1000F17D00878BE
:1029480000F0C000802808BF0133BCF1010F0ED091
:10295800487800F0C000802808BF0133BCF1020F9E
:1029680005D0887800F0C000802808BF0133DBF864
:102978000C80A9EB0300404580F08480BEF1030F72
:1029880012D200222346BCF1000F32D166E0DBB23E
:10299800A94200F0AC804178023001F03F01890182
:1029A800E02B80F0A98056E729F003000022464278
:1029B800A646234618785D7800F0C0009C78D97840
:1029C800802805F0C00008BF0132802804F0C0004C
:1029D80008BF0132802801F0C00008BF01328028FA
:1029E80008BF013204330436E4D17446BCF1000F49
:1029F80034D0187800F0C000802808BF0132BCF13C
:102A0800010F2BD0587800F0C000802808BF013291
:102A1800BCF1020F22D0987800F0C000802808BFCF
:102A280001321BE04A4504D2A05610F1400FBFF610
:102A380017AF0020002200280CBF4A460446BEF10A
:102A4800010F40F07F809146B9F1000F7FF4E0AEAE
:102A5800DBF80C80B8F1000F14D000229BF820009E
:102A68002546C31E18BF0346A2EB090000EB080168
:102A780000208A46DFE803F010020C024FF0000A3B
:102A8800084609E0DBF81C104A46DBF818005BE052
:102A9800480801314FEA510A441C013C08D0DBE9DF
:102AA8000602DBF80410126990470028F5D014E0FC
:102AB800DBE906014A46CB682946DBF804809847DB
:102AC80058B9DBE906650AF10104013C0AD02A6914
:102AD8003046414690470028F7D0012001B0BDE8B4
:102AE800000FF0BD002001B0BDE8000FF0BD0021CF
:102AF8002846E02BFFF4AFAEA84207D010F8016BD0
:102B080006F03F06F02BFFF4A6AE04E000262846A8
:102B1800F02BFFF4A0AE31434FF4E01606EA8343EE
:102B2800A8421ABF007800F03F00002043EA811154
:102B38000844B0F5881F7FF48EAE4A46BEF1010FF7
:102B48003FF481AFDBE90601CB68214601B0BDE85F
:102B5800000FBDE8F04018470078C0F30010704738
:102B68000078C0F340107047F0B503AF4DF804BDCE
:102B78000D460646D1E906011C46CB681146224699
:102B880098473072B4FA84F0400970720020C6E9A0
:102B980000505DF804BBF0BD00780A4638B143F236
:102BA800C4411046C0F600010422FFF71DBE43F6DB
:102BB800C4211046C0F600010522FFF715BE80B5F6
:102BC8006F46A2B002788C4602F00F0303F157005B
:102BD8000A2B38BF03F130000023B3EB121F0BD0D0
:102BE800130903F15701A02A38BF03F130018DF80A
:102BF80086107E22022301E07F2201238DF88700C0
:102C080002A8104443F6FA12CDE90003C0F6000208
:102C1800604601210223FFF76FFC22B080BD80B51A
:102C28006F46A2B002788C4602F00F0303F137001A
:102C38000A2B38BF03F130000023B3EB121F0BD06F
:102C4800130903F13701A02A38BF03F130018DF8C9
:102C580086107E22022301E07F2201238DF887005F
:102C680002A8104443F6FA12CDE90003C0F60002A8
:102C7800604601210223FFF73FFC22B080BD80B5EA
:102C88006F468CB00278642A15D348F21F53D0B22D
:102C9800C5F2EB13A0FB030364205B0903FB1020C0
:102CA80043F6FC12C0F60002C0B232F81000ADF8CC
:102CB8002D00242003E00A2A06D22620134603F119
:102CC800300202AB1A5408E043F6FC10C0F60000CC
:102CD80030F81200ADF82D002520C0F1270202AB14
:102CE80018440023CDE9000243F654120846C0F602
:102CF80000020121FFF700FC0CB080BDF0B503AF66
:102D08002DE9000F8DB0046848F21F5043F6FC18F7
:102D18000D4642F210718C42C5F2EB10C0F6000865
:102D28003BD341F259794EF2FF0E0DF10C0B002303
:102D3800CDF2B7194FF0640AC0F2F55E0295A4FB14
:102D4800092574454FEA553202FB11450BEB030187
:102D5800A3F104031446AEB2A6FB006C4FEA5C165E
:102D680006FB1A5538F81660A1F82360ADB238F89A
:102D78001550A1F8255042F21071E0D8029D03F1D8
:102D880027011446632C0BDC23460A2B17DB023978
:102D980038F8130003AA505216E02721632CF3DDFC
:102DA800A2B20239A2FB002303AE64225B0903FB33
:102DB800124292B238F8122072520A2BE7DA01391D
:102DC80003AA03F130005054C1F1270003AA1144AB
:102DD80043F65412CDE90010C0F60002284601213E
:102DE8000023FFF789FB0DB0BDE8000FF0BDD0E967
:102DF8000020C3681046184700680B46D0E9001247
:102E08001846FFF7F1BCF0B503AF2DE9000B86B00B
:102E1800D0F800E06A46D1E906C113469EE871037E
:102E280083E871036046FFF78EFA06B0BDE8000B31
:102E3800F0BD0B46D0E900121846FFF7D5BC006874
:102E4800FFF78EB980B56F468AB00090FFF740F95A
:102E5800FEF733FBC8B901200191079008A8069036
:102E68000020CDE904000220039043F6CC20C0F6F0
:102E7800000002A9029042F64760C0F600000990DF
:102E88006846089001A8FEF7A9FAFFF71FF9FEE7C0
:102E980070460421084202D1EFF3088002E0EFF304
:082EA8000980FFE7FEE7D4D426
:102EB0002F686F6D652F616E647265772F2E636169
:102EC00072676F2F72656769737472792F7372639B
:102ED0002F6769746875622E636F6D2D316563634A
:102EE0003632393964623965633832332F68656147
:102EF000706C6573732D302E352E362F7372632FE1
:102F0000737073632F6D6F642E7273000000000086
:102F1000617474656D707420746F2063616C637587
:102F20006C617465207468652072656D61696E649A
:102F30006572207769746820612064697669736FAF
:102F400072206F66207A65726F2F686F6D652F61D2
:102F50006E647265772F2E636172676F2F7265677B
:102F600069737472792F7372632F676974687562FD
:102F70002E636F6D2D316563633632393964623982
:102F800065633832332F73746D3332663478782D3D
:102F900068616C2D302E382E332F7372632F70774B
:102FA0006D2E7273492F00085B0000003103000092
:102FB0000100000000000000000000000000000010
:102FC000617474656D707420746F206469766964CF
:102FD00065206279207A65726F282963616C6C655F
:102FE000642060526573756C743A3A756E777261DD
:102FF00070282960206F6E20616E206045727260BB
:103000002076616C75650000350200080100000043
:10301000010000000D20000833020008000000003D
:103020000100000021020008310200080100000038
:10303000010000001D020008370200080100000026
:1030400001000000E30600082F686F6D652F616EB8
:10305000647265772F2E636172676F2F726567697F
:10306000737472792F7372632F6769746875622E37
:10307000636F6D2D3165636336323939646239654A
:10308000633832332F636F727465782D6D2D7274CF
:1030900069632D302E362E302D616C7068612E30B4
:1030A0002F7372632F74712E727300004830000802
:1030B000620000004D000000260000002F686F6DC8
:1030C000652F616E647265772F2E636172676F2F53
:1030D00072656769737472792F7372632F6769748D
:1030E0006875622E636F6D2D3165636336323939D1
:1030F00064623965633832332F636F727465782D7B
:103100006D2D302E362E372F7372632F70657269D6
:1031100070686572616C2F7363622E7273000000B9
:10312000BC300008610000007D0200000D000000BE
:10313000617373657274696F6E206661696C656432
:103140003A20696E64657820213D2073656C662E97
:10315000706F732F686F6D652F616E647265772F66
:103160002E636172676F2F72656769737472792F4E
:103170007372632F6769746875622E636F6D2D318A
:103180006563633632393964623965633832332FA7
:10319000686561706C6573732D302E352E362F7314
:1031A00072632F62696E6172795F686561702E72F9
:1031B00073000000533100085E0000009D01000014
:1031C00009000000617373657274696F6E20666137
:1031D000696C65643A20696E646578203C2073658B
:1031E0006C662E646174612E6C656E282900000087
:1031F000533100085E0000009E010000090000003D
:10320000617373657274696F6E206661696C656461
:103210003A20706F73203C20646174612E6C656E7F
:1032200028290000533100085E00000084010000DE
:1032300009000000533100085E000000A7010000F3
:1032400009000000533100085E000000A8010000E2
:1032500009000000617373657274696F6E206661A6
:10326000696C65643A202173656C662E61735F73C7
:103270006C69636528292E69735F656D70747928A0
:10328000292F686F6D652F616E647265772F2E63CD
:103290006172676F2F72656769737472792F7372C9
:1032A000632F6769746875622E636F6D2D31656376
:1032B000633632393964623965633832332F686571
:1032C00061706C6573732D302E352E362F737263DB
:1032D0002F7665632E72730081320008560000005D
:1032E0005000000009000000B02E00085B00000044
:1032F000FC010000010000002F686F6D652F616EFA
:10330000647265772F2E636172676F2F72656769CC
:10331000737472792F7372632F6769746875622E84
:10332000636F6D2D31656363363239396462396597
:10333000633832332F686561706C6573732D302E7E
:10334000352E362F7372632F737073632F73706C07
:1033500069742E7273000000F83200085D000000EE
:10336000E700000001000000617373657274696F0B
:103370006E206661696C65643A2060286C656674CD
:1033800020213D20726967687429600A20206C65DD
:1033900066743A2060602C0A2072696768743A206B
:1033A00060600000683300082D00000095330008BD
:1033B0000C000000A13300080100000048656172A4
:1033C000746265617420697320616C7265616479EF
:1033D000207363686564756C65640A7372632F6833
:1033E00065617274626561742E727300DB3300086C
:1033F000100000003A0000003B000000DB33000832
:10340000100000004D00000063000000427574745D
:103410006F6E20697320616C7265616479207363DB
:10342000686564756C65640A7372632F6275747481
:103430006F6E2E7273000000283400080D0000002B
:103440003B00000038000000283400080D00000098
:10345000500000005C000000283400080D0000004F
:103460005C0000003F000000546F67676C65547596
:10347000726E4F6E5475726E4F6666696E69740A2D
:103480007372632F6D61696E2E7273008034000851
:103490000B0000003A000000190000008034000812
:1034A0000B00000055000000390000001314000854
:1034B00004000000040000004B140008151400086C
:1034C0001B140008747275653A7474002F686F6D70
:1034D000652F616E647265772F2E636172676F2F3F
:1034E00072656769737472792F7372632F67697479
:1034F0006875622E636F6D2D3165636336323939BD
:1035000064623965633832332F636F727465782D66
:103510006D2D727469632D302E362E302D616C70D6
:1035200068612E302F7372632F637963636E742E1C
:1035300072737365636F6E6420696E7374616E7409
:10354000206973206C61746572207468616E2073E9
:10355000656C6600CC340008660000003100000095
:1035600009000000617373657274696F6E20666193
:10357000696C65643A206475722E696E6E6572209E
:103580003C202831203C3C2033312900CC34000839
:103590006600000042000000090000002F686F6D07
:1035A000652F616E647265772F2E727573747570F6
:1035B0002F746F6F6C636861696E732F6E696768D3
:1035C000746C792D7838365F36342D756E6B6E6F6E
:1035D000776E2D6C696E75782D676E752F6C6962CC
:1035E0002F727573746C69622F7372632F727573A7
:1035F000742F6C6962726172792F636F72652F73B9
:1036000072632F6F70732F61726974682E7273000A
:103610009C35000873000000DA0100000100000082
:10362000617474656D707420746F20646976696468
:1036300065206279207A65726F63616C6C656420C5
:10364000604F7074696F6E3A3A756E777261702868
:103650002960206F6E206120604E6F6E656020765D
:10366000616C75652F686F6D652F616E647265772B
:103670002F2E636172676F2F726567697374727939
:103680002F7372632F6769746875622E636F6D2D77
:103690003165636336323939646239656338323390
:1036A0002F73746D3332663478782D68616C2D30E9
:1036B0002E382E332F7372632F7263632E72730052
:1036C000643600085B000000640000002C0000006D
:1036D000643600085B000000790000000E00000066
:1036E000643600085B0000007B000000160000004C
:1036F000617373657274696F6E206661696C65646D
:103700003A2076636F5F696E203E3D20315F303036
:10371000305F3030302026262076636F5F696E2060
:103720003C3D20325F3030305F303030643600084E
:103730005B0000007C000000090000006436000807
:103740005B0000008B0000000D00000064360008E4
:103750005B0000008D0000000D00000064360008D2
:103760005B000000920000001800000064360008B2
:103770005B0000009D0000000D00000064360008A2
:103780005B000000760000001C00000064360008AA
:103790005B00000085000000200000006436000887
:1037A0005B00000087000000380000006173736553
:1037B0007274696F6E206661696C65643A2021736A
:1037C0007973636C6B5F6F6E5F706C6C207C7C20B8
:1037D000737973636C6B203C3D20737973636C6BFE
:1037E0005F6D617820262620737973636C6B203EB1
:1037F0003D20737973636C6B5F6D696E643600088E
:103800005B000000040100000900000064360008AD
:103810005B000000070100002B0000006436000878
:103820005B00000035010000290000006173736532
:103830007274696F6E206661696C65643A207063AA
:103840006C6B31203C3D2070636C6B315F6D617837
:10385000643600085B000000410100000900000020
:10386000643600085B0000004601000029000000EB
:10387000617373657274696F6E206661696C6564EB
:103880003A2070636C6B32203C3D2070636C6B326D
:103890005F6D6178643600085B0000005201000033
:1038A00009000000617373657274696F6E20666150
:1038B000696C65643A20636C6F636B732E69735F28
:1038C000706C6C3438636C6B5F76616C696428294A
:1038D000643600085B000000880100000D00000055
:1038E000696E7465726E616C206572726F723A20D7
:1038F000656E746572656420756E7265616368617A
:10390000626C6520636F6465643600085B000000CC
:103910004701000012000000643600085B00000050
:103920003601000012000000643600085B00000051
:103930000801000012000000556E646572666C6F2D
:10394000774F766572666C6F77496E66696E6974DB
:10395000654E614E3A200000543900080000000016
:103960005439000802000000072100080000000090
:10397000010000000921000870616E69636B6564D5
:103980002061742027272C208439000801000000C2
:1039900085390008030000003A000000543900088F
:1039A0000000000098390008010000009839000864
:1039B00001000000696E646578206F7574206F6681
:1039C00020626F756E64733A20746865206C656E52
:1039D00020697320206275742074686520696E64A4
:1039E0006578206973200000B439000820000000C9
:1039F000D4390008120000002C29307830303031E2
:103A0000303230333034303530363037303830398A
:103A10003130313131323133313431353136313782
:103A20003138313932303231323232333234323568
:103A3000323632373238323933303331333233334E
:103A40003334333533363337333833393430343134
:103A5000343234333434343534363437343834391A
:103A60003530353135323533353435353536353712
:103A700035383539363036313632363336343635F8
:103A800036363637363836393730373137323733DE
:103A900037343735373637373738373938303831C4
:103AA00038323833383438353836383738383839AA
:103AB00039303931393239333934393539363937A2
:103AC0003938393966616C73650A0000C93A0008F3
:0C3AD00000000000C93A000801000000DE
:04000005080001A945
:00000001FF
