:020000040800F2
:1000000000000220A9010008213D000845B60008B3
:10001000213D0008213D0008213D000800000000AE
:10002000000000000000000000000000213D00086A
:10003000213D000800000000213D0008E52A0008DD
:10004000213D0008213D0008213D0008213D000818
:1000500000000000213D0008A1190008213D000812
:10006000213D0008213D0008213D0008213D0008F8
:10007000213D0008213D0008213D0008213D0008E8
:10008000213D0008213D0008213D0008213D0008D8
:10009000213D0008213D0008213D0008213D0008C8
:1000A000213D0008213D0008213D0008213D0008B8
:1000B000213D0008213D0008213D0008213D0008A8
:1000C000213D0008213D0008213D0008311A0008AB
:1000D000213D0008213D0008213D0008213D000888
:1000E000213D0008213D0008213D0008213D000878
:1000F000213D0008213D0008213D0008213D000868
:10010000213D0008811D0008213D0008213D000817
:10011000213D0008213D0008213D0008213D000847
:10012000213D0008213D0008213D0008213D000837
:10013000213D0008213D0008213D0008213D000827
:10014000213D0008213D0008213D0008213D000817
:10015000213D0008213D0008213D0008213D000807
:10016000213D0008213D0008213D0008213D0008F7
:10017000213D0008213D0008213D0008D71A000854
:10018000213D0008213D00080000000000000000A3
:10019000000000000000000000000000000000005F
:0801A000213D0008213D00088B
:1001A80080B56F4603F0B9FD40F2940040F20001BB
:1001B800C2F20000C2F20001814208D240F20001FE
:1001C8000022C2F2000141F8042B8142FBD340F225
:1001D800000040F20001C2F20000C2F200018142B8
:1001E8000DD24EF2201140F20002C0F60001C2F218
:1001F800000251F8043B42F8043B8242F9D34EF620
:100208008850CEF20000016841F47001016003F0EB
:100218007EFDFEDE43F20800C4F2010001684A06D2
:1002280042BF0120002170478A0642BF01210120F8
:100238007047CA0642BF012002217047C90707BF9D
:100248000120042101790020704709F0D9BC006819
:1002580009F0D6BCD0B502AF84B000680078012898
:1002680006D101AC4CF27A02C0F600020F2305E079
:1002780001AC4BF6A272C0F600020423204609F036
:1002880095FC204608F012F904B0D0BDB0B502AF15
:1002980084B005682878DFE800F0050C1C30353C90
:1002A800434A510001AC4CF25402C0F60002062346
:1002B8004AE001AC4CF23802C0F60002092320469D
:1002C80009F074FC4CF24402681CC0F6000200906D
:1002D8000EE001AC4CF21E02C0F600020A232046D2
:1002E80009F064FC4CF22802681C0090C0F6000279
:1002F8006946204608F06AF829E04CF21702C0F671
:10030800000203E04CF21002C0F6000201AC072321
:100318001AE001AC4CF20B02C0F60002052313E010
:1003280001AC4BF6FD72C0F600020E230CE001ACE6
:100338004BF66042C0F60002102305E001AC4BF614
:10034800EC72C0F600021123204609F02FFC20466B
:1003580008F0ACF804B0B0BDD0B502AF84B0006806
:100368000078012806D101AC4BF69042C0F6000295
:10037800102305E001AC4BF68D72C0F600020D2388
:10038800204609F013FC204608F090F804B0D0BDD0
:10039800F0B503AF4DF804BD86B00A464BF6D771E9
:1003A80005681046C0F60001052209F0F2FB02AC10
:1003B800CDE902014BF6C4764BF6BE7105ABC0F62B
:1003C8000006C0F60001204603220595009607F0B6
:1003D8003EFF4BF6D471681C05AB0590C0F60001D2
:1003E80020460322009607F032FFA81C05904BF622
:1003F800DC704BF6AE71C0F6000005AB0090C0F69D
:1004080000012046042207F022FF204607F0BDFF26
:1004180006B05DF804BBF0BDD0B502AF84B000688B
:100428000078DFE800F003080D141B224BF6B672C3
:10043800C0F6000216E04CF2A212C0F6000203E079
:100448004CF29912C0F6000201AC092313E001AC8A
:100458004CF29312C0F6000206230CE04BF69A7297
:10046800C0F6000201AC042305E001AC4CF28C128A
:10047800C0F600020723204609F098FB204608F042
:1004880015F804B0D0BDD4D4B0B502AF84B00568B7
:100498002878DFE800F0023212224CF28C126C4607
:1004A800C0F600022046072309F080FB4CF2E01258
:1004B800681C0390C0F600022EE04CF293126C46C2
:1004C800C0F600022046062309F070FB4CF2C01269
:1004D800681CC0F6000203901EE04CF2AB126C469A
:1004E800C0F600022046032309F060FB4CF2B0126C
:1004F800681C0390C0F600020EE04CF299126C469C
:10050800C0F600022046092309F050FB4CF2D01235
:10051800681C0390C0F6000203A9204607F056FFA6
:10052800204607F0C3FF04B0B0BD006802F0B1BCBC
:10053800D0B502AF84B000680078DFE800F00308A7
:100548000F161D004CF27502C0F600020AE001AC5D
:100558004CF26F02C0F60002062313E04CF26A0266
:10056800C0F6000201AC05230CE001AC4CF26302BA
:10057800C0F60002072305E001AC4CF25A02C0F6AF
:1005880000020923204609F011FB204607F08EFFE0
:1005980004B0D0BD006800F0F3BDD0B502AF84B0A0
:1005A8000068007830B101280BD04BF66472C0F6B1
:1005B80000020AE001AC4BF67072C0F60002072395
:1005C80005E04BF66A72C0F6000201AC062320462D
:1005D80009F0ECFA204607F069FF04B0D0BDF0B589
:1005E80003AF4DF804BD86B00A464BF6B2710568F4
:1005F8001046C0F60001042209F0CBFA02ACCDE99E
:1006080002014BF6C4764BF6BE7105ABC0F6000688
:10061800C0F60001204603220595009607F017FE54
:100628004BF6D471681C05AB0590C0F60001204656
:100638000322009607F00BFE204607F0A6FE06B040
:100648005DF804BBF0BD80B56F4682B000680A2231
:10065800CDE90002684602F047FE02B080BD0846B8
:100668004BF62C01C0F60001022208F0BBBE704711
:1006780070477047704770477047704770477047BA
:1006880070477047704770477047704770477047AA
:10069800704770477047F0B503AF4DF804BD40F29E
:1006A800060500240126C2F20005022003F027FBFC
:1006B800010612D06978C0B2B1FBF0F202FB10104B
:1006C80028448470481C6870F0074FF001044FF00C
:1006D8000006EAD15DF804BBF0BD4BF2C0604BF6F2
:1006E8006432C0F60000C0F60002392107F040FC71
:1006F800FEDE40F20D000021C2F2000000F018B941
:10070800B0B502AF40F200050024C2F20005042093
:1007180003F0F5FA010610D06978C0B2032CB1FBDA
:10072800F0F202FB10102844847001F10100687097
:1007380004F101000446EAD3B0BD4BF2C0604BF6A9
:100748006432C0F60000C0F60002392107F010FC40
:10075800FEDE40F20A000021C2F2000000F0E8B814
:1007680040F213000021C2F2000000F0E1B840F2AC
:1007780010000021C2F2000000F0DAB803F0BCBAA1
:100788000278042A18BF03F017BA4BF6301208464D
:10079800C0F6000211460A2209F0EDB9D0B502AF41
:1007A8000446062003F0BAFA0438C0B20B289FBFEB
:1007B8004EF61851CEF200014454D0BD4BF69C12AF
:1007C8000C21C0F6000207F0EBFBFEDE03F0DEBAF8
:1007D80003F0DABAF0B503AF4DF804BD86B00446AD
:1007E80040F23000C2F20000016DA1426ED900EB68
:1007F800C40350F834200DF1080C5B68019005948F
:100808008CE80E0084B301A800F10805601EB4EB63
:10081800500F33D044080298A04238D9019800EB11
:10082800C401284603F049FA064603F06EFA059912
:10083800F2B2C0B2824213D1A14231D00298A04292
:1008480038D90198002C00EBC40350F834205B68B9
:1008580040F8312000EBC10043600594D6D1002157
:100868000198DDE9032300E0002140F8312000EB86
:10087800C100436006B05DF804BBF0BD4BF6AC1098
:100888004BF63022C0F60000C0F6000210E04BF62E
:1008980040204BF66C22C0F60000C0F6000211E0C2
:1008A8004BF6AC104BF6B022C0F60000C0F60002C2
:1008B800232108E04BF640204BF6C022C0F600008A
:1008C800C0F60002292107F053FBFEDE4BF67C2020
:1008D8004BF6A022C0F60000C0F600022221F2E783
:1008E800B0B502AF044608200D4603F008FA010629
:1008F8001FBFC0B240F21C01C2F200014A781FBFFC
:10090800B2FBF0F303FB102001EB4000C5701FBFE2
:100918008470501C4870B0BD4BF2C0604BF6643216
:10092800C0F60000C0F60002392107F021FBFEDE08
:10093800B0B502AF044601200D4603F0E0F9010608
:100948001FBFC0B26178B1FBF0F202FB10101FBFED
:1009580020448570481C607018BFB0BD4BF2C06061
:100968004BF66432C0F60000C0F60002392107F0E9
:10097800FFFAFEDED0B502AF0446012003F0BFF94E
:1009880021786278914201D10020D0BD02061FBFB4
:10099800C0B2B1FBF0F202FB101001311FBF217091
:1009A80020448178012018BFD0BD4BF2C0604BF6BF
:1009B8006432C0F60000C0F60002392107F0D8FA08
:1009C800FEDE80B56F46042003F099F940F200017D
:1009D800C2F200010A784B789A4201D1002080BD0A
:1009E80003061FBFC0B2B2FBF0F303FB10200132B5
:1009F8001FBF0A7008448178012018BF80BD4BF2E0
:100A0800C0604BF66432C0F60000C0F6000239211F
:100A180007F0AEFAFEDEF0B503AF2DE9000B8EB09D
:100A2800064600688846013003F06DF900F10109B7
:100A3800054607F84A9C346803F05FF9217810B13D
:100A4800BFF35F8FFFE717F84A0C07F8491CC9B2D4
:100A580088421AD00120366803F051F901063AD0CD
:100A6800C0B2E9B2B1FBF0F202FB1010304480F8DA
:100A7800028003F042F910B1BFF35F8FFFE786F8F9
:100A880001900EB0BDE8000BF0BD02200DA9079043
:100A980008A806900020CDE90400032003904BF637
:100AA8002040C0F60000029043F64D50C0F600000A
:100AB8000B90CDE90901A7F14A000C900CA8089009
:100AC800A7F149004BF6D4310D9002A8C0F60001F9
:100AD80007F087FAFEDE4BF2C0604BF6D432C0F660
:100AE8000000C0F60002392107F042FAFEDEF0B538
:100AF80003AF2DE900078EB004460068914688468A
:100B0800013003F000F900F1010A064607F84AAC83
:100B1800256803F0F2F8297810B1BFF35F8FFFE77B
:100B280017F84A0C07F8491CC9B288421DD00220A0
:100B3800246803F0E4F801063DD0C0B2F1B2B1FB7D
:100B4800F0F202FB101004EB400080F8039080F8EC
:100B5800028003F0D2F810B1BFF35F8FFFE784F88B
:100B680001A00EB0BDE80007F0BD02200DA9079056
:100B780008A806900020CDE90400032003904BF656
:100B88002040C0F60000029043F64D50C0F6000029
:100B98000B90CDE90901A7F14A000C900CA8089028
:100BA800A7F149004BF6D4310D9002A8C0F6000118
:100BB80007F017FAFEDE4BF2C0604BF6D432C0F6EF
:100BC8000000C0F60002392107F0D2F9FEDEF0B5C8
:100BD80003AF2DE900078EB00446006891468846A9
:100BE800013003F090F800F1010A064607F84AAC14
:100BF800256803F082F8297810B1BFF35F8FFFE70B
:100C080017F84A0C07F8491CC9B288421DD00820B9
:100C1800246803F074F801063DD0C0B2F1B2B1FB0C
:100C2800F0F202FB101004EB400080F8039080F80B
:100C3800028003F062F810B1BFF35F8FFFE784F81A
:100C480001A00EB0BDE80007F0BD02200DA9079075
:100C580008A806900020CDE90400032003904BF675
:100C68002040C0F60000029043F64D50C0F6000048
:100C78000B90CDE90901A7F14A000C900CA8089047
:100C8800A7F149004BF6D4310D9002A8C0F6000137
:100C980007F0A7F9FEDE4BF2C0604BF6D432C0F67F
:100CA8000000C0F60002392107F062F9FEDE80B5C7
:100CB8006F468AB040F28401C2F200010978012926
:100CC80017D10121079108A906910021CDE9041146
:100CD800022103914BF6D441C0F60001029148F677
:100CE8002371C0F60001CDE9080102A802F07BF9E2
:100CF80008B90AB080BD4BF6F0404BF69C03C0F62D
:100D0800000002AA00904BF62E00C0F60000C0F6C4
:100D180000032B2107F08BF8FEDED4D4F0B503AF27
:100D28002DE9000F91B0044610788946DFE810F0ED
:100D38000001000106003E004C00780013F801BBDA
:100D48000DAE0D22304619460AF0A7F903F018F83F
:100D5800824603F019F803F02BF840F21000C2F2B3
:100D68000000FFF707FE05465FEACA70884608BF1D
:100D780003F00CF8E80740F08F8009A82CCEBBF1EF
:100D8800040F01462CC132780A7000F0CE8005AA03
:100D980068C8114668C10078087001A968CA084681
:100DA80068C01278027084F802B06CE00DAE194683
:100DB800701C0E228DF834900AF06FF909AD314697
:100DC800284600F0C9FC0CE00DAE1946701C0E2236
:100DD8008DF834900AF061F909AD3146284600F0E3
:100DE80049FC9DF82500042804D10020CDF81F00F7
:100DF80007909DE005A84CCD01464CC12A88AB78E8
:100E08000A808B7001A968C80A4668C2038880787E
:100E180013809070002004F8010B0F22204638E060
:100E280013F801AB0DF1340B0D22584619460AF0A0
:100E380034F902F0A5FF054602F0A6FF02F0B8FF5C
:100E4800EE07FFF7BEFD054688460EB902F09EFF85
:100E5800E8073CD109A8BBE84C00BAF1040F0146E9
:100E68004CC19BF800200A705FD005AA68C81146DB
:100E780068C10078087001A968CA084668C0127875
:100E8800027084F802A0002084F801902070E01C11
:100E98000D220AF002F955E05FFA88F040F22521A8
:100EA800C0EB0010C2F200010D2201F800900844C6
:100EB8000DA980F801B002300AF0EFF802F060FFE7
:100EC800054602F061FF02F073FF012019E05FFAA6
:100ED80088F040F2BC11C0EB0010C2F200010D22F4
:100EE80001F8009008440DA980F801A002300AF02A
:100EF800D4F802F045FF054602F046FF02F058FF1D
:100F080002204146FFF7ECFCE80708BF02F03EFF6D
:100F18004EF204204FF40031CEF2000001600020B0
:100F28008DF830000B900A90099000208DF8200071
:100F38000020E060C4F80900C4F80500C4F8010006
:100F48000220207011B0BDE8000FF0BDF0B503AF6E
:100F58002DE9000F95B08246A8201446019103FBA5
:100F680000F502F07EFE0646284602F0B9FE01466C
:100F7800304602F07CFE14F801BB0EAD81460D220E
:100F8800284621460AF089F802F0FAFE044602F0E3
:100F9800FBFE02F00DFF4FEAC478FFF712FDB8F12F
:100FA800000F04460E4608BF02F0F0FEE00722D10B
:100FB8000AA84CCDBBF1040F01464CC12A780A702F
:100FC8006BD006AA68C8114668C10078087002A9E3
:100FD80068CA084668C0127802700D2201988AF81B
:100FE800010001208AF800000AF103008AF802B023
:100FF8000AF053F85FE0F6B240F2BC11C6EB0610F7
:10100800C2F20001019A0A5408440EA980F801B0FE
:1010180002300D220AF041F802F0B2FE044602F056
:10102800B3FE02F0C5FE40F2300504F00104C2F23E
:101038000005CDE91296286D50B140F2300112A892
:10104800C2F2000102F042FEC0B2FF280FD107E051
:101058004EF21000CEF20000016841F0020101607A
:101068004EF604504FF08061CEF200000160286D0A
:10107800DDE9121245F8301005EBC003296D5A60FE
:1010880001312965FFF7A6FB0CB902F07FFE0020AD
:101098008DF834000C90CDE90A000020CAF80C0045
:1010A8008DF82400CAF80900CAF80500CAF801003A
:1010B80002208AF8000015B0BDE8000FF0BDD4D4B6
:1010C8005FFA81FC80B56F46DFE80CF00216101D50
:1010D8001378012B22D0022B1CD140F2023120F8C8
:1010E800021B511C0C2209F0D8FF80BD1278042A7B
:1010F80005D140F202511AE01278042A15D0062AC6
:1011080008D1032113E01278072A18BF082A01D151
:1011180000210CE001220170427080BD40F20121E3
:10112800B2F801200180428080BD40F20141018077
:1011380080BDB0B502AF84B0044614F8010B012895
:1011480007D14BF65C626D46C0F6000228460823BC
:1011580006E04BF688726D46C0F600022846052365
:1011680008F024FD4BF6787203A9C0F60002284661
:10117800039407F02BF9284607F098F904B0B0BD9E
:10118800B0B502AF84B004460078DFE800F0050C83
:10119800132333484D545B0001AC4CF21412C0F6D3
:1011A8000002062354E001AC4BF64462C0F600028C
:1011B80008234DE001AD4CF2F802C0F600020B2303
:1011C800284608F0F3FC4CF20412601CC0F600023A
:1011D80000901EE001AD4CF2D802C0F600020E23CA
:1011E800284608F0E3FC4CF2E802601C0090C0F6C8
:1011F80000020EE001AD4CF2BD02C0F60002092368
:10120800284608F0D3FC4CF2C802601C0090C0F6D7
:1012180000026946284607F0D9F828461CE04CF237
:10122800B102C0F6000211E001AC4CF2A402C0F613
:1012380000020D230CE001AC4CF29502C0F600024E
:101248000F2305E04CF28902C0F6000201AC0C2322
:10125800204608F0ABFC204607F028F904B0B0BDE2
:10126800F0B503AF2DE9000FE5B001904EF6F05050
:10127800CEF200000DF1500900784FF0000801256A
:10128800C0071FBF40F28400C2F2000001210170B4
:101298004BF66040CDF86480C0F6000018904CF220
:1012A8002810C0F60000CDE9168814904846159518
:1012B800FFF7FDFC02AC204602F0ACF84ECC4846E5
:1012C8004EC094E84E004EC0A8200C9C02F0CDFB06
:1012D80002F0D0FB0DF1340A1E94CDE91C504946AA
:1012E800504602F0A0F802F0CBFB02F001FC02F03D
:1012F80038FC00204FF00D0BC4F20200C16821F049
:101308000301C160016821F0030101604FF6084044
:1013180043F60041CFF6FF70C4F201010A5822F0EB
:101328000F020A50886840F00100886043F60C40BC
:10133800C4F20100026822F001020260086840F06D
:10134800010008600D20022102F0DBFB50464946EF
:101358004CC84CC190E85C0014205CC102F084FBCE
:10136800064640F20840C4F24720C0F80054056021
:10137800C0F8008040F60008C4F20008D8F8180049
:101388006BF3CE20C8F81800D8F8000040F08000B1
:10139800C8F80000484602F061FB0446484602F0DF
:1013A80061FB0546304602F061FB002800F003812E
:1013B800E9B2012918BF02216143B1FBF0F0411ED7
:1013C8000A0CC8F82820012202EB114189B2002931
:1013D80000F0F180B0FBF1F0B0F5803F80F0F480D0
:1013E800C8F82C000124D8F800000021002540F09E
:1013F8000400C8F80000C8F81440D8F8000020F02D
:101408000400C8F8000064A8C8F8004002F0CCFB4B
:101418000520052102F03DFB0620052102F039FBDD
:101428000720052102F035FB41F20000C4F202005A
:10143800C16821F0C001C160416821F00801416024
:10144800016864F38711016008218161012002F0BD
:101458000CFB02F00FFBBAE80E00044648460EC02B
:101468009AE84E004EC043F64400C4F202000168F8
:1014780041F480510160484602F0F2FA43F2040157
:10148800002CC4F201010D6000F0B180A042C0F050
:10149800B880B0FBF4F2032A02D24FF451701EE078
:1014A800062A02D24FF4537019E00C2A02D24FF4E4
:1014B800557014E0182A02D24FF457700FE0302A02
:1014C80002D24FF459700AE0602A02D24FF45B70DE
:1014D80005E04FF45F70C02A38BF4FF45D7041F8E3
:1014E800040C086840F02000086014A840F20D11B0
:1014F80009F0C6FE002060AC5CAD4BF64452CDF856
:101508006B01C0F600025A900021CDE9580040F264
:101518000110ADF8800128462346FFF7FFFB9DF830
:101528007001022879D1012060AC5CAD4BF63072B5
:101538008DF882014FF44070ADF88001C0F60002CA
:10154800284600212346FFF7E9FB9DF87001022891
:101558006CD160AC5CAD44F240234FF48070ADF8C0
:101568008001C0F20F032846002122464FF00008F0
:10157800FFF7ECFC9DF87001022860D158A8019E85
:1015880090E83C0040F201203146C0F204003CC122
:1015980014A940F20D12C6F812004FF0E060C6F828
:1015A800160006F11B00A6F8108009F076FD65B05C
:1015B800BDE8000FF0BD4BF270704BF25472C0F6EC
:1015C8000000C0F600021AE002204BF68C038DF8EA
:1015D80080014BF25470C0F6000060AA00904BF6F0
:1015E8002E00C0F60000C0F600032B213AE04BF2B3
:1015F80070704BF2E472C0F60000C0F600021921C8
:1016080008E04BF2F4704BF61C02C0F60000C0F67E
:101618000002282106F0ACFCFEDE95E84E002046CC
:101628004EC04CF23C10C0F6000010E095E84E00A9
:1016380020464EC04CF24C10C0F6000007E095E87A
:101648004E0020464EC04CF25C10C0F600004BF62F
:10165800AC0300904BF62E00C0F60003C0F6000065
:101668002B21224606F0E3FBFEDE80B56F4602F032
:1016780096FBFCE7F0B503AF4DF8048D84B0044643
:1016880068460F2209F009FD02F07AFB064602F0CF
:101698007BFB02F08DFB022002F031FB40F20601D9
:1016A800C2F200010A784B789A4201D101250CE078
:1016B800030645D0C0B20025B2FBF0F303FB1020AF
:1016C80001320A70084490F8028016F0010008BF41
:1016D80002F05CFB2DB1694620460F2209F0DDFCC3
:1016E8002AE05FFA88F040F2F811C0EB0010C2F26D
:1016F8000001084469460F2209F0CFFC02F040FBC4
:10170800064602F041FB02F053FB03204146FFF777
:10171800E7F8F00708BF02F039FB00204FF400316A
:10172800A06020606060C4F80B004EF20420CEF286
:10173800000001600420607004B05DF8048BF0BD07
:101748004BF2C0604BF66432C0F60000C0F60002EF
:10175800392106F00DFCFEDEF0B503AF4DF8048D1F
:1017680084B0044668460F2209F097FC02F008FB93
:10177800054602F009FB02F01BFB40F20A00C2F228
:101788000000FFF7F7F80646E807884608BF02F0AA
:10179800FDFAF00705D1694620460F2209F07DFCC5
:1017A8002AE05FFA88F040F21621C0EB0010C2F27E
:1017B8000001084469460F2209F06FFC02F0E0FAC4
:1017C800054602F0E1FA02F0F3FA0020414600264D
:1017D800FFF786F8E80708BF02F0D8FA4EF20420AF
:1017E8004FF40031CEF20000A66026606660C4F8AF
:1017F8000B6001600420607004B05DF8048BF0BDDC
:10180800F0B503AF4DF8048D82B0804602F0B8FA07
:10181800044602F0B9FA02F0CBFA40F20D00C2F227
:101828000000FFF7A7F80646E0070D4608BF02F0DC
:10183800ADFAF00701D101203EE0032060F31F2537
:1018480002F09EFA044602F09FFA02F0B1FA40F262
:10185800300604F00104C2F20006CDE90085306DBF
:1018680050B140F230016846C2F2000102F02EFA8F
:10187800C0B2FF280FD107E04EF21000CEF20000F0
:10188800016841F0020101604EF604504FF080619A
:10189800CEF200000160306DDDE9001246F830102C
:1018A80006EBC003316D5A6001313165FEF792FFD6
:1018B8000CB902F06BFA002002B05DF8048BF0BDA1
:1018C800F0B503AF2DE9000B82B00D46804602F05B
:1018D80057FA064602F058FA02F06AFA40F2130084
:1018E800C2F20000FFF746F80446F007894608BF31
:1018F80002F04CFAE0074AD040F234205FFA89F649
:10190800C2F2000040F8268040F23820C2F20000FF
:10191800855502F035FA044602F036FA02F048FA24
:1019280040F2300506F5A061C2F2000504F001049A
:10193800286DCDE9008150B140F230016846C2F20D
:10194800000102F0C3F9C0B2FF280FD107E04EF240
:101958001000CEF20000016841F0020101604EF66D
:1019680004504FF08061CEF200000160286DDDE97F
:10197800001245F8301005EBC003296D5A6001319B
:101988002965FEF727FF0CB902F000FA0225284660
:1019980002B0BDE8000BF0BDF0B503AF4DF804BDD3
:1019A8008AB002F0A1F902F0FCF90546002006AC65
:1019B80002AE8DF81A0040F20120ADF8180030464A
:1019C8002146FFF7C9FE9DF80900042801BF43F628
:1019D8000040C4F201000121416101BF016821F00A
:1019E80001010160284601BF0AB05DF804BBBDE8EB
:1019F800F04002F0DAB90ECE20460EC04BF65C037A
:101A0800C0F600033188B27801802B2182704CF235
:101A18006C10C0F60000224600904BF62E00C0F66F
:101A2800000006F004FAFEDEF0B503AF4DF804BD81
:101A38008CB002F059F902F0B4F9044643F20400FC
:101A4800C4F201004168C90705D140680321800735
:101A580001EAE07004E0016821F04001016004201F
:101A68008DF8220040F2013008ADADF82000E81CE6
:101A780001A90C2209F011FB04AE29463046FFF7F4
:101A8800F9FD9DF81100042801BF20460CB05DF84F
:101A980004BBBDE8F04008BF02F087B90ECE284667
:101AA8000EC04BF65C03C0F600033188B2780180A3
:101AB8002B2182704CF27C10C0F600002A46009060
:101AC8004BF62E00C0F6000006F0B1F9FEDEF0B5C8
:101AD80003AF2DE9000F8BB040F2160540F2940ACF
:101AE80040F2BB1B0DF11C08C2F20005C2F2000A4D
:101AF800C2F2000B03A80290284602F004F904463B
:101B080002F0FBF8697810B1BFF35F8FFFE7C8B246
:101B1800E6B2864200F0E480022002F0F0F8010606
:101B280000F0E680C0B20134B6FBF0F101FB1060B2
:101B380005EB4000468802F0E0F810B1BFF35F8F74
:101B4800FFE7310AF0072C702FD140F20D00C2F2E6
:101B58000000CDE907004046FEF75DFFD02002F007
:101B680024F9DAF800000A2852D210215044C4F2AD
:101B78000201096801F001014171DAF80000013041
:101B8800CAF8000002F06DF804464AF28020C0F25C
:101B9800190002F0A5F80146204602F068F8FFF7A0
:101BA8002FFE002800F09880BEE040F23420C2F2F8
:101BB800000050F8215040F23820C2F2000010F81E
:101BC800019040F21300C2F20000CDE90700404640
:101BD800FEF721FFE02002F0E8F8584601F0D8FFB0
:101BE8005E46834600043DD0304601F0D7FF0446E8
:101BF800304601F0BFFF5FEAC9704FF000084FF6AA
:101C08009C701EBFA1B21FFA8BF28A4230D02CE022
:101C1800002005211AF8012001310F291044F9D1BB
:101C2800052811D940F201204BF64452ADF81C00AA
:101C380003A80421C0F600024346FFF76FF89DF899
:101C48000C00022840F08080002043F600418AF80A
:101C58000400C4F20101CAF80000086840F001005D
:101C6800086039E0304601F085FF4FF00108642034
:101C78000BEB000140F2BB1BC2F2000B584601F00F
:101C880093FF584601F07DFF9BF80000012816D10C
:101C98004EF28070C0F24C0002F022F8014628464D
:101CA80001F0E5FF4146FFF70BFE40F216050DF186
:101CB8001C08C0B20228C2F200050DD024E0584624
:101CC80001F058FF5846002101F06EFF40F216055A
:101CD8000DF11C08C2F20005F02002F066F80BE7CF
:101CE80000200BB0BDE8000FBDE8F04002F05DB881
:101CF8004BF2C0604BF6D432C0F60000C0F60002CA
:101D0800392106F035F9FEDE8DF81C004BF6C0408F
:101D1800C0F600004BF67C0300904BF62E00C0F690
:101D28000000C0F600030CE04BF634504BF69C0361
:101D3800C0F60000C0F6000300904BF62E00C0F677
:101D4800000007AA2B2113E0029D404695E84E00AB
:101D58004EC04BF64850C0F600004BF6AC0300905E
:101D68004BF62E00C0F60003C0F600002B214246B9
:101D780006F05DF8FEDED4D4F0B503AF2DE9000F10
:101D880081B02DED0C8BA2B00DF1440B0BF10200CC
:101D980005900BF1050004900BF10400069002F089
:101DA80000F8B0EE009A40F21C08B1EE00AA40F22A
:101DB800060AB1EE08BA9FEDD68AB2EE00CAC2F2A0
:101DC8000008B3EE00DAC2F2000A07901EA80290DB
:101DD800404601F098FF054601F08FFF98F8011082
:101DE80010B1BFF35F8FFFE7C8B2ECB2844200F0D6
:101DF8002285082001F083FF010600F02685C0B285
:101E08000135B4FBF0F101FB104008EB40004488B9
:101E180001F073FF10B1BFF35F8FFFE788F8005040
:101E2800E0B24FEA1429DFE810F005006E009300D5
:101E38004E00060540F21621C9EB0910C2F2000156
:101E4800084449464578847840F20A00C2F2000006
:101E5800CDE911005846FEF7DEFDD02001F0A5FFC0
:101E6800022D40F0518340F29406B4FA84F1C2F294
:101E78000006307949090028024618BF012241EAC4
:101E8800020318BF01EA02032043337140F03C8388
:101E980001F0E7FEFFF7B4FC002800F035834BF6AD
:101EA80060410020C0F6000116901591CDE913009D
:101EB800012012904BF61C50C0F6000011905846B5
:101EC800FEF7F5FE20E340F2F811C9EB0910C2F263
:101ED80000010A5C0844811C447808A803920D227A
:101EE80009F0DBF80AF1010001F00DFF461C054678
:101EF8008DF8406001F001FF9AF8001000284AD0E0
:101F0800BFF35F8F47E040F22521C9EB0910C2F209
:101F18000001084449464578847840F21000C2F22E
:101F28000000CDE911005846FEF775FD012D7FF43C
:101F38004FAF40F2BB10C2F200000078002800F05A
:101F4800E980022C18BF002C00F00A81012008E16A
:101F580040F2BC11C9EB0910C2F2000140F2000BBB
:101F68000A5C0844C2F2000B447890F802A090F88A
:101F780003800BF10100039201F0C5FE461C0546E3
:101F88008DF86C6001F0B9FE9BF8001000286BD04A
:101F9800BFF35F8F68E09DF840008DF86C10C9B200
:101FA800884200F05E84022001F0A9FE010600F0DC
:101FB8004C84C0B2E9B2B1FBF0F202FB10105044FD
:101FC80080F8029001F099FE10B1BFF35F8FFFE730
:101FD800D0208AF8016001F0E8FE08A90CA8032CBB
:101FE8004CC94CC00978017040F08E820CA917AA20
:101FF80040F2A40968C91046C2F2000968C00B780B
:1020080099F8001003705846FFF75AF806991BA86C
:102018000A229DF844509DF845609DF846B09DF809
:10202800474009F03AF889F80050DFE816F06B02EB
:10203800060048016E013001AD0199F8011005292B
:1020480040F060824FF4E06109F101021EA811AB73
:10205800ADF844100421FEF761FE9DF878000228CF
:1020680000F0508200F019BC9DF86C008DF820102B
:10207800C9B2884200F01C84042001F040FE010629
:1020880000F0E383C0B2E9B2B1FBF0F202FB10103A
:1020980040F20001C2F20001084480F8029001F009
:1020A8002CFE10B1BFF35F8FFFE740F20000C2F2D1
:1020B80000004670D02001F078FE6CB1E02001F0FD
:1020C80074FE40F2060A40F21C080DF1440BC2F2FD
:1020D800000AC2F200087BE640F2B11E8DF841808A
:1020E800C2F2000E8DF840A09EF8000000283ED0F5
:1020F800AAF105000228C0F08980BAF1070F00F0A4
:102108007D81BAF1080F40F07281002177E100BFAC
:1021180000000038601E022822D240F2BB110120C4
:10212800C2F20001087001F09CFD0121FFF7C8FB15
:10213800C0B202283FF44CAE4BF660410020C0F616
:10214800000116901591CDE91300012012904BF66D
:102158005840C0F6000011905846FEF7A8FD37E633
:10216800002040F2BB11C2F20001087030E6BAF15B
:10217800070F00F23C81C44600218F200122DFE8CE
:102188001AF00A000800C701D501E401360136013A
:102198003E01A820062211AC17A9234660CB60C1D6
:1021A8001EAD1B780B7001218DF847204BF6B062ED
:1021B8008DF8460040F20310039EC0F600028EF828
:1021C80000100521ADF84400284623468EF809C0C2
:1021D8008EF808A08EF80760FEF7A0FD9DF878003D
:1021E800022840F089834CF2C0634FF40060ADF8D8
:1021F8004400284605212246C0F22D03FEF7A6FE1C
:102208009DF8780002283FF459AF7EE311AD17A975
:1022180028460CC80CC1002302789EF808008EF8E6
:10222800003003280A703FF649AFDFE810F00400D9
:10223800E90126023F0240F2A4001EACC2F20000EF
:102248004BF6B062007B05218DF8300040F2037038
:10225800ADF844002046C0F600022B46FEF75EFDAE
:102268009DF87800022840F05A8301210020CDE92A
:1022780015411490CDE912104BF61870C0F6000005
:1022880011904AF6BB30C0F600001F90CCE24846D9
:10229800FDF7C0FFC00740F04B8399F80C0143F2EB
:1022A8000402C4F20102002800F0E8800138FE2888
:1022B80000F245834844017399F80C01DFE043F2CA
:1022C8000402039989F80110C4F2010211684FF45D
:1022D800002341F04001116041F21801C4F20201EB
:1022E8000B6089F80B4189F802B05068410600F18B
:1022F8002C83810600F12B83C10600F12A83800715
:1023080040F1298382F808B0FCE0059D1BA90A2248
:102318008DF845408DF844B0284608F0BEFE40F2DE
:10232800A40343F20406C2F2000303985870C4F2EF
:10233800010630684FF4002140F04000306041F25F
:102348001800C4F20200016083F80B4183F802B060
:1023580054B10020092800F00683411C2A5C184467
:102368008C42C2700846F5D17068410600F10183BD
:10237800810600F10083C10600F1FF82800740F169
:10238800FE8286F808B0BDE04846FDF743FFC00767
:1023980040F0078399F80C1111AD99F80B01013140
:1023A80089F80C11C9B281424AD199F800104BF64C
:1023B8007C522846C0F60002FEF782FE41F2180160
:1023C8009DF844004A46C4F2020102F8010B0820B5
:1023D80008604FF4C060ADF844001EA804212B46E5
:1023E800FEF79CFC9DF8780002286FD0E0E211A966
:1023F80017A80CC90CC0097801705FE6012111A863
:1024080017AD024648CA48C5022312782A70724698
:1024180002F8081B1EA91591002116931491CDE905
:1024280012314BF6A061C0F60001119141F28911F9
:10243800C0F600012191CDE91F1210A91E91F6E105
:1024480043F20403C4F20103186840F04000186026
:1024580099F80C010A2880F0B682484480785968B7
:102468004A0600F1B8828A0600F1B782CA0600F16E
:10247800B682890740F1B582187243E0002099F8C6
:102488000B1111AD884225D199F800104BF67C52FA
:102498002846C0F60002FEF713FE41F218019DF827
:1024A80044004A46C4F2020102F8010B0820086001
:1024B8004FF4A060ADF844001EA804212B46FEF797
:1024C8002DFC9DF87800022840F093820020A9F89E
:1024D8000B0117E0106840F040001060506841069A
:1024E80000F19B82810600F19A82C10600F199826F
:1024F800800740F198820020107299F80C01013091
:1025080089F80C010DF1440BE02001F04EFC5FE46A
:102518000CF007024FF0240C0020DFE802F029033A
:10252800E0E429004FF0240C402021E09EF803202D
:10253800BCF1000F9EF801009EF802109EF80430CE
:1025480018BF43F060031A430DE09EF803209EF87D
:10255800063042EACC029EF801009EF80210002BD9
:1025680018BF42F060021143E04608434FF0200CC8
:1025780011AC00218DF84C10CDE91111234617A993
:1025880060CB0A4660C21B788DF8480002208DF89F
:10259800470040F20320ADF844000498137001226C
:1025A800039D8EF8002009228EF809808EF808A075
:1025B8008EF807508DF846C008F06FFD1EAD4BF63B
:1025C800B0620521C0F6000228462346FEF7A6FBA6
:1025D8009DF87800022840F03B824CF2C0634FF42B
:1025E8000060ADF84400284605212246C0F22D03BC
:1025F800FEF7ACFC9DF8780002283FF45FAD30E2AE
:1026080040F2A4000DF1780AC2F200004BF6B06265
:10261800B0F810900521C489C0F60002868940F2FE
:102628000370ADF8440050462B46FEF777FB9DF843
:102638007800022840F02A8240F2B110C2F200006D
:102648004079DFE800F003546B82990030B200EE65
:10265800100A20B201EE100AB8EEC00AB8EEC11A8C
:1026680030EE000A31EE011A20EE080A21EE081AAF
:102678008DED1B0AB0EE490A94E040F2B1114BF619
:10268800B062C2F20001C0F60002487A2B464871D7
:1026980040F60300ADF844001EA80521FEF73EFBF6
:1026A8009DF8780002283FF409ADF8E140F2B11135
:1026B8004BF6B062C2F20001C0F60002487A2B461F
:1026C800887140F60300ADF844001EA80521FEF706
:1026D80025FB9DF8780002283FF4F0ACE9E14FF0C3
:1026E800240C802044E74FF0240CC02040E730B28F
:1026F80000EE100A20B201EE100AB8EEC00AB8EED9
:10270800C11A20EE0A0A21EE0A1A20EE080A21EE62
:10271800081A8DED1B0AB0EE4A0A43E030B200EE0B
:10272800100A20B201EE100AB8EEC00AB8EEC11ABB
:1027380020EE0B0A21EE0B1A20EE080A21EE081AE9
:102748008DED1B0AB0EE4B0A2CE030B200EE100AF9
:1027580020B201EE100AB8EEC00AB8EEC11A20EE97
:102768000C0A21EE0C1A20EE080A21EE081A8DED4B
:102778001B0AB0EE4C0A15E030B200EE100A20B287
:1027880001EE100AB8EEC00AB8EEC11A20EE0D0A22
:1027980021EE0D1A20EE080A21EE081A8DED1B0A0B
:1027A800B0EE4D0A8DED081A0FFA89F0012601EEF8
:1027B800100A4BF6F0600024C0F60000B8EEC11A0B
:1027C8004AF66D09CDE915A6C0F600091494CDE9BD
:1027D800126411901BA81E902846CDF87C9020EE1C
:1027E800010A20EE080A8DED0C0AFEF760FA4BF696
:1027F800F8601696C0F60000CDE9144ACDE91264D7
:10280800119008A81E902846CDF87C90FEF74FFA44
:102818004BF600701696C0F60000CDE9144ACDE9D3
:1028280012641190CDF87C900CA81E902846FEF7F3
:102838003EFAFFF743BC079801F0B7FA22B0BDECA7
:102848000C8B01B0BDE8000FF0BD4BF2C0604BF639
:10285800D432C0F60000C0F60002392105F088FB2A
:10286800FEDE022017A916901EA815900020CDE9BB
:102878001300032012904BF62040C0F60000119080
:1028880043F64D50C0F600002190CDE91F0110A875
:102898000C900CA81E901BA825E0029D11AA1046BA
:1028A80095E85A005AC04BF62C60C0F60000AAE022
:1028B800022017A916901EA815900020CDE9130034
:1028C800032012904BF62040C0F60000119043F60A
:1028D8004D50C0F600002190CDE91F011BA80C90B7
:1028E8000CA81E9008A84BF6D431179011A8C0F672
:1028F800000105F076FBFEDE95E84E0020464EC04E
:102908004BF64470C0F60000B4E0029D204695E8FE
:102918004E004EC04BF65470C0F60000AAE094E892
:102928004E0028464EC04BF60870C0F60000C9E0BD
:102938004BF6BC508DF84410C0F600007AE04BF618
:10294800CC52FF21C0F6000242E0002004E0012042
:1029580002E0022000E004208DF844004BF61C60E1
:10296800C0F6000066E04BF6FC520A20C0F60002F2
:102978002DE0002004E0012002E0022000E0042015
:102988008DF878004BF60C60C0F600004BF66C032F
:1029980000904BF62E00C0F60000C0F600031EAAF9
:1029A80052E04BF66C508DF84410C0F6000041E040
:1029B800029D11AA104695E85A005AC04BF68C5051
:1029C800C0F600001FE04BF69C52C0F600020A2138
:1029D80005F0E6FAFEDE002004E0012002E0022015
:1029E80000E004208DF844004BF6AC50C0F600001F
:1029F80020E0029D11AA104695E85A005AC04BF6ED
:102A0800DC50C0F600004BF6AC0300904BF62E00ED
:102A1800C0F60003C0F6000016E0002004E0012024
:102A280002E0022000E004208DF844004BF6EC5050
:102A3800C0F600004BF66C0300904BF62E00C0F673
:102A48000003C0F6000011AA2B2105F0F0F9FEDE04
:102A580095E84E0020464EC04BF62070C0F60000A8
:102A680008E0029D204695E84E004EC04BF63470B3
:102A7800C0F600004BF6AC0300904BF62E00C0F6F3
:102A88000003C0F600002B212246DEE79AE84E003C
:102A980028464EC04BF6E060C0F6000012E0029CEB
:102AA800284694E84E004EC04BF6D060C0F60000B1
:102AB80008E0029C284694E84E004EC04BF6C060E1
:102AC800C0F600004BF6AC0300904BF62E00C0F6A3
:102AD8000003C0F600002B212A46B6E7F0B503AF85
:102AE8002DE9000F87B04EF2100840F2300540F291
:102AF8001C090DF1140ACEF20008C2F20005C2F258
:102B0800000901F03DF9044601F03EF901F050F9E1
:102B1800286D0394D8B12868049001F0E5F8059071
:102B280004A8514601F0D2F8C0B2FF2817D001F02E
:102B3800D8F806460C46DDE9040101F0ABF801F0CF
:102B4800CEF8A0FB060111B36FF07F402DE0D8F856
:102B58000000002620F00200C8F800002AE0286DD6
:102B6800002800F00581B0F1010A05EBCA004068B1
:102B7800C5F850A020D06E68BAF1010F55F83A1088
:102B880002900191C5E9001019D100244AE0002CF7
:102B980000F0F880844201D9012006E0B0FBF4F08F
:102BA8006FF07F41884228BF08460026C8F8040015
:102BB800C8F8086006244AE0040A064645E04FF0D3
:102BC80000094FF0010808F10104544513D2C1452A
:102BD80018BFA14500F0AD8005EBC80005EBC401A6
:102BE80001F06BF85FFA80FB01F08FF8C0B2834503
:102BF80008BF444600E04446A14500F0A380A24532
:102C080040F2AA8005EBC40155F83400496845F83C
:102C1800390005EBC900A1464160600000F10108D8
:102C2800D045D0D3019845F8340005EBC40002998B
:102C380041602046FDF7CEFD4EF2100840F21C0917
:102C4800340ACEF20008C2F200090DF1140A039802
:102C580010F0010008BF01F099F8E0B2DFE800F0D9
:102C680004331C28104A650001F08AF8044601F074
:102C78008BF801F09DF850460221CDE905992DE029
:102C880001F07EF8044601F07FF801F091F8CDE9F3
:102C980005995046012121E001F072F8044601F03F
:102CA80073F801F085F8CDE905995046002115E043
:102CB80001F066F8044601F067F801F079F840F28F
:102CC8001600002120E001F05BF8044601F05CF8F2
:102CD80001F06EF8CDE90599504603213246FDF71B
:102CE80076FFE00708BF01F051F84FF40030C8F84C
:102CF800F40106E701F044F8044601F045F801F054
:102D080057F840F216000121C2F20000CDE9050093
:102D180050463246FDF7EBFEE00708BF01F036F8F3
:102D28004FF40040C8F8F801EBE607B0BDE8000F23
:102D3800F0BD4BF6AC104BF63022C0F60000C0F6E2
:102D4800000207E04BF6AC104BF6B022C0F60000CC
:102D5800C0F60002232108E04BF640204BF6C022C3
:102D6800C0F60000C0F60002292105F001F9FEDED8
:102D78004BF6D0204BF65432C0F60000C0F60002E5
:102D88002D21F2E74BF270704BF62012C0F60000CE
:102D9800C0F600021921E8E780B56F46CAB0FDF712
:102DA80017FDFDF7ADFCFDF776FCFDF7D2FCFDF74E
:102DB800A0FCFDF7DCFCFDF7D3FC40F291000124F8
:102DC800C2F200004EF2100504704EF20640CEF238
:102DD8000000F02180F84910CEF200054FF40041C0
:102DE8004022C5F8F810E02180F82B104FF400318C
:102DF800C5F8F410D0210170C5F8F02041770820FB
:102E0800C5F8F400E020FDF7C9FC286840F004008C
:102E18002860286840F0010028604EF6FC50CEF289
:102E28000000016841F080710160FDF7A7FC00F027
:102E380061FF40F290006E46C2F200000470304616
:102E4800FEF70EFA314640F2940091E83C00C2F2D7
:102E5800000040F2BB11C2F200013CC00A229DF8FA
:102E68001000087040F2B11006F11101C2F2000022
:102E780008F013F940F2A40006F11B01C2F20000A9
:102E880040F20D1208F009F9FDF7A0FCFEF7EDFB82
:102E9800FEDEB0B502AF86B00A464CF2F011044629
:102EA8001046C0F600010D2206F073FECDE90201BE
:102EB8004CF2042002AD4CF2FD11C0F6000005AB47
:102EC8000090C0F6000128460622059405F0BFF9D7
:102ED800601C05904CF218204CF21421C0F600003A
:102EE80005AB0090C0F600012846032205F0AFF9B3
:102EF800284605F04AFA06B0B0BD80B56F4682B0E4
:102F080000228029019203D28DF8041001222FE0BB
:102F180002220B4662F39F13B1F5006F05D28DF8BC
:102F28000530C02343EA911120E0B1F5803F0DD26E
:102F38008DF806308B0962F39F13E02242EA1131C3
:102F48008DF805308DF80410032211E08DF8073054
:102F58008B0962F39F138DF806300B0B62F39F13F6
:102F6800F02242EA914104228DF805308DF80410D0
:102F780001A900F079F802B080BDF0B503AF4DF8B3
:102F880004BD88B0019002AA91E878504CF228213B
:102F98001046C0F6000180E8785001A805F0D1FF7E
:102FA80008B05DF804BBF0BD70470068FFF7A5BF27
:102FB800F0B503AF4DF804BD88B0006802AA0190CF
:102FC80091E8785010464CF22821C0F6000180E8BC
:102FD800785001A805F0B5FF08B05DF804BBF0BD56
:102FE800006800F041B8F0B503AF2DE9000B88B0D8
:102FF800814600F0C5FE054600F0C6FE00F0D8FE8A
:1030080040F2880205F00108C2F2000210680128A7
:1030180010D0032002A90490042003904BF6BA7044
:10302800C0F60000012502900120ABBE411C11D062
:10303800C2E90050101D019002AA99E87A101046C2
:1030480080E87A104CF2282101A8C0F6000105F0AA
:1030580078FF0546B8F1000F08BF00F097FE284634
:1030680008B0BDE8000BF0BDE2B180B56F4683B093
:10307800D0F800C0052002928E46CDE900C169460D
:10308800ABBE68B1694682420ED303460290101A5D
:103098001A4686440520CDE900CEABBE0028F2D101
:1030A800002002E000207047012003B080BD83B0FB
:1030B800032069460290042001904BF6BA70C0F6CE
:1030C800000000900120ABBE01460130B0FA80F04C
:1030D800400903B07047F0B503AF2DE9000F85B084
:1030E800D1E9004AD2E900E396685445039300F217
:1030F80082800A7A002A7ED1D1E9032346F6004964
:10310800D1F814B0C0F2DC29544504933DD2CDE97E
:103118000106D2F80080B8F1000F00F08A8004FBA5
:1031280009F1002C70D0DBF80020002A75D0B1FB23
:10313800F8F000FB08F5B5FBF4F0B5FBF2F2A9EBEB
:10314800000304980668BEEB030018BF01209E45E3
:1031580038BF4FF0FF30B6EB020C04F1010248BF54
:10316800CCF1000C30B9039DB5EB0C0018BF012061
:10317800654505DBC0B2012804BFCDE9024C9E4677
:10318800494492451446CCD104E034D1CDE9010636
:10319800D2F80080B8F1000F4BD0BAF1000F33D04D
:1031A800DBF80020CAB30AFB09F0B0FBF8F000FB1B
:1031B80008F3B3FBFAF0B3FBF2F2A9EB00010498B1
:1031C800BEEB0105066818BF01258E4538BF4FF0D4
:1031D800FF35B21A48BF5242DDE901062DB9039BFB
:1031E8009D1A18BF0125934205DBEBB2012B02BFE4
:1031F800564603928E460399C0F800E0C0E90116CE
:1032080005B0BDE8000FF0BD4CF2D0204CF2B4225E
:10321800C0F60000C0F6000207E04CF2D0204CF2E5
:103228006042C0F60000C0F60002192104F0A0FEBA
:10323800FEDE4CF2D0204CF25042C0F60000C0F640
:103248000002F2E7F0B503AF2DE9000BD0E9003E2C
:1032580073452FD8057A6DBBD0E903C8734515D2DD
:10326800D8F80090DCF800504BB39D4230D3B5FB42
:10327800F3F05E1CB9FBF0F404FB109088423CBFED
:103288001A460146B6453346EED100E012D1BEF1EA
:10329800000F14D0DCF80030734519D3D8F80000BB
:1032A800B3FBFEF3B0FBF3F606FB130088423CBF0A
:1032B8007246014608461146BDE8000BF0BD4CF2C7
:1032C800D0204CF2B422C0F60000C0F6000207E09D
:1032D8004CF2D0204CF24042C0F60000C0F600028A
:1032E800192104F045FEFEDE0A46D0E900311846F1
:1032F80000F000B8F0B503AF2DE9000B84B0054627
:1033080010460C4606F06AFCCDE900017CB14CF28F
:10331800EC2803AEC0F60008E94648463146424666
:10332800039505F05AF9013C05F10105F5D1684608
:1033380005F05AF904B0BDE8000BF0BDD0B502AFF6
:103348000B68D3F800E0BEF1000F1ED032B38B68D3
:10335800D3F800C0BCF1000F29D046F600434968F5
:10336800C0F2DC23826002FB03F40968B4FBFEF4BC
:1033780004FB0EF4B4FBF2F29A1A0260B4FBFCF2FE
:10338800891A48BF49424160D0BD4CF2D0204CF266
:103398005042C0F60000C0F6000210E04CF2D02007
:1033A8004CF2B422C0F60000C0F6000207E04CF26E
:1033B800D0204CF26042C0F60000C0F6000219218D
:1033C80004F0D6FDFEDE80B56F46C9B1026812680A
:1033D8008A4221BF4068B2FBF1F20068B0FBF2F309
:1033E80024BF03FB120080BD4CF2D0204CF24042B7
:1033F800C0F60000C0F60002192104F0B9FDFEDE97
:103408004CF2D0204CF2B422C0F60000C0F6000204
:10341800F2E77047002180F828100162816101619C
:10342800816001607047F0B503AF2DE9000FA3B0CC
:10343800D1E900A5804646F6004C43F6000BBAF1E8
:10344800000F04BF42F20045C0F2F405D1E90809B3
:10345800C0F2DC2C0895C4F2020B002808BFA9466C
:10346800CDF82490A94504BF91F82800002800F061
:103478000F81B9F1000FCDF810A000F098824DF639
:103488008360C4F21B30A5FB00624CF60046C1F60F
:10349800BF16B6FBF9F626F0010A48F27F46C0F2DD
:1034A8001E06BAF1080F28BF4FF0080AAC1991F8A8
:1034B80028600AFB09F30591A4FB0001CDF828A0B8
:1034C800304660460696002E029308BF18460B90B9
:1034D8000BA8119008A810900020C90C8DF83C008A
:1034E800900CB1EB924F0E900D9100F269828142DF
:1034F800CDF80080079502D2481C0D9002E001200B
:103508008DF83C000DF1340808F10C000390FFF72A
:103518005AFF8E4641460DF1680B91E87C008446BF
:10352800584661467CC0584672465C46FFF78AFE9C
:10353800002900F04F82089E44F2402343F6000B16
:10354800C0F20F03B6FBF1F0C4F2020BA0F574222F
:103558000C90A2F510729A4200F24582069AA2B324
:103568000AA8129009A811900CA8109000200291A6
:103578008DF83C0009200DF14C0A03990E900520A6
:103588000D9050460422FFF7D9FE2146204698E8C0
:103598007C1080E87C1020AA9AE86800104668C071
:1035A80016A8FFF798FD0C98002800F02F821899AC
:1035B80046F60045C0F2DC25DDF828A0DDF80080DD
:1035C8006943B1FBF0F402990BE0DDF80080B142E9
:1035D80000F23882029A46F60045C0F2DC25B2FBBA
:1035E800F0F404FB0052531E49F68172C1F25E6288
:1035F800AB42A3FB0262C0F0008247F6C073049E90
:1036080003EA84154FF00053002E18BF4FF0015302
:1036180001F03F066043334459194FF4403303EA3D
:10362800CA33920D03F5403303F44033194402F0D2
:103638000F0341EA0361CBF80410079B994502D1B7
:10364800099E059906E00599BAF1000F00F0E78197
:10365800B0FBFAF6DDF810A0B0FBF2F09945019046
:1036680005D10020012405903546012316E0A6F176
:10367800B77044F20042A0F55850C0F69502904247
:1036880000F2D6810020012300243546059005E08C
:10369800002001240690012005900023D1E90202B0
:1036A800002808BF2A46002A00F03781A5F1010E3C
:1036B80003930EEB0200B0FBF2F2012A0FD0022AAC
:1036C80009D0002A00F03281D01E032836D24FF0EC
:1036D800900C042205E04FF0800C022201E04FF02C
:1036E800000C4DF68066D1E90403B5FBF2F9C0F28F
:1036F8008026B145324638BF4A46002818BF1A46C8
:10370800002A00F01C81A9F1010304949818B0FB69
:10371800F2F2012A0FD0022A09D0002A00F01881FB
:10372800D01E032812D204204FF4A05219E0022020
:103738004FF4805215E00120002212E0901F062865
:1037480080F0BB804FF0A00C0822CAE7901F4FF40E
:10375800E05206284FF0100038BF4FF4C05238BF6F
:103768000820B9FBF0F40795B442029000F2F98002
:103778004BF60050D1E90656C0F20150814501468A
:1037880038BF4946002D18BF3146002900F0F280A5
:103798000B44B3FBF1F3012B0FD0022B09D0002B04
:1037A80000F0F180D91E03290AD204254FF42043E2
:1037B80010E002254FF400430CE00125002309E046
:1037C800991F4FF460431025062938BF4FF4404332
:1037D80038BF0825B9FBF5F6864200F2DE8045F2CF
:1037E800C7414FEADE10C0F21E11BAF1000FA0FB6C
:1037F8000101DBF800044FEAD0004FEA912160F3A1
:10380800DF0141F4E060CBF8000409D0DBF80000E8
:1038180040F48030CBF80000DBF800008003FBD5D3
:10382800059848B9DBF8000040F08070CBF800003C
:10383800DBF800008001FBD5DBF8081042EA0C0039
:103848004FF6F042184391430843CBF80800102084
:1038580000F09EFADBF80800049920F00300002924
:1038680008BF4FF0020A5044CBF80800029888F8C5
:103878001800079888F81950C8E90094C8F80C008F
:103888000398C8F8100001990698C8F80860C8F8A5
:10389800141070B10598B0BB46F60040C0F2DC20A9
:1038A800401A4DF2C14148BF4042C0F2010188426E
:1038B80029DA23B0BDE8000FF0BDA2F10C001C28E6
:1038C80003D24FF0B00C10220BE7A2F128003828E1
:1038D80003D24FF0C00C402203E7A2F16000602839
:1038E80003D24FF0D00C8022FBE6A2F1C0004FF0CB
:1038F800F00C4FF40072C02838BF4FF0E00C38BF0E
:103908004FF48072EDE64CF268504CF29452C0F6D7
:103918000000C0F600022C219DE04CF2D0204CF2B1
:10392800D042C0F60000C0F6000293E04CF2A4506A
:103938004CF2EC52C0F60000C0F600022BE04CF24C
:10394800D0204CF2E042C0F60000C0F6000281E050
:103958004CF2A4504CF2DC52C0F60000C0F6000253
:1039680019E04CF2F0404CF21452C0F60000C0F6D8
:1039780000021AE04CF2D0204CF22452C0F60000AB
:10398800C0F6000266E04CF2A4504CF2CC52C0F6ED
:103998000000C0F6000228215DE04CF234504CF2E1
:1039A8005852C0F60000C0F60002242153E04CF241
:1039B800D0204CF28432C0F60000C0F6000249E084
:1039C8004CF2FC204CF29432C0F60000C0F6000223
:1039D8002B2140E04CF2D0204CF2A432C0F600007B
:1039E800C0F6000236E04CF2B4304CF2F032C0F6C9
:1039F8000000C0F600023C212DE04CF2D0204CF231
:103A08002042C0F60000C0F6000223E04CF2D020AD
:103A18004CF20042C0F60000C0F600021AE04CF278
:103A2800D0204CF23042C0F60000C0F6000211E08F
:103A38004CF270404CF2C042C0F60000C0F60002E2
:103A4800502108E04CF2D0204CF21042C0F60000A1
:103A5800C0F60002192104F08BFAFEDE40687047B8
:103A680080687047007E7047704770474FF47A71DE
:103A78004843704744F24021C0F20F014843704761
:103A880043F63000C4F20200016841F00101016010
:103A98007047D0B502AF00248300C4F20204202B83
:103AA8000BD201FA03FE0F21D4F820C099402CEA6A
:103AB800010141EA0E0121620CE003F01C03D4F875
:103AC80024C001FA03FE0F2199402CEA010141EAC2
:103AD8000E0161621E2101EA4000022123680322CF
:103AE800814002FA00F023EA000008432060D0BDBC
:103AF80043F63000C4F20200016841F00801016099
:103B08007047D0B502AF40F600448300C4F2020407
:103B1800202B0BD201FA03FE0F21D4F820C09940C4
:103B28002CEA010141EA0E0121620CE003F01C03BA
:103B3800D4F824C001FA03FE0F2199402CEA0101B0
:103B480041EA0E0161621E2101EA40000221236858
:103B58000322814002FA00F023EA000008432060B3
:103B6800D0BD43F63000C4F20200016841F01001F4
:103B78000160704740F210400021C4F2012001604A
:103B8800704740F210400121C4F2012001607047E3
:103B980040F63800C4F200000068704740F62C0078
:103BA800C4F200000068704788B240F63801C4F2D9
:103BB800000108607047D4D4D0B502AF84B0007853
:103BC800DFE800F00217091001AC4CF20A62C0F6F7
:103BD8000002072313E001AC4CF2FC52C0F60002CD
:103BE80003230CE001AC4CF2FF52C0F600020B2399
:103BF80005E001AC4CF21162C0F600020923204630
:103C080005F0D4FF204604F051FC04B0D0BDD4D454
:103C1800D0B502AF84B00078DFE800F00215070ED7
:103C28004BF67C62C0F6000203E04BF67462C0F605
:103C3800000201AC08230CE001AC4CF21A62C0F699
:103C48000002092305E001AC4CF22362C0F6000231
:103C58000323204605F0AAFF204604F027FC04B001
:103C6800D0BD41F20400CEF2000000687047B1F107
:103C7800FF3FC4BF0844704780B56F464CF2C06030
:103C88004CF2E862C0F60000C0F60002272104F0FA
:103C98006FF9FEDE401AB0F1FF3FC8BF704780B52C
:103CA8006F464CF28C604CF2B062C0F60000C0F671
:103CB8000002212104F05CF9FEDE09680068401A60
:103CC80018BF012048BF4FF0FF30704709680068EF
:103CD800401A18BF012048BF4FF0FF3070477047A7
:103CE800704701200121704741F20400CEF2000024
:103CF8000068704700207047704700207047FF2811
:103D080028BFFF20704700787047FF20704780B5B4
:103D18006F46FFF741F8FEDEFEE77047C1B20F209D
:103D2800DFE801F00406080A0C0E0F0004207047B3
:103D380005207047062070470B2070470C207047FD
:103D48000E207047B0B502AF056808460C4605F06E
:103D580018FF28B128462146BDE8B04006F095BDB9
:103D6800204605F012FF28B128462146BDE8B0409C
:103D780006F0BBBD28462146BDE8B04006F019BF95
:103D880000F00AB800BE704772B6704762B6704756
:103D980040080138FDD17047EFF31080704730BFFD
:103DA8007047EFF31180C0B2704780F311887047F5
:103DB80070470068FEE77047F0B503AF2DE9000FC4
:103DC80083B011F007020E4681466DD0D9F8000085
:103DD800292880F01981A8B14CF2AC73C0F6000311
:103DE80053F822B06FF0030303EB800401230C2C7B
:103DF80003EB940509F1040305F0030104D200253F
:103E080069BB44E000204DE025F003054FF0000EAB
:103E18006D420296CDE90019D3E90061D3E9022485
:103E2800A1FB0B19A6FB0B6AA2FB0B2C16EB0E06CB
:103E3800A4FB0B4851EB0A0152EB0902C3E90061EC
:103E480054EB0C0448F1000E0435C3E9022403F1D5
:103E58001003E1D1029E7546DDE90019B9B1D3F826
:103E680000804FF0000E00240129E8FB0B5E1D6066
:103E78000DD05A680229E2FB0BE4C3F804E0A64619
:103E880005D09A684FF0000EE2FB0B4E9C60BEF125
:103E9800000F07D0272800F2C38009EB800101300A
:103EA80041F804EFC9F80000300769D5D9F800E0F7
:103EB800BEF1290F80F0AB80BEF1000F15D06FF076
:103EC8000300012100EB8E004EF2001809F10402F4
:103ED800002401EB9001C0F2F55801F0030C0C2806
:103EE80006D2BCF1000F29D13EE04FF0000E45E0AC
:103EF80021F00300CB464142029692E8610200237A
:103F0800E0FB0843A5FB080510EB030A45F1000395
:103F18000025E6FB0835C2E9004AA9FB0860AD198F
:103F280040F100040431C2E9023502F11002E4D183
:103F3800029E2146D946BCF1000F15D01068002119
:103F48000025BCF1010FE0FB084114600CD050685B
:103F5800BCF1020FE0FB08155160294604D09068B7
:103F68000021E0FB0851956041B1BEF1270F5AD8F6
:103F780009EB8E000EF1010E40F8041FC9F800E0AD
:103F8800F0060CD4B00614D470061CD4300624D421
:103F9800F0052CD4484603B0BDE8000FF0BD4CF244
:103FA800FC714846C0F60001022206F0CFFAB006BE
:103FB800EAD54CF604014846C0F60001042206F092
:103FC800C5FA7006E2D54CF614014846C0F6000161
:103FD800072206F0BBFA3006DAD54CF6300148461F
:103FE800C0F600010E2206F0B1FAF005D2D54CF663
:103FF80068014846C0F600011B2206F0A7FA4846A9
:1040080003B0BDE8000FF0BD4DF67C5202E04DF65E
:104018007C527046C0F60002282105F0C3FEFEDE81
:104028004DF67C5202E04DF67C527046C0F6000216
:10403800282103F0B5FFFEDEF0B503AF2DE9000F30
:10404800ADF2BC5DD1E90094009059EA04001A93DE
:104058001C9201F0C783D1E9028658EA060001F0F4
:10406800CA83D1E9043B53EA0B0001F0D08319EB72
:1040780003024FF0000054EB0B0250F1000241F034
:10408800D283B9EB080274EB060240F10000D0F1CC
:10409800010041F0D4831A9825931128C1F0DB83DD
:1040A80091F91A00A7F1C00A1990088BA021249051
:1040B800504607F0E5F80220002C08BF01202790A1
:1040C80057F8BC0C514618BF204647F8BC0C27A827
:1040D800A0220430022547F8C09C269007F01CF85F
:1040E8005046A02107F0CCF8022047F8C08C002EDB
:1040F80008BF01205090514657F8BC0C4FF0A00261
:1041080018BF304647F8BC0C50A804301B9007F085
:1041180003F85046A02107F0B3F8BBF1000F08BF21
:10412800012557F8BC0C514679954FF0A002249D03
:1041380018BF584647F8BC0C79A80430259E47F8A4
:10414800C06C059006F0E8FF01209C21CDE9A20093
:10415800A2A8083007F094F819EB060044F6425379
:1041680044EB0B010138B0FA80F071F1000100F165
:10417800200228B218BFB1FA81F2811A45F28002F2
:10418800C4F61053C4F213421324C1FB03240028BD
:1041980021B201910AD427A8294606F020F950A88F
:1041A800294606F01CF979A8294602E0404201B2E6
:1041B800A2A806F014F90198A7F1C006B0F1FF3FD4
:1041C80002DDA2A8A1B20BE0404205B227A8294609
:1041D800FFF7F2FD50A82946FFF7EEFD79A829461A
:1041E800FFF7EAFD2699301D279CA02247F8C04C0E
:1041F8001E9006F091FFDDF8E4E1229474457046C4
:1042080088BF2046292881F09D820DF5F27CCDF8E3
:104218008CE068B1421E4FF00009032A00F0030148
:104228002591249006D200230022A7F1C00E29E090
:10423800002363E020F0030AA7F1C00E0023002248
:104248000EEB82040CEB820103F0010304F1040C71
:10425800013BD1E901659CE8081102F104027341B0
:10426800D1E903B155EB080520695CEB0B060DF5A8
:10427800F27C484104F1040168C149F10003924508
:104288002061DDD1259C764654B30CEB820006EB09
:104298008201013B4FF0000E40684D68684148605C
:1042A8004EF10003012C1BD0501C013B0CEB80018C
:1042B80006EB800049684568694141604EF100039A
:1042C800022C0DD0901C013B0CEB800106EB80000A
:1042D80049684268514141604FF0000040F10003D5
:1042E800D807DDE923E309D0A2AA272B01F2C88267
:1042F80006EB830001330121416000E0A2AADDF84A
:1043080088C247F8C03C9C4588BF6346292B81F08A
:104318002081101D259002EB8300C6F1000B011DC2
:10432800301FC6F1080A4FEA83094FF00008064615
:104338002493CDE9170ACDF858B0C14500F0C580DF
:1043480006EB09050B4653F8040D6A68841A18BF72
:104358000124904238BF4FF0FF34CCBB25988342EC
:1043680000F0B8800B4656F8090053F8082D141AC7
:1043780018BF0124824238BF4FF0FF3444BB259850
:10438800834200F0AB800B4655F8042C53F80C0D13
:10439800841A18BF0124904238BF4FF0FF34BCB9CB
:1043A8002598834200F0928151F8100D0AF1100A05
:1043B80055F8082C103E0BF1100B08F11008841A60
:1043C80018BF0124904238BF4FF0FF34002CB4D0FE
:1043D800199A229B60B29042C0F28681292B81F003
:1043E800B880CDF890C083B16FF00300012100EBD5
:1043F80083000C2801EB900202F0030E0CD200257A
:10440800269BBEF1000F30D14AE000215098279139
:1044180029286ED301F096B922F00300269B464264
:104428004FF000094FF00A08D3E900B4D3E90215A8
:10443800A4FB0840A5FB08CAABFB085BA1FB08125C
:1044480015EB090554EB0B044841C3E900545CEB38
:1044580002014AF100090436C3E9020103F110031D
:10446800E2D14D46BEF1000F1AD018680A244FF069
:1044780000090026BEF1010FE0FB04591D600FD0B2
:104488005868BEF1020FE0FB0496C3F80490B146E9
:1044980006D098684FF000090A21E0FB01699E6088
:1044A800B9F1000F1ED0229927A8DDF88CE0272942
:1044B80001F2EF8100EB8100013140F8049F509830
:1044C8002791292815D301F03DB92498CBEB80001A
:1044D800011DFEE02498CBEB8001FAE0249806EB5E
:1044E8008001F6E0DDE9221E50982791292881F005
:1044F800298170B16FF00301012201EB80010C29C1
:1045080002EB910303F003020DD200241B9E9ABB19
:104518004CE00020BEF1290F50905AD34DF67C5242
:10452800704601F050B923F003011B9E4D424FF035
:1045380000084FF00A0E2292D6E900B2D6E902131B
:10454800A2FB0E24A3FB0EA9ABFB0E3BA1FB0E1C8A
:1045580013EB080352EB0B026141C6E900325AEB38
:104568000C0449F100080435C6E9021406F11006E6
:10457800E2D1229A4446CAB131684FF00A0E4FF090
:1045880000080025012AE1FB0E4834600ED071684E
:10459800022AE1FB0E85C6F80480A84606D0B16859
:1045A8004FF000080A22E1FB0258B560B8F1000F8D
:1045B80000F08480DDF88CE0272801F2738150A98F
:1045C80001EB8001013041F8048FBEF1290F5090B2
:1045D800A4D2BEF1000F10D06FF00300012100EB50
:1045E8008E000C2801EB900202F0030C08D2002583
:1045F800059BBCF1000F2ED148E04FF0000E58E0AB
:1046080022F00300059B46424FF000084FF00A0EC7
:10461800D3E900A4D3E90215A4FB0E40A5FB0EB90B
:10462800AAFB0E5AA1FB0E1215EB080554EB0A045F
:104638004841C3E900545BEB020149F10008043624
:10464800C3E9020103F11003E2D1DDF88CE045462D
:10465800BCF1000F1AD018680A244FF00008002691
:10466800BCF1010FE0FB04581D600FD05868BCF185
:10467800020FE0FB0486C3F80480B04606D09868B1
:104688004FF000080A21E0FB01689E60B8F1000FB6
:104698000FD0DDF890C0BEF1270F01F20B8179A889
:1046A80000EB8E000EF1010E40F8048FCDF8E4E126
:1046B8001DE0DDF890C0CDF8E4E118E0DDF88CE00D
:1046C800BEF1290F5090FFF484AF27E72498CAEB76
:1046D80080011E98199A0C1A229B18BF4FF0FF34BC
:1046E80060B29042BFF67AAE019801300190259CE5
:1046F8000DF54B7808F10400A022CDF82CC3214613
:10470800049006F009FD4046012105F068FEA298D4
:10471800F4AEF490301D2146A022039006F0FCFC74
:104728003046022105F05BFEA2980DF27445CDF8E3
:104738007404281D2146A022029006F0EDFC2846AC
:10474800032105F04CFEDDF874342799069399424D
:1047580088BF0B46282B00F2FC86A2A80A46C0F1A7
:104768000801C0F10400149050A81591C0F1080187
:10477800C0F104001290C8F108001190A8F10400DB
:104788001090C8F100000F90C6F108000E90301F7D
:104798000D9070420C90C5F108000B90281F0A90EC
:1047A80068420990A29890461F90CB980890F49878
:1047B80007900020209027A813910DF1240E20992E
:1047C800219100EB83010C1D9EE8004C4FEA830CFD
:1047D8004FF000092493CC454DD00BEB0C05214636
:1047E80051F8043D6E689A1B18BF0122B34238BFC6
:1047F8004FF0FF32BABB2698814241D021465BF880
:104808000C3051F8086DF21A18BF01229E4238BFC9
:104818004FF0FF323ABB2698814235D0214655F8F1
:10482800046C51F80C3D9A1B18BF0122B34238BFE3
:104838004FF0FF32BAB92698814229D054F8101D9A
:104848000EF1100E55F8083CABF1100B0AF1100AE6
:1048580009F11009CA1A18BF0122994238BF4FF04E
:10486800FF32002AB7D0249B27ACD1B201291BD92B
:104878000021434697E0249BCAEB830104310AE0F8
:10488800249BCAEB830106E0249B0BEB830102E027
:10489800249BCEEB8301029A27AC8A1A18BF4FF0EB
:1048A800FF32D1B20129E3D8002B7AD05A1E03F087
:1048B8000300032A239004D200224FF0010927A8FD
:1048C8002FE023F0030E27A800224FF001094FF034
:1048D80000080DF2744100EB820301EB820503F13D
:1048E800040CD5E901410432D5E903BA09F0010500
:1048F800013D6FEA01019CE860126FEA04046C4113
:104908006FEA0B0571416FEA0A0655EB090556EB8C
:104918000C06C3E9014148F100099645C3E903566D
:10492800D7D1239E4FF0000C0446AEB30DF274416C
:1049380004EB820301EB8201B9F10105586849686B
:104948006FEA0101414159604CF10009012E23D061
:10495800511C0DF27443B9F1010503EB810304EB1B
:1049680081015B6848686FEA030343414B604CF17F
:104978000009022E10D0911C0DF27442B9F1010603
:1049880002EB810204EB810152684B686FEA020274
:104998005A414A604CF10009249B5FEAC97100F052
:1049A800D886082127932391079924938B42084698
:1049B80088BF1846292880F0C58604EB8001DDF8F9
:1049C80038A0DDE90CB90E1D229080004FF0000ED2
:1049D800704551D009EB0002334653F804CDD2F8A4
:1049E8000480BCEB080518BF0125C44538BF4FF04B
:1049F800FF35BDBB26998B4243D0334659F800405A
:104A080053F8081D0D1B18BF0125A14238BF4FF0F0
:104A1800FF353DBB26998B4237D0334652F8044CBC
:104A280053F80C1D0D1B18BF0125A14238BF4FF0CC
:104A3800FF35BDB926998B422BD056F8101D0AF1C7
:104A4800100A52F8082CA9F110090BF1100B0EF1FD
:104A5800100E8D1A18BF0125914238BF4FF0FF354F
:104A6800002DB5D0229A0DF19C0E0DF57479E9B29E
:104A780001291DD9249A90E0229ACBEB82010431B6
:104A88000AE0229ACBEB820106E0229A09EB820126
:104A980002E0229ACAEB820103980DF19C0E0DF5F3
:104AA80074790D1A18BF4FF0FF35E9B20129E1D822
:104AB800002A6DD0511E02F003000329249002D26F
:104AC800002301212DE022F00308002301214FF0EB
:104AD800000C09EB830601F00101D6E901540EEB45
:104AE80083020139D6E903A9D2E901166FEA040B5A
:104AF8006FEA0505D2E90304694103F1040356EBA3
:104B08000B056FEA0A0670416FEA09067441C2E9AB
:104B180001154CF100010DF574799845C2E90304BB
:104B2800D7D1249D4FF0000C75B309EB83000EEB31
:104B380083020139406854686FEA000060415060A0
:104B48004CF10001012D1FD0581C013909EB8002DE
:104B58000EEB8000526846686FEA020256EB0201CB
:104B680041604CF10001022D0ED0981C013909EB6F
:104B780080020EEB8000526843686FEA020253EB32
:104B8800020141604CF10001229AC80700F0E1855A
:104B98002398279240F0040023900898229282429A
:104BA80088BF1046292880F0CD850EEB8001DDF8FE
:104BB80044A0DDE90FB80E1D4FEA80094FF0000C44
:104BC8002490E1454FD008EB0902334653F8044DD1
:104BD8005168651A18BF01258C4238BF4FF0FF3560
:104BE800BDBB26998B4244D0334658F8091053F878
:104BF800084D651A18BF01258C4238BF4FF0FF35A4
:104C08003DBB26998B4239D0334652F8044C53F8B1
:104C18000C1D0D1B18BF0125A14238BF4FF0FF35F1
:104C2800BDB926998B422ED056F8101D0AF1100AEC
:104C380052F8082CA8F110080BF1100B0CF1100C0D
:104C48008D1A18BF0125914238BF4FF0FF35002D4E
:104C5800B7D0DDF890B00DF54B79E9B2012920D92C
:104C6800DDF888B09BE02498CBEB800183460431C3
:104C78000DE02498CBEB8001834608E0DDF890B086
:104C880008EB8B0103E0DDF890B0CAEB8B01049AC6
:104C98000DF54B798D1A18BF4FF0FF35E9B2012990
:104CA800DED8BBF1000F75D0ABF101020BF00300A9
:104CB800032A229005D200234FF001080DF19C0E23
:104CC8002FE02BF0030C0DF19C0E00234FF0010890
:104CD800002009EB83050EEB8302D5E9014104337B
:104CE800D5E903A908F00105013D6FEA010BD2E9F6
:104CF80001566FEA0404D2E903186C4156EB0B0520
:104D08006FEA0A0671416FEA090656EB08060DF5C7
:104D18004B7940F100089C45C2E90145C2E90316F8
:104D2800D7D12298002478B309EB83010EEB8302D4
:104D3800B8F10105496856686FEA0101714151608F
:104D480044F1000801281FD0591CB8F1010509EBEE
:104D580081020EEB810152684E686FEA02027241CD
:104D68004A6044F1000802280ED0991CB8F10106E7
:104D780009EB81020EEB810152684B686FEA02026F
:104D88005A414A6044F10008DDF890B05FEAC87102
:104D980000F0DF842398CDF89CB0023023901F9850
:104DA800834588BF5846292880F0CC840EEB8001C3
:104DB800DDE9149A0C1D0DF522784FEA800E4FF0AC
:104DC800000C2490E64551D0214658F80E2051F8A1
:104DD800045DAB1A18BF0123954238BF4FF0FF336B
:104DE800CBBB269A914246D008EB0E02214651F8D9
:104DF800085D52F8046CAB1B18BF0123B54238BFDD
:104E08004FF0FF333BBB269B994238D0214652F8DE
:104E1800086C51F80C5DAB1B18BF0123B54238BFB5
:104E28004FF0FF33BBB9269B99422CD054F8101D84
:104E38000AF1100A52F80C2C09F11009A8F110080F
:104E48000CF1100C8B1A18BF0123914238BF4FF098
:104E5800FF33002BB6D0219E27AD249C4FF00009CC
:104E6800D9B201291ED95C46239994E0249C08EB09
:104E7800840104310AE0249C08EB840106E0249CA8
:104E8800C9EB840102E0249CCAEB8401259A27AD72
:104E98004FF00009219E8B1A18BF4FF0FF33D9B28B
:104EA8000129E0D8002C73D0611E04F00300032907
:104EB800229004D2002101220DF19C0B2FE024F056
:104EC800030E0DF19C0B0DF5227C002101220CEB49
:104ED800810602F00102D6E901540BEB8103013A85
:104EE800D6E90398D3E901266FEA040A6FEA0505B3
:104EF800D3E903046A4101F1040156EB0A056FEA9C
:104F0800090670416FEA08067441C3E901254FF0AC
:104F1800000949F100028E45C3E90304D7D1229C58
:104F28005D4684B3A2A805EB810300EB8100013A3A
:104F38005E6840686FEA00007041586049F10002FD
:104F4800012C20D0481CA2AB013A03EB800305EBEF
:104F580080005B6846686FEA030356EB0302426011
:104F680049F10002022C0ED0881CA2A9013A01EBDB
:104F7800800105EB8000496843686FEA01015941E7
:104F8800416049F10002219ED007249C00F0E18392
:104F98002399279401311A98864200F0E683509AA3
:104FA80001F130001C9994422292249488551046AD
:104FB80088BF2046292880F0C583711C209105EB05
:104FC8008001DDE9128E0D1D50AB4FEA800C4FF0C9
:104FD8000009CC4558D0294653F80C2051F8046DE7
:104FE800B6EB020A18BF4FF0010A964238BF4FF0DD
:104FF800FF3ABAF1000F43D1269A914248D003EB09
:105008000C02294651F8086D52F8044CB6EB040A14
:1050180018BF4FF0010AA64238BF4FF0FF3ABAF165
:10502800000F2DD1269CA14235D0294652F8086C94
:1050380051F80C4DB4EB060A18BF4FF0010AB44200
:1050480038BF4FF0FF3ABAF1000F19D1269CA142A0
:1050580024D055F8101D0EF1100E52F80C2C08F142
:105068001008103B09F11009B1EB020A18BF4FF004
:10507800010A914238BF4FF0FF3ABAF1000FA8D0A9
:10508800249C4FF0000914E003EB8000043007E093
:1050980003EB800004E0C8EB800001E0CEEB800069
:1050A8001B994FF00009249CB0EB010A18BF4FF080
:1050B800FF3A1E98A022269947F8C04C06F02CF813
:1050C800DDF8E4C1CDF88CC0644588BFA446BCF1C6
:1050D800290F80F03A83BCF1000F09D0ACF101022E
:1050E8000CF00300032A1D9005D2002300222AE0B9
:1050F8004FF0000C67E02CF0030800230022A7F112
:10510800C00003F0010300EB820579A800EB8204DC
:10511800013BD4E901B602F10402D5E90131D4E931
:10512800039453EB0B03D5E903E071415EEB0906E9
:105138004FF000096041C5E9013149F1000390458C
:10514800C5E90360DBD11D9D7DB379A8A7F1C00136
:1051580000EB820001EB8201013B40684E68704120
:10516800486049F10003012D1FD0501C79A9A7F10F
:10517800C006013B01EB800106EB800049684668E8
:105188007141416049F10003022D0ED0901C79A9AC
:10519800A7F1C002013B01EB800102EB80004968E6
:1051A80042685141416049F10003D8070BD0BCF176
:1051B800270F00F2E282A7F1C000012100EB8C006A
:1051C8000CF1010C41601F9847F8C0CC604588BFBE
:1051D8008446BCF1290F80F0B882A2A8DDF860806F
:1051E80000EB8C00DDE9166100F104094FEA8C0E32
:1051F8000024A64546D001EB0E0B4A4652F8040D92
:10520800DBF80450431B18BF0123A84238BF4FF0F6
:10521800FF33A3BB2598824238D04A4651F80E0086
:1052280052F8085D2B1A18BF0123854238BF4FF08A
:10523800FF3323BB259882422BD04A465BF8045C97
:1052480052F80C0D431B18BF0123A84238BF4FF07A
:10525800FF33A3B9259882421ED059F8100D08F1E2
:1052680010085BF8082C103910361034831A18BF50
:105278000123904238BF4FF0FF33002BB9D0DDF83F
:10528800908012E0C6EB8C00011D07E0C6EB8C0194
:1052980004E001EB8C0101E0C8EB8C011E98DDF8FD
:1052A80090800B1A18BF4FF0FF33199A4FFA8AF102
:1052B8009142A4BF58B29042C0F24F81B8F1290F71
:1052C80080F06482DDE92254B8F1000F4FF00A0C37
:1052D8000ED06FF00300012100EB88000C2801EBD1
:1052E800900101F0030206D20026269B82BB46E00D
:1052F8004FF0000851E021F00300269B46424FF092
:10530800000E4FF00A0C2192D3E90095D3E902422E
:10531800A5FB0C50A2FB0CA8A9FB0C21A4FB0C4B71
:1053280012EB0E0269416041C3E900215AEB0B05FB
:1053380048F1000E0436C3E9020503F11003E3D176
:10534800DDE923487646DDE921254FF00A0CB2B1A4
:1053580018684FF0000E012AE0FB0C6E1E600ED09C
:1053680058680026022AE0FB0CE6C3F804E0B646BB
:1053780005D098684FF0000EE0FB0C6E9E60BEF101
:10538800000F0AD0B8F1270F00F2048227A800EB1B
:10539800880008F1010840F804EF292DCDF89C8019
:1053A80080F0018227A875B16FF00300012100EB9E
:1053B80085000C2801EB900101F0030205D20026BC
:1053C8001B9B8ABB47E0002552E021F003001B9B92
:1053D80046424FF0000E4FF00A0C2192CDF8908013
:1053E800D3E90095D3E90242A5FB0C50A2FB0CA817
:1053F800A9FB0C21A4FB0C4B12EB0E026941604186
:10540800C3E900215AEB0B0548F1000E0436C3E945
:10541800020503F11003E3D1DDE923487646DDE90F
:1054280021254FF00A0CB2B118684FF0000E012A7E
:10543800E0FB0C6E1E600ED058680026022AE0FBC6
:105448000CE6C3F804E0B64605D098684FF0000EA5
:10545800E0FB0C6E9E60BEF1000F08D0272D00F215
:10546800A68150A800EB8500013540F804EF27A875
:10547800292C509580F0A48174B16FF003000121AC
:1054880000EB84000C2801EB900101F0030205D227
:105498000026059B8ABB47E0002452E021F0030068
:1054A800059B46424FF0000E4FF00A0C2292CDF8B1
:1054B8009080D3E90095D3E90242A5FB0C50A2FBEA
:1054C8000CA8A9FB0C21A4FB0C4B12EB0E026941A2
:1054D8006041C3E900215AEB0B0548F1000E043680
:1054E800C3E9020503F11003E3D10DF188087646FC
:1054F8004FF00A0C98E81401B2B118684FF0000E8A
:10550800012AE0FB0C6E1E600ED058680026022AA5
:10551800E0FB0CE6C3F804E0B64605D098684FF007
:10552800000EE0FB0C6E9E60BEF1000F08D0272C29
:1055380000F24F8179A800EB8400013440F804EFB1
:1055480027A8069B7994984588BF4346282B7FF661
:1055580034A94DF67C52184635E158B290426DDABE
:10556800DDE92045914280F2838027AC0121204665
:1055780004F035FFA2982799814288BF0846292858
:1055880080F0E08004EB80014FEA800C0B1DA2A99B
:10559800C1F1080EA1F1040AC1F100084FF0000999
:1055A800CC454FD00AEB0C011A4652F8044D4D6811
:1055B800661B18BF0126AC4238BF4FF0FF36BEBB92
:1055C800269CA24242D01A465AF80C4052F8085D6E
:1055D8002E1B18BF0126A54238BF4FF0FF363EBB31
:1055E800269CA24235D01A4651F8045C52F80C4D5C
:1055F800661B18BF0126AC4238BF4FF0FF36BEB954
:10560800269CA24228D053F8102D0EF1100E51F806
:10561800081CAAF1100A08F1100809F11009561A15
:1056280018BF01268A4238BF4FF0FF36002EB7D088
:10563800DDE92045F0B201281AD96CE01A990198E1
:10564800209C6AE0C8EB8000043007E0C8EB8000CB
:1056580004E00AEB800001E0CEEB80002599DDE94B
:105668002045461A18BF4FF0FF36F0B2012852D82D
:105678001A98854280F0FB801C98294600EB0408A4
:1056880040464A1C1FD0034613F8016D392E2FD10E
:105698001C9A9A4217D0024612F8023D392B2AD199
:1056A8001C9B93420FD0024612F8033D392B24D19C
:1056B8001C9B934207D010F8042D0439392AE0D0F6
:1056C800481C02311BE01C99312008702DB11C9830
:1056D80029463022013005F062FD1A998C4280F08B
:1056E800F2803020AC1C88F800000198013014E0EA
:1056F8000846114603E0481E01E0881E01391C9B3C
:105708008D421A5C02F101021A5404D35818611A26
:10571800302205F044FD1A9901988C429FBF0099E8
:1057280008811C98C1E900049EBF0DF2BC5DBDE86C
:10573800000FF0BD4CF68C222046C0F6000204F0A3
:1057480031FBFEDE4DF67C523DE04DF67C52604664
:1057580039E04DF68C504DF67C52C0F60000C0F68C
:1057680000021A2102F004FCFEDE4CF65C2201461F
:10577800C0F6000202F014FCFEDE4DF67C526046D4
:10578800C0F60002282102F00BFCFEDE4DF67C522A
:10579800404618E04DF67C524046C0F600022821EB
:1057A80002F0FEFBFEDE4DF67C5228460BE04DF67D
:1057B8007C522846C0F60002282102F0F1FBFEDEEA
:1057C8004DF67C522046C0F60002282104F0EAFA81
:1057D800FEDE4DF67C522046C0F60002282102F07B
:1057E800DFFBFEDE4CF603104CF62012C0F600007C
:1057F800C0F6000213E04CF630104CF65012C0F61A
:105808000000C0F600021D2102F0B2FBFEDE4CF6DD
:1058180060104CF67C12C0F60000C0F600021C2195
:1058280002F0A6FBFEDE4CF68C104CF6C412C0F655
:105838000000C0F60002362102F09AFBFEDE4CF6AC
:10584800D4104CF60C22C0F60000C0F60002372136
:1058580002F08EFBFEDE4CF61C204CF64C22C0F605
:105868000000C0F600022D2102F082FBFEDE1A992C
:105878004CF66C22C0F60002204604F093FAFEDED5
:105888004DF67C521846C0F60002282102F088FB2B
:10589800FEDE4DF67C520846C0F60002282102F0D2
:1058A8007FFBFEDE4DF67C52C0F60002282102F096
:1058B80077FBFEDE4DF67C527046C0F600022821CA
:1058C80002F06EFBFEDE4CF67C222046C0F600029B
:1058D80002F066FBFEDEF0B503AF2DE9000FADF573
:1058E8006D7DD1E90085159058EA0500189301F0FF
:1058F800BC81D1E9020E50EA0E0301F0BF81D1E963
:10590800043453EA040601F0C58113EB08034FF091
:10591800000C55EB04035CF1000341F0C7811792BA
:10592800B8EB000275EB0E004CF10000D0F101005D
:1059380041F0C8810DF5447A0E8BA021504605F040
:105948009FFC0220CDF81083002D08BF0120209075
:105958000DF1800BC598514618BF2846C5900BF12C
:105968000400A0221D9005F0D7FB01209C21CDE961
:10597800490049A8083005F083FCB8F1010044F655
:105988004253B0FA80F075F1000100F1200230B204
:1059980018BFB1FA81F2811A45F28002C4F6105399
:1059A800C4F213421325C1FB032500280FFA85F81A
:1059B80002D420A8314602E0404201B249A804F0CE
:1059C8000EFD49A8B8F1FF3F00F1040902DD49A81E
:1059D800A9B203E0C8F1000001B220A8FEF7ECF973
:1059E8000AF10400499E4946A022C4961A9005F07F
:1059F80093FB1898CDF864800A28CDF8589004468F
:105A0800C0F09580282E00F289804CF600290446C3
:105A1800C3F69A39002E7AD00AEB860000F1040802
:105A28006FF0030000EB860101200C2900EB9100C8
:105A380000F0030603D20021002E42D167E020F0D7
:105A4800030000214542CDE91B6458F8100D4A4671
:105A58001F900023D8F80CA0D8E9014B504605F058
:105A680011FB00FB19A11E9058464A46002321F05D
:105A7800404105F007FB824600FB19B04A46002367
:105A880020F04041204605F0FDFA064600FB19408B
:105A98001F9C1E994A46C8F80C10002320F040416C
:105AA800204605F0EFFAA0FB091288E84104611AC4
:105AB8000435CAD1DDE91B640DF1800B0DF5447A7C
:105AC8002EB358F8045C4A460023284605F0DAFA53
