:020000040800F2
:1000000000000220A9010008E13C000805B6000834
:10001000E13C0008E13C0008E13C00080000000071
:10002000000000000000000000000000E13C0008AB
:10003000E13C000800000000E13C00080D2B000836
:10004000E13C0008E13C0008E13C0008E13C00081C
:1000500000000000E13C000869190008E13C0008CC
:10006000E13C0008E13C0008E13C0008E13C0008FC
:10007000E13C0008E13C0008E13C0008E13C0008EC
:10008000E13C0008E13C0008E13C0008E13C0008DC
:10009000E13C0008E13C0008E13C0008E13C0008CC
:1000A000E13C0008E13C0008E13C0008E13C0008BC
:1000B000E13C0008E13C0008E13C0008E13C0008AC
:1000C000E13C0008E13C0008E13C0008F7190008A9
:1000D000E13C0008E13C0008E13C0008E13C00088C
:1000E000E13C0008E13C0008E13C0008E13C00087C
:1000F000E13C0008E13C0008E13C0008E13C00086C
:10010000E13C0008491D0008E13C0008E13C000812
:10011000E13C0008E13C0008E13C0008E13C00084B
:10012000E13C0008E13C0008E13C0008E13C00083B
:10013000E13C0008E13C0008E13C0008E13C00082B
:10014000E13C0008E13C0008E13C0008E13C00081B
:10015000E13C0008E13C0008E13C0008E13C00080B
:10016000E13C0008E13C0008E13C0008E13C0008FB
:10017000E13C0008E13C0008E13C00089F1A00084F
:10018000E13C0008E13C0008000000000000000025
:10019000000000000000000000000000000000005F
:0801A000E13C0008E13C00080D
:1001A80080B56F4603F099FD40F2940040F20001DB
:1001B800C2F20000C2F20001814208D240F20001FE
:1001C8000022C2F2000141F8042B8142FBD340F225
:1001D800000040F20001C2F20000C2F200018142B8
:1001E8000DD24EF2F00140F20002C0F60001C2F258
:1001F800000251F8043B42F8043B8242F9D34EF620
:100208008850CEF20000016841F47001016003F0EB
:100218005EFDFEDE43F20800C4F2010001684A06F2
:1002280042BF0120002170478A0642BF01210120F8
:100238007047CA0642BF012002217047C90707BF9D
:100248000120042101790020704709F0B9BC006839
:1002580009F0B6BCD0B502AF84B0006800780128B8
:1002680006D101AC4CF24902C0F600020F2305E0AA
:1002780001AC4BF66E72C0F600020423204609F06A
:1002880075FC204608F0F2F804B0D0BDD0B502AF36
:1002980084B000680078012806D101AC4BF64042D2
:1002A800C0F60002102305E001AC4BF65572C0F60B
:1002B80000020D23204609F059FC204608F0D6F824
:1002C80004B0D0BDF0B503AF4DF804BD86B00A4602
:1002D8004BF6A77105681046C0F60001052209F023
:1002E80038FC02ACCDE902014BF694764BF68E71E0
:1002F80005ABC0F60006C0F60001204603220595AE
:10030800009607F084FF4BF6A471681C05AB0590B6
:10031800C0F6000120460322009607F078FFA81CCB
:1003280005904BF6AC704BF67A71C0F6000005AB41
:100338000090C0F600012046042207F068FF20461E
:1003480008F003F806B05DF804BBF0BDD0B502AF05
:1003580084B000680078DFE800F003080D141B2261
:100368004BF68672C0F6000216E04CF27612C0F622
:10037800000203E04CF26D12C0F6000201AC092342
:1003880013E001AC4CF26712C0F6000206230CE041
:100398004BF66672C0F6000201AC042305E001AC1E
:1003A8004CF26012C0F600020723204609F0DEFB7B
:1003B800204608F05BF804B0D0BDD4D4B0B502AF85
:1003C80084B005682878DFE800F0023212224CF287
:1003D80060126C46C0F600022046072309F0C6FBEF
:1003E8004CF2B412681C0390C0F600022EE04CF2E6
:1003F80067126C46C0F600022046062309F0B6FBD9
:100408004CF29412681CC0F6000203901EE04CF2F5
:100418007F126C46C0F600022046032309F0A6FBB3
:100428004CF28412681C0390C0F600020EE04CF2F5
:100438006D126C46C0F600022046092309F096FBAF
:100448004CF2A412681C0390C0F6000203A92046CF
:1004580007F09CFF204608F009F804B0B0BDB0B51D
:1004680002AF86B00A464CF2C41105681046C0F6C1
:1004780000010D2209F06DFBCDE902014CF2D81004
:1004880002AC4CF2D111C0F6000005AB0090C0F6EA
:10049800000120460622059507F0B9FE681C059064
:1004A8004CF2EC104CF2E811C0F6000005AB0090DD
:1004B800C0F600012046032207F0A9FE204607F0F7
:1004C80044FF06B0B0BD006800F002BFD0B502AF6F
:1004D80084B00068007830B101280BD04BF62C723C
:1004E800C0F600020AE001AC4BF63872C0F6000212
:1004F800072305E04BF63272C0F6000201AC062372
:10050800204609F033FB204607F0B0FF04B0D0BD09
:10051800F0B503AF4DF804BD86B00A464BF67E71C0
:1005280005681046C0F60001042209F012FB02AC6F
:10053800CDE902014BF694764BF68E7105ABC0F609
:100548000006C0F60001204603220595009607F034
:100558005EFE4BF6A471681C05AB0590C0F6000161
:1005680020460322009607F052FE204607F0EDFED3
:1005780006B05DF804BBF0BDB0B502AF84B0056845
:100588002878DFE800F0050C1C30353C43484D5412
:1005980001AC4CF23802C0F6000206234DE001AC73
:1005A8004CF21C02C0F600020923204609F0DEFACC
:1005B8004CF22802681CC0F6000200900EE001AC64
:1005C8004CF20202C0F600020A23204609F0CEFAD5
:1005D8004CF20C02681C0090C0F6000269462046E6
:1005E80007F0D4FE2CE04BF6FB72C0F6000203E0E5
:1005F8004BF6F472C0F6000201AC07231DE001AC13
:100608004BF6EF72C0F60002052316E04BF6DE72D9
:10061800C0F600020FE04BF6CD72C0F600020AE009
:1006280001AC4BF61042C0F60002102305E04BF671
:10063800BC72C0F6000201AC1123204609F096FAFC
:10064800204607F013FF04B0B0BDD4D4D0B502AF34
:1006580084B000680078DFE800F003080F161D007A
:100668004BF66272C0F600020AE001AC4CF244029A
:10067800C0F60002052313E04BF68272C0F60002B2
:1006880001AC04230CE001AC4CF23E02C0F60002BF
:10069800062305E001AC4BF62462C0F600020823ED
:1006A800204609F063FA204607F0E0FE04B0D0BD0A
:1006B80080B56F4682B000680A22CDE9000268461C
:1006C80002F048FE02B080BD08464BF2EC71C0F65D
:1006D8000001022208F066BE7047704770477047F5
:1006E800704770477047704770477047704770474A
:1006F8007047704770477047704770477047F0B54C
:1007080003AF4DF804BD40F2060500240126C2F2ED
:100718000005022002F00DFD010612D06978C0B272
:10072800B1FBF0F202FB101028448470481C68707A
:10073800F0074FF001044FF00006EAD15DF804BB62
:10074800F0BD4BF280604BF61432C0F60000C0F6E4
:100758000002392107F0ECFBFEDE40F20D0000211B
:10076800C2F2000000F018B9B0B502AF40F20005BF
:100778000024C2F20005042002F0DBFC010610D0C0
:100788006978C0B2032CB1FBF0F202FB10102844C8
:10079800847001F10100687004F101000446EAD395
:1007A800B0BD4BF280604BF61432C0F60000C0F6C4
:1007B8000002392107F0BCFBFEDE40F20A000021EE
:1007C800C2F2000000F0E8B840F213000021C2F2C3
:1007D800000000F0E1B840F210000021C2F2000071
:1007E80000F0DAB802F0A2BC0278042A18BF03F0BD
:1007F80019BA4BF6E0020846C0F6000211460A2272
:1008080009F099B9D0B502AF0446062003F066FA9C
:100818000438C0B20B289FBF4EF61851CEF2000123
:100828004454D0BD4BF64C120C21C0F6000207F020
:1008380097FBFEDE03F08ABA03F086BAF0B503AF81
:100848004DF804BD86B0044640F23000C2F2000004
:10085800016DA1426ED900EBC40350F834200DF1AC
:10086800080C5B68019005948CE80E0084B301A81D
:1008780000F10805601EB4EB500F33D0440802980D
:10088800A04238D9019800EBC401284602F02FFC99
:10089800064602F054FC0599F2B2C0B2824213D166
:1008A800A14231D00298A04238D90198002C00EB1F
:1008B800C40350F834205B6840F8312000EBC100D5
:1008C80043600594D6D100210198DDE9032300E0B7
:1008D800002140F8312000EBC100436006B05DF80C
:1008E80004BBF0BD4BF65C104BF6E012C0F60000FE
:1008F800C0F6000210E04BF6F0104BF61C22C0F6D2
:100908000000C0F6000211E04BF65C104BF66022C6
:10091800C0F60000C0F60002232108E04BF6F010F4
:100928004BF67022C0F60000C0F60002292107F03D
:10093800FFFAFEDE4BF62C204BF65022C0F60000E4
:10094800C0F600022221F2E7B0B502AF0446082043
:100958000D4602F0EEFB01061FBFC0B240F21C01BB
:10096800C2F200014A781FBFB2FBF0F303FB10206C
:1009780001EB4000C5701FBF8470501C4870B0BDAB
:100988004BF280604BF61432C0F60000C0F600024D
:10099800392107F0CDFAFEDEB0B502AF04460120DA
:1009A8000D4602F0C6FB01061FBFC0B26178B1FB5D
:1009B800F0F202FB10101FBF20448570481C6070C5
:1009C80018BFB0BD4BF280604BF61432C0F6000081
:1009D800C0F60002392107F0ABFAFEDED0B502AF4F
:1009E8000446012002F0A5FB21786278914201D1EA
:1009F8000020D0BD02061FBFC0B2B1FBF0F202FB5F
:100A0800101001311FBF217020448178012018BFC8
:100A1800D0BD4BF280604BF61432C0F60000C0F631
:100A28000002392107F084FAFEDE80B56F46042003
:100A380002F07FFB40F20001C2F200010A784B7815
:100A48009A4201D1002080BD03061FBFC0B2B2FB8D
:100A5800F0F303FB102001321FBF0A7008448178AD
:100A6800012018BF80BD4BF280604BF61432C0F6EF
:100A78000000C0F60002392107F05AFAFEDEF0B590
:100A880003AF2DE9000B8EB006460068884601309A
:100A980002F053FB00F10109054607F84A9C346847
:100AA80002F045FB217810B1BFF35F8FFFE717F81D
:100AB8004A0C07F8491CC9B288421AD00120366886
:100AC80002F037FB01063AD0C0B2E9B2B1FBF0F24E
:100AD80002FB1010304480F8028002F028FB10B1AD
:100AE800BFF35F8FFFE786F801900EB0BDE8000BFB
:100AF800F0BD02200DA9079008A806900020CDE9B6
:100B08000400032003904BF6D030C0F6000002909A
:100B180043F60D50C0F600000B90CDE90901A7F18E
:100B28004A000C900CA80890A7F149004BF68431B4
:100B38000D9002A8C0F6000107F033FAFEDE4BF272
:100B480080604BF68432C0F60000C0F600023921FE
:100B580007F0EEF9FEDEF0B503AF2DE900078EB021
:100B68000446006891468846013002F0E6FA00F132
:100B7800010A064607F84AAC256802F0D8FA29782F
:100B880010B1BFF35F8FFFE717F84A0C07F8491C4D
:100B9800C9B288421DD00220246802F0CAFA0106B0
:100BA8003DD0C0B2F1B2B1FBF0F202FB101004EB81
:100BB800400080F8039080F8028002F0B8FA10B183
:100BC800BFF35F8FFFE784F801A00EB0BDE8000710
:100BD800F0BD02200DA9079008A806900020CDE9D5
:100BE8000400032003904BF6D030C0F600000290BA
:100BF80043F60D50C0F600000B90CDE90901A7F1AE
:100C08004A000C900CA80890A7F149004BF68431D3
:100C18000D9002A8C0F6000107F0C3F9FEDE4BF202
:100C280080604BF68432C0F60000C0F6000239211D
:100C380007F07EF9FEDEF0B503AF2DE900078EB0B0
:100C48000446006891468846013002F076FA00F1C1
:100C5800010A064607F84AAC256802F068FA2978BE
:100C680010B1BFF35F8FFFE717F84A0C07F8491C6C
:100C7800C9B288421DD00820246802F05AFA010639
:100C88003DD0C0B2F1B2B1FBF0F202FB101004EBA0
:100C9800400080F8039080F8028002F048FA10B112
:100CA800BFF35F8FFFE784F801A00EB0BDE800072F
:100CB800F0BD02200DA9079008A806900020CDE9F4
:100CC8000400032003904BF6D030C0F600000290D9
:100CD80043F60D50C0F600000B90CDE90901A7F1CD
:100CE8004A000C900CA80890A7F149004BF68431F3
:100CF8000D9002A8C0F6000107F053F9FEDE4BF292
:100D080080604BF68432C0F60000C0F6000239213C
:100D180007F00EF9FEDE80B56F468AB040F2840116
:100D2800C2F200010978012917D10121079108A908
:100D380006910021CDE90411022103914BF684416B
:100D4800C0F60001029148F6E361C0F60001CDE962
:100D5800080102A802F027F908B90AB080BD4BF6CD
:100D6800A0404BF64C03C0F6000002AA00904BF2DC
:100D7800EE70C0F60000C0F600032B2107F037F82C
:100D8800FEDED4D4F0B503AF2DE9000F91B00446D0
:100D980010788946DFE810F06201620106003F0022
:100DA8009800760013F801BB0DAE0D2230461946A7
:100DB8000AF053F902F0C4FF824602F0C5FF02F0C0
:100DC800D7FF40F21000C2F20000FFF707FE054609
:100DD8005FEACA70884608BF02F0B8FFE80738D053
:100DE8005FFA88F040F22521C0EB0010C2F2000142
:100DF8000D2201F8009008440DA980F801B00230D6
:100E08000AF02BF902F09CFF054602F09DFF02F064
:100E1800AFFF01200BE113F801BB0DAE0D223046E8
:100E280019460AF01AF902F08BFF824602F08CFF8D
:100E380002F09EFF40F20A00C2F20000FFF7CEFD6A
:100E480005465FEACA70884608BF02F07FFFE807D8
:100E580056D109A82CCEBBF1040F01462CC132781B
:100E68000A7000F0F88005AA68C8114668C10078C1
:100E7800087001A968CA084668C01278027084F828
:100E880002B0B1E013F801AB0DF1340B0D22584656
:100E980019460AF0E2F802F053FF054602F054FF43
:100EA80002F066FFEE07FFF7C0FD054688460EB95B
:100EB80002F04CFFE80752D109A8BBE84C000146F4
:100EC8004CC19BF800207DE013F801AB0DAE0D225C
:100ED800304619460AF0C1F802F032FF834602F0A4
:100EE80033FF02F045FF022002F023F940F2060129
:100EF800C2F200010A784B789A424BD1012556E09C
:100F08005FFA88F040F21621C0EB0010C2F200012F
:100F18000D2201F8009008440DA980F801B00230B4
:100F28000AF09BF802F00CFF054602F00DFF02F0F4
:100F38001FFF002041460026FFF706FDE80708BF0F
:100F480002F004FF4EF204204FF40031CEF200000C
:100F580001608DF830600B96CDE909667BE05FFA99
:100F680088F040F2BC11C0EB0010C2F200010D2263
:100F780001F8009008440DA980F801A002300AF099
:100F88006CF802F0DDFE054602F0DEFE02F0F0FE2F
:100F980002204CE003066FD0C0B20025B2FBF0F38C
:100FA80003FB102001320A70084490F802801BF0FD
:100FB800010008BF02F0CAFEFDB109A82CCE014607
:100FC8002CC13278BAF1040F0A7044D005AA68C857
:100FD800114668C10078087001A968CA084668C047
:100FE8001278027084F802A0002084F80190207022
:100FF800E01C0D220AF031F83AE05FFA88F040F27E
:10100800F811C0EB0010C2F200010D2201F80090A7
:1010180008440DA980F801A002300AF01EF802F079
:101028008FFE054602F090FE02F0A2FE0320414624
:10103800FFF78AFCE80708BF02F088FE4EF204209A
:101048004FF40031CEF20000016000208DF830002E
:101058000B900A90099000208DF820000020E06095
:10106800C4F80900C4F80500C4F801000220207083
:1010780011B0BDE8000FF0BD4BF280604BF61432A2
:10108800C0F60000C0F60002392106F051FFFEDE6E
:10109800F0B503AF2DE9000F95B08246A82014469D
:1010A800019103FB00F501F0F6FF0646284602F021
:1010B80031F80146304601F0F4FF14F801BB0EADDB
:1010C80081460D222846214609F0C7FF02F038FE66
:1010D800044602F039FE02F04BFE4FEAC478FFF7EF
:1010E800A4FCB8F1000F04460E4608BF02F02EFE1D
:1010F800E00722D10AA84CCDBBF1040F01464CC130
:101108002A780A706BD006AA68C8114668C10078A8
:10111800087002A968CA084668C0127802700D22D1
:1011280001988AF8010001208AF800000AF10300FA
:101138008AF802B009F091FF5FE0F6B240F2BC1104
:10114800C6EB0610C2F20001019A0A5408440EA91F
:1011580080F801B002300D2209F07FFF02F0F0FDA7
:10116800044602F0F1FD02F003FE40F2300504F0FF
:101178000104C2F20005CDE91296286D50B140F283
:10118800300112A8C2F2000101F0BAFFC0B2FF2874
:101198000FD107E04EF21000CEF20000016841F0D6
:1011A800020101604EF604504FF08061CEF200005B
:1011B8000160286DDDE9121245F8301005EBC00317
:1011C800296D5A6001312965FFF738FB0CB902F027
:1011D800BDFD00208DF834000C90CDE90A000020F8
:1011E800CAF80C008DF82400CAF80900CAF80500EE
:1011F800CAF8010002208AF8000015B0BDE8000F07
:10120800F0BDD4D45FFA81FC80B56F46DFE80CF0FE
:101218000216101D1378012B27D0022B1CD140F287
:10122800024120F8021B511C0C2209F016FF80BD58
:101238001378042B05D140F202611FE01378042BC8
:101248001AD0062B08D1032118E01378082B18BFF1
:10125800092B01D1002111E0072B02D14FF4807135
:101268000CE002220170427080BD40F20131B2F8F8
:1012780001200180428080BD40F20151018080BD83
:10128800B0B502AF84B0044614F8010B012807D1A9
:101298004BF60C626D46C0F600022846082306E0AD
:1012A8004BF650726D46C0F600022846052308F03A
:1012B8005DFC4BF6407203A9C0F600022846039471
:1012C80007F064F8284607F0D1F804B0B0BDD4D4CC
:1012D800B0B502AF84B004460078DFE800F0050C32
:1012E800132333484D545B0001AC4CF2E402C0F6C2
:1012F8000002062354E001AC4BF6F452C0F600029B
:1013080008234DE001AD4CF2C802C0F600020B23E1
:10131800284608F02BFC4CF2D402601CC0F60002F0
:1013280000901EE001AD4CF2A802C0F600020E23A8
:10133800284608F01BFC4CF2B802601C0090C0F66E
:1013480000020EE001AD4CF28C02C0F60002092347
:10135800284608F00BFC4CF29802601C0090C0F67E
:1013680000026946284607F011F828461CE04CF2AE
:101378008002C0F6000211E001AC4CF27302C0F624
:1013880000020D230CE001AC4CF26402C0F600022E
:101398000F2305E04CF25802C0F6000201AC0C2302
:1013A800204608F0E3FB204607F060F804B0B0BD23
:1013B800F0B503AF2DE9000FE5B001904EF6F050FF
:1013C800CEF200000DF1600900784FF00008012509
:1013D800C0071FBF40F28400C2F200000121017063
:1013E8004BF61040CDF87480C0F600001C904CF20B
:1013F800F800C0F60000CDE91A88189048461995FB
:10140800FFF789FC02AC204602F03AF84ECC484679
:101418004EC094E84E004EC0A8200C9C02F05BFB26
:1014280002F05EFB0DF1340A2294CDE920504946C2
:10143800504602F02EF802F059FB02F08FFB02F042
:10144800C6FB00204FF00D0BC4F20200C16821F06A
:101458000301C160016821F0030101604FF60840F3
:1014680043F60041CFF6FF70C4F201010A5822F09A
:101478000F020A50886840F00100886043F60C406B
:10148800C4F20100026822F001020260086840F01C
:10149800010008600D20022102F069FB5146484610
:1014A8004CC94CC091E85C005CC0142002F012FBEF
:1014B800064640F20840C4F24720C0F800540560D0
:1014C800C0F8008040F60008C4F20008D8F81800F8
:1014D8006BF3CE20C8F81800D8F8000040F0800060
:1014E800C8F80000484602F0EFFA0446484602F001
:1014F800EFFA0546304602F0EFFA002800F00581C1
:10150800E9B2012918BF02216143B1FBF0F0411E85
:101518000A0CC8F82820012202EB114189B20029DF
:1015280000F0F380B0FBF1F0B0F5803F80F0F6807A
:10153800C8F82C000124D8F80000002140F004006D
:10154800C8F80000C8F81440D8F8000020F00400DB
:10155800C8F8000064A8C8F800404FF0000802F07E
:1015680059FB0520052102F0CAFA0620052102F0E0
:10157800C6FA0720052102F0C2FA41F20005C4F2BA
:101588000205E86820F0C000E860686820F00800FC
:101598006860286864F387102860012002F09BFACD
:1015A80002F09EFABAE80E00044648460EC09AE8D1
:1015B8004E004EC043F64400C4F20200016841F4F4
:1015C80080510160484602F081FA43F20401002C80
:1015D800C4F20101C1F8008000F0B380A042C0F05D
:1015E800BA80B0FBF4F2032A02D24FF451701EE025
:1015F800062A02D24FF4537019E00C2A02D24FF493
:10160800557014E0182A02D24FF457700FE0302AB0
:1016180002D24FF459700AE0602A02D24FF45B708C
:1016280005E04FF45F70C02A38BF4FF45D7041F891
:10163800040C086840F020000860082040F20D11F2
:10164800A8610020CDF85B001690CDE9140018A819
:1016580009F0F6FD60AC5CAD4BF6F44240F20110C7
:10166800ADF88001C0F60002284600212346FFF7A6
:1016780089FB9DF87001022879D1012060AC5CAD2E
:101688004BF6F8628DF882014FF44070ADF8800196
:10169800C0F60002284600212346FFF773FB9DF899
:1016A800700102286CD160AC5CAD44F240234FF469
:1016B8008070ADF88001C0F20F0328460021224651
:1016C8004FF00008FFF7E4FC9DF87001022860D194
:1016D80014A8019E90E83C0040F201203146C0F277
:1016E80004003CC118A940F20D12C6F812004FF0D0
:1016F800E060C6F8160006F11B00A6F8108009F095
:10170800ACFC65B0BDE8000FF0BD4BF230704BF299
:101718001472C0F60000C0F600021AE002204BF670
:101728003C038DF880014BF21470C0F6000060AAEB
:1017380000904BF2EE70C0F60000C0F600032B21BB
:101748003AE04BF230704BF2A472C0F60000C0F6DB
:101758000002192108E04BF2B4704BF2DC72C0F6BB
:101768000000C0F60002282106F0E2FBFEDE95E844
:101778004E0020464EC04CF20C10C0F6000010E09F
:1017880095E84E0020464EC04CF21C10C0F60000F2
:1017980007E095E84E0020464EC04CF22C10C0F6EB
:1017A80000004BF65C0300904BF2EE70C0F60003AD
:1017B800C0F600002B21224606F019FBFEDE80B59C
:1017C8006F4602F0CCFAFCE7F0B503AF4DF8048D94
:1017D80082B0804602F0B4FA044602F0B5FA02F08C
:1017E800C7FA40F20D00C2F20000FFF7F7F806460C
:1017F800E0070D4608BF02F0A9FAF00701D1012061
:101808003EE0032060F31F2502F09AFA044602F036
:101818009BFA02F0ADFA40F2300604F00104C2F27D
:101828000006CDE90085306D50B140F230016846C0
:10183800C2F2000101F064FCC0B2FF280FD107E03A
:101848004EF21000CEF20000016841F00201016082
:101858004EF604504FF08061CEF200000160306D0A
:10186800DDE9001246F8301006EBC003316D5A600E
:1018780001313165FEF7E2FF0CB902F067FA00208A
:1018880002B05DF8048BF0BDF0B503AF2DE9000B95
:1018980082B00D46804602F053FA064602F054FA2A
:1018A80002F066FA40F21300C2F20000FFF796F861
:1018B8000446F007894608BF02F048FAE0074AD014
:1018C80040F234205FFA89F6C2F2000040F8268020
:1018D80040F23820C2F20000855502F031FA044681
:1018E80002F032FA02F044FA40F2300506F5A0613F
:1018F800C2F2000504F00104286DCDE9008150B161
:1019080040F230016846C2F2000101F0F9FBC0B2B2
:10191800FF280FD107E04EF21000CEF20000016858
:1019280041F0020101604EF604504FF08061CEF2A2
:1019380000000160286DDDE9001245F8301005EB64
:10194800C003296D5A6001312965FEF777FF0CB98C
:1019580002F0FCF90225284602B0BDE8000BF0BDF4
:10196800F0B503AF4DF8048D8AB001F0D7FB02F053
:10197800F8F90DF1180802AE4CF23C1204460220A8
:10198800C0F60002ADF81800304601214346012593
:10199800FFF7F8F99DF80800022801BF43F6004058
:1019A800C4F201004561016801BF21F00101016035
:1019B80020460AB002BF5DF8048BBDE8F04002F093
:1019C800D4B996E82E0040462EC04CF24010C0F61E
:1019D80000004BF65C0300904BF2EE70C0F600037B
:1019E800C0F600002B21424606F001FAFEDEF0B5F3
:1019F80003AF4DF804BD8CB001F090FB02F0B1F9D3
:101A0800044643F20400C4F201004168C90705D145
:101A180040680321800701EAE07004E0016821F0D2
:101A28004001016004208DF82100032008AD8DF8E5
:101A38002000A81C01A90C2209F00FFB04AE4BF6EC
:101A48006862C0F60002012130462B46FFF79AF97A
:101A58009DF81000022801BF20460CB05DF804BBB9
:101A6800BDE8F04008BF02F080B996E81E0028469D
:101A78001EC04CF25010C0F600004BF65C030090FC
:101A88004BF2EE70C0F60003C0F600002B212A4688
:101A980006F0ADF9FEDEF0B503AF2DE9000F8BB00F
:101AA80040F2160540F2940A40F2BB1B0DF11C08E7
:101AB800C2F20005C2F2000AC2F2000B03A80290AB
:101AC800284601F03AFB044601F031FB697810B171
:101AD800BFF35F8FFFE7C8B2E6B2864200F0E4804A
:101AE800022001F026FB010600F0E680C0B20134B6
:101AF800B6FBF0F101FB106005EB4000468801F0F1
:101B080016FB10B1BFF35F8FFFE7310AF0072C70A7
:101B18002FD140F20D00C2F20000CDE90700404687
:101B2800FEF7ADFFD02002F020F9DAF800000A280D
:101B380052D210215044C4F20201096801F0010197
:101B48004171DAF800000130CAF8000001F0A3FA88
:101B580004464AF28020C0F2190001F0DBFA01467F
:101B6800204601F09EFAFFF72FFE002800F098802B
:101B7800BEE040F23420C2F2000050F8215040F29A
:101B88003820C2F2000010F8019040F21300C2F2AF
:101B98000000CDE907004046FEF771FFE02002F0A3
:101BA800E4F8584602F02AF85E46834600043DD021
:101BB800304602F029F80446304602F011F85FEA90
:101BC800C9704FF000084FF69C701EBFA1B21FFAF3
:101BD8008BF28A4230D02CE0002005211AF801202F
:101BE80001310F291044F9D1052811D940F20120FB
:101BF8004BF6F442ADF81C0003A80421C0F600021D
:101C08004346FFF7BFF89DF80C00022840F080809B
:101C1800002043F600418AF80400C4F20101CAF822
:101C28000000086840F00100086039E0304601F023
:101C3800D7FF4FF0010864200BEB000140F2BB1BFB
:101C4800C2F2000B584601F0E5FF584601F0CFFFFD
:101C58009BF80000012816D14EF28070C0F24C00AB
:101C680001F058FA0146284601F01BFA4146FFF7F1
:101C78000BFE40F216050DF11C08C0B20228C2F294
:101C880000050DD024E0584601F0AAFF584600216F
:101C980001F0C0FF40F216050DF11C08C2F2000564
:101CA800F02002F062F80BE700200BB0BDE8000F4F
:101CB800BDE8F04002F059B84BF280604BF6843230
:101CC800C0F60000C0F60002392106F031F9FEDE48
:101CD8008DF81C004BF67040C0F600004BF62C0344
:101CE80000904BF2EE70C0F60000C0F600030CE066
:101CF8004BF6E4404BF64C03C0F60000C0F6000378
:101D080000904BF2EE70C0F6000007AA2B2113E0FA
:101D1800029D404695E84E004EC04BF6F840C0F68E
:101D280000004BF65C0300904BF2EE70C0F6000327
:101D3800C0F600002B21424606F059F8FEDED4D446
:101D4800F0B503AF2DE9000F81B02DED0C8BA2B0DB
:101D58000DF1440B0BF1020005900BF10500049006
:101D68000BF10400069001F0FCFFB0EE009A40F27F
:101D78001C08B1EE00AA9FEDD88AB1EE08BAC2F2EB
:101D88000008B2EE00CA0790B3EE00DA1EA803906E
:101D9800404601F0D2F9054601F0C9F998F801105A
:101DA80010B1BFF35F8FFFE7C8B2ECB2844200F016
:101DB8004D85082001F0BDF9010600F05185C0B23B
:101DC8000135B4FBF0F101FB104008EB40004488FA
:101DD80001F0ADF910B1BFF35F8FFFE788F800504D
:101DE800E0B24FEA1429DFE810F00500720097000E
:101DF8004E00310540F21621C9EB0910C2F200016C
:101E0800084449464578847840F20A00C2F2000046
:101E1800CDE911005846FEF732FED02001F0A5FFAB
:101E2800022D40F0558340F29406B4FA84F1C2F2D0
:101E38000006307949090028024618BF012241EA04
:101E4800020318BF01EA02032043337140F04083C4
:101E580001F021F9FFF7B8FC002800F039834BF6B0
:101E680010410020C0F6000116901591CDE913002D
:101E7800012012904BF6CC40C0F600001190584655
:101E8800FEF749FF24E340F2F811C9EB0910C2F24A
:101E980000010A5C0844811C447808A802920D22BB
:101EA80009F0DBF840F2060AC2F2000A0AF1010062
:101EB80001F043F9461C05468DF8406001F037F9FA
:101EC8009AF8001000284AD0BFF35F8F47E040F22D
:101ED8002521C9EB0910C2F200010844494645789A
:101EE800847840F21000C2F20000CDE91100584693
:101EF800FEF7C5FD012D7FF44BAF40F2BB10C2F2D7
:101F080000000078002800F0E980022C18BF002C9F
:101F180000F00A81012008E140F2BC11C9EB091068
:101F2800C2F2000140F2000B0A5C0844C2F2000B46
:101F38004478867890F803800BF10100029201F052
:101F4800FCF800F1010A05468DF86CA001F0EFF8E5
:101F58009BF80010002873D0BFF35F8F70E09DF8E6
:101F680040008DF86C10C9B2884200F085840220C8
:101F780001F0DFF8010600F07384C0B2E9B2B1FBEA
:101F8800F0F202FB101040F20601C2F20001084410
:101F980080F8029001F0CBF810B1BFF35F8FFFE734
:101FA80040F20600C2F200004670D02001F0DDFECB
:101FB80008A90CA8032C4CC94CC00978017040F042
:101FC80087820CA817AA40F2A4094AC81546C2F28B
:101FD80000094AC599F80010007828705846FFF79C
:101FE80011F906991BA80A229DF844509DF84560EE
:101FF8009DF846A09DF8474009F02FF889F8005051
:10200800DFE816F06602630207006A012B019001FF
:10201800A80199F80100052840F05A824FF4E060C1
:1020280009F10102ADF844001EA804215B46FEF741
:10203800A9FE9DF87800022800F04A8200F038BC1A
:102048009DF86C008DF82010C9B2884200F03A84DF
:10205800042001F06EF8010600F00284C0B2E9B273
:10206800B1FBF0F202FB101040F20001C2F20001D5
:10207800084480F8029001F05AF810B1BFF35F8F5E
:10208800FFE740F20000C2F2000080F801A0D02073
:1020980001F06BFE4CB1E02001F067FE40F21C0835
:1020A8000DF1440BC2F2000872E640F2B11E8DF841
:1020B8004180C2F2000E8DF840609EF80000D0B357
:1020C800701F0228C0F08880072E00F07D81082E3E
:1020D80040F07381002178E100000038601E02287A
:1020E80022D240F2BB110120C2F20001087000F0B8
:1020F800D2FF0121FFF7C8FBC0B202283FF448AE67
:102108004BF610410020C0F6000116901591CDE95C
:102118001300012012904BF60840C0F60000119001
:102128005846FEF7F8FD33E6002040F2BB11C2F234
:10213800000108702CE6072E00F23F81C2460021FC
:102148004FF08F0C0122DFE816F00B000800E001C9
:10215800F60105023801380140014FF0A80C0622AB
:1021680011A817AB014630C930C304461EAD02980A
:102178008EF80700012009788EF8000040F203105D
:102188008DF847204BF6686219700521ADF84400B8
:102198002846C0F6000223468EF809A08EF808608B
:1021A8008DF846C0FEF7EEFD9DF87800022840F055
:1021B800AD834CF2C0634FF40060ADF8440028468C
:1021C80005212246C0F22D03FEF762FF9DF8780034
:1021D80002283FF460AFA2E311AD17A928460CC846
:1021E8000CC1002302789EF808008EF800300328FE
:1021F8000A703FF650AFDFE810F004000C02490205
:10220800620240F2A4001EACC2F200004BF6686203
:10221800007B05218DF8300040F60300ADF844003E
:102228002046C0F600022B46FEF7ACFD9DF878006C
:10223800022840F07E8301210020CDE91541149049
:10224800CDE912104BF6E060C0F6000011904AF696
:102258007B30C0F600001F90F1E2059D1BA90A2201
:102268008DF845408DF844A0284608F0F6FE40F267
:10227800A40343F20406C2F2000302985870C4F2A1
:10228800010630684FF4002140F04000306041F210
:102298001800C4F20200016083F80B4183F802A021
:1022A80054B10020092800F04D83411C2A5C1844D1
:1022B8008C42C2700846F5D17068410600F1488327
:1022C800810600F14783C10600F14683800740F18B
:1022D800458386F808A0FBE043F20402029889F8D7
:1022E8000100C4F2010210684FF4002340F04000DE
:1022F800106041F21800C4F20200036089F80B4133
:1023080089F802A05068410600F13A83810600F17D
:102318003983C10600F13883800740F1378382F89A
:1023280008A0D5E04846FDF775FFC00740F03683A2
:1023380099F80C0143F20402C4F20102002800F0EB
:102348009D800138FE2800F230834844017399F8D3
:102358000C0194E04846FDF75DFFC00740F02B8371
:1023680099F80C1199F80B01013189F80C11C9B2CF
:10237800814265D199F800104BF62C525846C0F6A8
:102388000002FEF73FFF41F218019DF844004A465B
:10239800C4F2020102F8010B082008604FF4C06083
:1023A800ADF844001EA804215B46FEF7EBFC9DF83F
:1023B8007800022800F0898004E311A817A90CC846
:1023C8000CC10078087066E6012111AC17AA2046F6
:1023D80048C848C200781070704600F8081B1EA94B
:1023E80002221591002116921491CDE912214BF683
:1023F8005861C0F60001119141F2D921C0F60001DF
:102408002191CDE91F1010A81E902046FEF783FCED
:102418009DF8400008287FF43EAE40F203704BF66A
:102428006862ADF844001EA80521C0F600022346E4
:10243800FEF7A8FC9DF8780002283FF42CAECBE20A
:1024480043F20403C4F20103186840F04000186026
:1024580099F80C010A2880F0C982484480785968A4
:102468004A0600F1CB828A0600F1CA82CA0600F148
:10247800C982890740F1C882187229E0002099F8BA
:102488000B11884228D199F800104BF62C52584667
:10249800C0F60002FEF7B6FE41F218019DF84400AE
:1024A8004A46C4F2020102F8010B082008604FF402
:1024B800A060ADF844001EA804215B46FEF762FC4C
:1024C8009DF87800022840F0A7820020A9F80B01A7
:1024D800E02001F04AFC5BE4106840F04000106026
:1024E8005068410600F1AD82810600F1AC82C10658
:1024F80000F1AB82800740F1AA820020107299F89F
:102508000C01013089F80C01E2E70AF0070240F2F9
:10251800B1194FF0240C4FF0000EC2F20009DDF89B
:1025280008A0DFE802F02E03E5EA2E004FF0240CA5
:102538004FF0400E25E09EF80320BAF1000F9EF8F8
:1025480001009EF802109EF8043018BF43F06003A3
:102558001A430DE09EF803209EF8063042EACA02AC
:102568009EF801009EF80210002B18BF42F060028E
:102578001143F146D04641EA000E4FF0200CDDF839
:1025880008A0002017A98DF84C00CDE9110011A86A
:102598000B46024630CA30C30446012089F80000C1
:1025A800022012788DF8470040F20320ADF844006D
:1025B80004981A70092289F8098089F8086089F84E
:1025C80007A08DF848E08DF846C008F046FD1EAD1E
:1025D8004BF668620521C0F6000228462346FEF73E
:1025E800D1FB9DF87800022840F044824CF2C06389
:1025F8004FF40060ADF84400284605212246C0F299
:102608002D03FEF745FD9DF8780002283FF443AD01
:1026180039E240F2A4000DF1780AC2F200004BF64C
:102628006862B0F810900521C489C0F60002868956
:1026380040F60300ADF8440050462B46FEF7A2FBD7
:102648009DF87800022840F0338240F2B110C2F2BF
:1026580000004079DFE800F003566D849B0030B23B
:1026680000EE100A20B201EE100AB8EEC00AB8EE69
:10267800C11A30EE000A31EE011A20EE080A21EEE6
:10268800081A8DED1B0AB0EE490A96E040F2B11126
:102698004BF66862C2F20001C0F60002487A2B4687
:1026A800487140F60310ADF844001EA80521FEF756
:1026B80069FB9DF8780002283FF4EDAC01E240F296
:1026C800B1114BF66862C2F20001C0F60002487A06
:1026D8002B46887140F60310ADF844001EA805216A
:1026E800FEF750FB9DF8780002283FF4D4ACF2E1E5
:1026F8004FF0240C4FF0800E43E74FF0240C4FF0BE
:10270800C00E3EE730B200EE100A20B201EE100A09
:10271800B8EEC00AB8EEC11A20EE0A0A21EE0A1A6B
:1027280020EE080A21EE081A8DED1B0AB0EE4A0ABF
:1027380043E030B200EE100A20B201EE100AB8EE03
:10274800C00AB8EEC11A20EE0B0A21EE0B1A20EED1
:10275800080A21EE081A8DED1B0AB0EE4B0A2CE090
:1027680030B200EE100A20B201EE100AB8EEC00A2C
:10277800B8EEC11A20EE0C0A21EE0C1A20EE080A57
:1027880021EE081A8DED1B0AB0EE4C0A15E030B2A6
:1027980000EE100A20B201EE100AB8EEC00AB8EE38
:1027A800C11A20EE0D0A21EE0D1A20EE080A21EEBC
:1027B800081A8DED1B0AB0EE4D0A8DED081A0FFAB6
:1027C80089F0012601EE100A4BF6B8600024C0F625
:1027D8000000B8EEC11A4AF62D09CDE915A6C0F6D3
:1027E80000091494CDE9126411901BA81E90284684
:1027F800CDF87C9020EE010A20EE080A8DED0C0A37
:10280800FEF789FA4BF6C0601696C0F60000CDE9CF
:10281800144ACDE91264119008A81E902846CDF8F4
:102828007C90FEF778FA4BF6C8601696C0F6000062
:10283800CDE9144ACDE912641190CDF87C900CA82A
:102848001E902846FEF767FAFFF725BC079801F0A7
:102858008CFA22B0BDEC0C8B01B0BDE8000FF0BDC6
:102868004BF280604BF68432C0F60000C0F60002DE
:10287800392105F05DFBFEDE022017A916901EA87F
:1028880015900020CDE91300032012904BF6D030AC
:10289800C0F60000119043F60D50C0F600002190DC
:1028A800CDE91F0110A80C900CA81E901BA824E0CD
:1028B800039D584695E84E004EC04BF6DC50C0F6D6
:1028C8000000B2E0022017A916901EA8159000205B
:1028D800CDE91300032012904BF6D030C0F600006B
:1028E800119043F60D50C0F600002190CDE91F016C
:1028F8001BA80C900CA81E9008A84BF684311790C2
:1029080011A8C0F6000105F04CFBFEDE95E84E006C
:1029180020464EC04BF60C70C0F60000BCE0039D8C
:10292800204695E84E004EC04BF61C70C0F60000DD
:10293800B2E094E84E0028464EC04BF6D060C0F690
:102948000000D1E04BF6AC520A20C0F6000251E07C
:10295800002004E0012002E0022000E004208DF8BD
:1029680078004BF6BC50C0F600004BF61C030090F4
:102978004BF2EE70C0F60000C0F600031EAA77E026
:10298800002004E0012002E0022000E004208DF88D
:1029980044004BF6CC50C0F600005FE04BF66C509C
:1029A8008DF84410C0F6000058E04BF67C52FF2129
:1029B800C0F600021FE04BF61C508DF84410C0F61C
:1029C80000004BE0039D584695E84E004EC04BF67C
:1029D8003C50C0F6000028E0039D204695E84E00D4
:1029E8004EC04BF67860C0F6000055E04BF64C52EE
:1029F800C0F600020A2105F0B3FAFEDE002004E06A
:102A0800012002E0022000E004208DF844004BF68B
:102A18005C50C0F6000021E0039D584695E84E0042
:102A28004EC04BF68C50C0F600004BF65C0300908D
:102A38004BF2EE70C0F60003C0F600002B215A4698
:102A48005DE0002004E0012002E0022000E0042014
:102A58008DF844004BF69C50C0F600004BF61C0362
:102A680000904BF2EE7011AAC0F60000C0F6000309
:102A78002B2144E095E84E0020464EC04BF6E86016
:102A8800C0F6000008E0039D204695E84E004EC0C1
:102A98004BF6FC60C0F600004BF65C0300904BF26E
:102AA800EE70C0F60003C0F600002B21224626E097
:102AB8009AE84E0028464EC04BF6A860C0F60000C3
:102AC80012E0039C284694E84E004EC04BF69860EE
:102AD800C0F6000008E0039C284694E84E004EC06B
:102AE8004BF68860C0F600004BF65C0300904BF292
:102AF800EE70C0F60003C0F600002B212A4605F050
:102B080076F9FEDEF0B503AF2DE9000F87B04EF27F
:102B1800100840F2300540F21C090DF1140ACEF2FB
:102B28000008C2F20005C2F2000901F009F90446E2
:102B380001F00AF901F01CF9286D0394D8B128684E
:102B4800049000F0EBFA059004A8514600F0D8FA7A
:102B5800C0B2FF2817D000F0DEFA06460C46DDE9C1
:102B6800040100F0B1FA00F0D4FAA0FB060111B399
:102B78006FF07F402DE0D8F80000002620F002001A
:102B8800C8F800002AE0286D002800F00581B0F19F
:102B9800010A05EBCA004068C5F850A020D06E684D
:102BA800BAF1010F55F83A1002900191C5E90010E9
:102BB80019D100244AE0002C00F0F880844201D9A1
:102BC800012006E0B0FBF4F06FF07F41884228BF97
:102BD80008460026C8F80400C8F8086006244AE039
:102BE800040A064645E04FF000094FF0010808F1D5
:102BF8000104544513D2C14518BFA14500F0AD806A
:102C080005EBC80005EBC40100F071FA5FFA80FB20
:102C180000F095FAC0B2834508BF444600E0444638
:102C2800A14500F0A380A24540F2AA8005EBC401AB
:102C380055F83400496845F8390005EBC900A14644
:102C48004160600000F10108D045D0D3019845F8F3
:102C5800340005EBC400029941602046FDF7EEFD03
:102C68004EF2100840F21C09340ACEF20008C2F2F3
:102C780000090DF1140A039810F0010008BF01F0D3
:102C880065F8E0B2DFE800F004331C28104A65005C
:102C980001F056F8044601F057F801F069F850467B
:102CA8000221CDE905992DE001F04AF8044601F02A
:102CB8004BF801F05DF8CDE905995046012121E076
:102CC80001F03EF8044601F03FF801F051F8CDE973
:102CD80005995046002115E001F032F8044601F04C
:102CE80033F801F045F840F21600002120E001F029
:102CF80027F8044601F028F801F03AF8CDE90599DB
:102D0800504603213246FDF796FFE00708BF01F061
:102D18001DF84FF40030C8F8F40106E701F010F888
:102D2800044601F011F801F023F840F216000121E1
:102D3800C2F20000CDE9050050463246FDF70BFF10
:102D4800E00708BF01F002F84FF40040C8F8F801A6
:102D5800EBE607B0BDE8000FF0BD4BF65C104BF694
:102D6800E012C0F60000C0F6000207E04BF65C1067
:102D78004BF66022C0F60000C0F60002232108E0EE
:102D88004BF6F0104BF67022C0F60000C0F60002B9
:102D9800292105F0CDF8FEDE4BF680204BF60432F3
:102DA800C0F60000C0F600022D21F2E74BF23070A9
:102DB8004BF6D002C0F60000C0F600021921E8E781
:102DC80080B56F46CAB0FDF737FDFDF7CDFCFDF7BE
:102DD80096FCFDF7F2FCFDF7C0FCFDF7FCFCFDF7E7
:102DE800F3FC40F291000124C2F200004EF21005FB
:102DF80004704EF20640CEF20000F02180F849102F
:102E0800CEF200054FF400414022C5F8F810E02149
:102E180080F82B104FF40031C5F8F410D021017060
:102E2800C5F8F02041770820C5F8F400E020FDF748
:102E3800E9FC286840F004002860286840F0010098
:102E480028604EF6FC50CEF20000016841F0807117
:102E58000160FDF7C7FC00F067F940F290006E468C
:102E6800C2F2000004703046FEF7A2FA314640F282
:102E7800940091E83C00C2F2000040F2BB11C2F29B
:102E880000013CC00A229DF81000087040F2B11001
:102E980006F11101C2F2000008F0DFF840F2A400C8
:102EA80006F11B01C2F2000040F20D1208F0D5F83D
:102EB800FDF7C0FCFEF783FCFEDE80B56F4682B0EE
:102EC80000228029019203D28DF8041001222FE0FC
:102ED80002220B4662F39F13B1F5006F05D28DF8FD
:102EE8000530C02343EA911120E0B1F5803F0DD2AF
:102EF8008DF806308B0962F39F13E02242EA113104
:102F08008DF805308DF80410032211E08DF8073094
:102F18008B0962F39F138DF806300B0B62F39F1336
:102F2800F02242EA914104228DF805308DF8041010
:102F380001A900F079F802B080BDF0B503AF4DF8F3
:102F480004BD88B0019002AA91E878504CF2FC11B7
:102F58001046C0F6000180E8785001A805F0D1FFBE
:102F680008B05DF804BBF0BD70470068FFF7A5BF67
:102F7800F0B503AF4DF804BD88B0006802AA01900F
:102F880091E8785010464CF2FC11C0F6000180E838
:102F9800785001A805F0B5FF08B05DF804BBF0BD96
:102FA800006800F041B8F0B503AF2DE9000B88B018
:102FB800814600F0C5FE054600F0C6FE00F0D8FECA
:102FC80040F2880205F00108C2F2000210680128E8
:102FD80010D0032002A90490042003904BF68A70B5
:102FE800C0F60000012502900120ABBE411C11D0A3
:102FF800C2E90050101D019002AA99E87A10104603
:1030080080E87A104CF2FC1101A8C0F6000105F026
:1030180078FF0546B8F1000F08BF00F097FE284674
:1030280008B0BDE8000BF0BDE2B180B56F4683B0D3
:10303800D0F800C0052002928E46CDE900C169464D
:10304800ABBE68B1694682420ED303460290101A9D
:103058001A4686440520CDE900CEABBE0028F2D141
:10306800002002E000207047012003B080BD83B03B
:10307800032069460290042001904BF68A70C0F63E
:10308800000000900120ABBE01460130B0FA80F08C
:10309800400903B0704741F20400CEF20000006816
:1030A8007047B1F1FF3FC4BF0844704780B56F4611
:1030B8004CF2AC204CF2D422C0F60000C0F600025C
:1030C800272104F035FFFEDE401AB0F1FF3FC8BFEC
:1030D800704780B56F464CF27A204CF29C22C0F6BD
:1030E8000000C0F60002212104F022FFFEDE09687C
:1030F8000068401A18BF012048BF4FF0FF307047E2
:1031080009680068401A18BF012048BF4FF0FF3017
:1031180070477047704701200121704741F2040051
:10312800CEF200000068704700207047704700200A
:103138007047FF2828BFFF20704700787047FF209E
:103148007047F0B503AF2DE9000F85B0D1E9004A0B
:10315800D2E900E396685445039300F282800A7A24
:10316800002A7ED1D1E9032346F60049D1F814B0EC
:10317800C0F2DC29544504933DD2CDE90106D2F8CA
:103188000080B8F1000F00F08A8004FB09F1002CE0
:1031980070D0DBF80020002A75D0B1FBF8F000FBF6
:1031A80008F5B5FBF4F0B5FBF2F2A9EB00030498BF
:1031B8000668BEEB030018BF01209E4538BF4FF0DC
:1031C800FF30B6EB020C04F1010248BFCCF1000C51
:1031D80030B9039DB5EB0C0018BF0120654505DB30
:1031E800C0B2012804BFCDE9024C9E46494492452D
:1031F8001446CCD104E034D1CDE90106D2F80080E0
:10320800B8F1000F4BD0BAF1000F33D0DBF8002033
:10321800CAB30AFB09F0B0FBF8F000FB08F3B3FBF4
:10322800FAF0B3FBF2F2A9EB00010498BEEB01053A
:10323800066818BF01258E4538BF4FF0FF35B21A12
:1032480048BF5242DDE901062DB9039B9D1A18BFFC
:103258000125934205DBEBB2012B02BF56460392D0
:103268008E460399C0F800E0C0E9011605B0BDE834
:10327800000FF0BD4CF270304CF25832C0F600002E
:10328800C0F6000207E04CF270304CF20052C0F673
:103298000000C0F60002192104F04AFEFEDE4CF2DE
:1032A80070304CF2F042C0F60000C0F60002F2E7BF
:1032B800F0B503AF2DE9000BD0E9003E73452FD8D8
:1032C800057A6DBBD0E903C8734515D2D8F80090CC
:1032D800DCF800504BB39D4230D3B5FBF3F05E1CD5
:1032E800B9FBF0F404FB109088423CBF1A46014633
:1032F800B6453346EED100E012D1BEF1000F14D02E
:10330800DCF80030734519D3D8F80000B3FBFEF39E
:10331800B0FBF3F606FB130088423CBF7246014639
:1033280008461146BDE8000BF0BD4CF270304CF277
:103338005832C0F60000C0F6000207E04CF27030C8
:103348004CF2E042C0F60000C0F60002192104F079
:10335800EFFDFEDE0A46D0E90031184600F000B85D
:10336800F0B503AF2DE9000B84B0054610460C46B6
:1033780006F014FCCDE900017CB14CF28C3803AEA8
:10338800C0F60008E946484631464246039505F02E
:1033980004F9013C05F10105F5D1684605F004F989
:1033A80004B0BDE8000BF0BDD0B502AF0B68D3F890
:1033B80000E0BEF1000F1ED032B38B68D3F800C016
:1033C800BCF1000F29D046F600434968C0F2DC235F
:1033D800826002FB03F40968B4FBFEF404FB0EF4FC
:1033E800B4FBF2F29A1A0260B4FBFCF2891A48BFE5
:1033F80049424160D0BD4CF270304CF2F042C0F608
:103408000000C0F6000210E04CF270304CF2583266
:10341800C0F60000C0F6000207E04CF270304CF233
:103428000052C0F60000C0F60002192104F080FD29
:10343800FEDE80B56F46C9B1026812688A4221BFB4
:103448004068B2FBF1F20068B0FBF2F324BF03FB63
:10345800120080BD4CF270304CF2E042C0F6000021
:10346800C0F60002192104F063FDFEDE4CF2703054
:103478004CF25832C0F60000C0F60002F2E770477E
:10348800002180F82810016281610161816001607A
:103498007047F0B503AF2DE9000FA3B0D1E900A53F
:1034A800804646F6004C43F6000BBAF1000F04BF05
:1034B80042F20045C0F2F405D1E90809C0F2DC2C5B
:1034C8000895C4F2020B002808BFA946CDF824903D
:1034D800A94504BF91F82800002800F00F81B9F130
:1034E800000FCDF810A000F098824DF68360C4F26A
:1034F8001B30A5FB00624CF60046C1F6BF16B6FBB2
:10350800F9F626F0010A48F27F46C0F21E06BAF123
:10351800080F28BF4FF0080AAC1991F828600AFB79
:1035280009F30591A4FB0001CDF828A030466046B8
:103538000696002E029308BF18460B900BA8119010
:1035480008A810900020C90C8DF83C00900CB1EB35
:10355800924F0E900D9100F269828142CDF8008061
:10356800079502D2481C0D9002E001208DF83C001E
:103578000DF1340808F10C000390FFF75AFF8E464E
:1035880041460DF1680B91E87C0084465846614637
:103598007CC0584672465C46FFF78AFE002900F058
:1035A8004F82089E44F2402343F6000BC0F20F03FB
:1035B800B6FBF1F0C4F2020BA0F574220C90A2F550
:1035C80010729A4200F24582069AA2B30AA8129093
:1035D80009A811900CA81090002002918DF83C00C9
:1035E80009200DF14C0A03990E9005200D905046C4
:1035F8000422FFF7D9FE2146204698E87C1080E88F
:103608007C1020AA9AE86800104668C016A8FFF740
:1036180098FD0C98002800F02F82189946F600456E
:10362800C0F2DC25DDF828A0DDF800806943B1FB95
:10363800F0F402990BE0DDF80080B14200F2388224
:10364800029A46F60045C0F2DC25B2FBF0F404FB12
:103658000052531E49F68172C1F25E62AB42A3FB6F
:103668000262C0F0008247F6C073049E03EA841524
:103678004FF00053002E18BF4FF0015301F03F06E2
:103688006043334459194FF4403303EACA33920D67
:1036980003F5403303F44033194402F00F0341EAC1
:1036A8000361CBF80410079B994502D1099E05993F
:1036B80006E00599BAF1000F00F0E781B0FBFAF6D1
:1036C800DDF810A0B0FBF2F09945019005D100207B
:1036D800012405903546012316E0A6F1B77044F29F
:1036E8000042A0F55850C0F69502904200F2D681EB
:1036F8000020012300243546059005E00020012420
:103708000690012005900023D1E90202002808BF95
:103718002A46002A00F03781A5F1010E03930EEB2B
:103728000200B0FBF2F2012A0FD0022A09D0002AC7
:1037380000F03281D01E032836D24FF0900C0422BC
:1037480005E04FF0800C022201E04FF0000C4DF62E
:103758008066D1E90403B5FBF2F9C0F28026B145D1
:10376800324638BF4A46002818BF1A46002A00F0D9
:103778001C81A9F1010304949818B0FBF2F2012A04
:103788000FD0022A09D0002A00F01881D01E032881
:1037980012D204204FF4A05219E002204FF48052B4
:1037A80015E00120002212E0901F062880F0BB805F
:1037B8004FF0A00C0822CAE7901F4FF4E0520628E9
:1037C8004FF0100038BF4FF4C05238BF0820B9FB83
:1037D800F0F40795B442029000F2F9804BF60050DD
:1037E800D1E90656C0F201508145014638BF494625
:1037F800002D18BF3146002900F0F2800B44B3FBBE
:10380800F1F3012B0FD0022B09D0002B00F0F1802F
:10381800D91E03290AD204254FF4204310E00225BB
:103828004FF400430CE00125002309E0991F4FF4F1
:1038380060431025062938BF4FF4404338BF082598
:10384800B9FBF5F6864200F2DE8045F2C7414FEA41
:10385800DE10C0F21E11BAF1000FA0FB0101DBF867
:1038680000044FEAD0004FEA912160F3DF0141F4F0
:10387800E060CBF8000409D0DBF8000040F48030A9
:10388800CBF80000DBF800008003FBD5059848B9A9
:10389800DBF8000040F08070CBF80000DBF8000097
:1038A8008001FBD5DBF8081042EA0C004FF6F04225
:1038B800184391430843CBF80800102000F048FA59
:1038C800DBF80800049920F00300002908BF4FF036
:1038D800020A5044CBF80800029888F818000798A4
:1038E80088F81950C8E90094C8F80C000398C8F87B
:1038F800100001990698C8F80860C8F8141070B14B
:103908000598B0BB46F60040C0F2DC20401A4DF2E4
:10391800C14148BF4042C0F20101884229DA23B0C0
:10392800BDE8000FF0BDA2F10C001C2803D24FF037
:10393800B00C10220BE7A2F12800382803D24FF070
:10394800C00C402203E7A2F16000602803D24FF0C8
:10395800D00C8022FBE6A2F1C0004FF0F00C4FF42F
:103968000072C02838BF4FF0E00C38BF4FF48072A7
:10397800EDE64CF208604CF23462C0F60000C0F686
:1039880000022C219DE04CF270304CF27052C0F6CF
:103998000000C0F6000293E04CF244604CF28C62E6
:1039A800C0F60000C0F600022BE04CF270304CF27A
:1039B8008052C0F60000C0F6000281E04CF244607C
:1039C8004CF27C62C0F60000C0F6000219E04CF22E
:1039D80090504CF2B452C0F60000C0F600021AE053
:1039E8004CF270304CF2C452C0F60000C0F600022F
:1039F80066E04CF244604CF26C62C0F60000C0F61F
:103A0800000228215DE04CF2D4504CF2F852C0F686
:103A18000000C0F60002242153E04CF270304CF252
:103A28002442C0F60000C0F6000249E04CF29C3087
:103A38004CF23442C0F60000C0F600022B2140E0F0
:103A48004CF270304CF24442C0F60000C0F600025E
:103A580036E04CF254404CF29042C0F60000C0F6FA
:103A680000023C212DE04CF270304CF2C042C0F60E
:103A78000000C0F6000223E04CF270304CF2A04285
:103A8800C0F60000C0F600021AE04CF270304CF2AA
:103A9800D042C0F60000C0F6000211E04CF210500F
:103AA8004CF26052C0F60000C0F60002502108E057
:103AB8004CF270304CF2B042C0F60000C0F6000282
:103AC800192104F035FAFEDE4068704780687047B7
:103AD800007E7047704770474FF47A7148437047CB
:103AE80044F24021C0F20F014843704743F63000CA
:103AF800C4F20200016841F0010101607047D0B5CD
:103B080002AF00248300C4F20204202B0BD201FA76
:103B180003FE0F21D4F820C099402CEA010141EAA4
:103B28000E0121620CE003F01C03D4F824C001FA52
:103B380003FE0F2199402CEA010141EA0E0161625E
:103B48001E2101EA4000022123680322814002FA73
:103B580000F023EA000008432060D0BD43F630009F
:103B6800C4F20200016841F0080101607047D0B555
:103B780002AF40F600448300C4F20204202B0BD2AB
:103B880001FA03FE0F21D4F820C099402CEA010164
:103B980041EA0E0121620CE003F01C03D4F824C0B2
:103BA80001FA03FE0F2199402CEA010141EA0E01B6
:103BB80061621E2101EA400002212368032281403C
:103BC80002FA00F023EA000008432060D0BD43F663
:103BD8003000C4F20200016841F010010160704732
:103BE80040F210400021C4F201200160704740F209
:103BF80010400121C4F201200160704740F63800EE
:103C0800C4F200000068704740F62C00C4F20000BF
:103C18000068704788B240F63801C4F200010860B5
:103C28007047D4D4D0B502AF84B00078DFE800F094
:103C38000217091001AC4CF2AA62C0F60002072371
:103C480013E001AC4CF29C62C0F6000203230CE0C6
:103C580001AC4CF29F62C0F600020B2305E001ACF8
:103C68004CF2B162C0F600020923204605F07EFF3F
:103C7800204604F0FBFB04B0D0BDD4D4D0B502AFCD
:103C880084B00078DFE800F00215070E4BF63462C6
:103C9800C0F6000203E04BF62C62C0F6000201AC4D
:103CA80008230CE001AC4CF2BA62C0F6000209230A
:103CB80005E001AC4CF2C362C0F6000203232046C3
:103CC80005F054FF204604F0D1FB04B0D0BD80B508
:103CD8006F46FFF775F8FEDEFEE77047C1B20F20AA
:103CE800DFE801F00406080A0C0E0F0004207047F4
:103CF80005207047062070470B2070470C2070473E
:103D08000E207047B0B502AF056808460C4605F0AE
:103D180018FF28B128462146BDE8B04006F095BDF9
:103D2800204605F012FF28B128462146BDE8B040DC
:103D380006F0BBBD28462146BDE8B04006F019BFD5
:103D480000F00AB800BE704772B6704762B6704796
:103D580040080138FDD17047EFF31080704730BF3D
:103D68007047EFF31180C0B2704780F31188704735
:103D780070470068FEE77047F0B503AF2DE9000F04
:103D880083B011F007020E4681466DD0D9F80000C5
:103D9800292880F01981A8B14CF27C73C0F6000381
:103DA80053F822B06FF0030303EB800401230C2CBB
:103DB80003EB940509F1040305F0030104D200257F
:103DC80069BB44E000204DE025F003054FF0000EEC
:103DD8006D420296CDE90019D3E90061D3E90224C6
:103DE800A1FB0B19A6FB0B6AA2FB0B2C16EB0E060C
:103DF800A4FB0B4851EB0A0152EB0902C3E900612D
:103E080054EB0C0448F1000E0435C3E9022403F115
:103E18001003E1D1029E7546DDE90019B9B1D3F866
:103E280000804FF0000E00240129E8FB0B5E1D60A6
:103E38000DD05A680229E2FB0BE4C3F804E0A64659
:103E480005D09A684FF0000EE2FB0B4E9C60BEF165
:103E5800000F07D0272800F2C38009EB800101304A
:103E680041F804EFC9F80000300769D5D9F800E037
:103E7800BEF1290F80F0AB80BEF1000F15D06FF0B6
:103E88000300012100EB8E004EF2001809F1040234
:103E9800002401EB9001C0F2F55801F0030C0C2846
:103EA80006D2BCF1000F29D13EE04FF0000E45E0EC
:103EB80021F00300CB464142029692E861020023BA
:103EC800E0FB0843A5FB080510EB030A45F10003D6
:103ED8000025E6FB0835C2E9004AA9FB0860AD19D0
:103EE80040F100040431C2E9023502F11002E4D1C4
:103EF800029E2146D946BCF1000F15D0106800215A
:103F08000025BCF1010FE0FB084114600CD050689B
:103F1800BCF1020FE0FB08155160294604D09068F7
:103F28000021E0FB0851956041B1BEF1270F5AD836
:103F380009EB8E000EF1010E40F8041FC9F800E0ED
:103F4800F0060CD4B00614D470061CD4300624D461
:103F5800F0052CD4484603B0BDE8000FF0BD4CF284
:103F6800CC714846C0F60001022206F0CFFAB0062E
:103F7800EAD54CF2D4714846C0F60001042206F096
:103F8800C5FA7006E2D54CF2E4714846C0F6000165
:103F9800072206F0BBFA3006DAD54CF6000148468F
:103FA800C0F600010E2206F0B1FAF005D2D54CF6A3
:103FB80038014846C0F600011B2206F0A7FA484619
:103FC80003B0BDE8000FF0BD4DF64C5202E04DF6CF
:103FD8004C527046C0F60002282105F0C3FEFEDEF2
:103FE8004DF64C5202E04DF64C527046C0F60002B7
:103FF800282103F0B5FFFEDEF0B503AF2DE9000F71
:10400800ADF2BC5DD1E90094009059EA04001A931E
:104018001C9201F0C783D1E9028658EA060001F034
:10402800CA83D1E9043B53EA0B0001F0D08319EBB2
:1040380003024FF0000054EB0B0250F1000241F074
:10404800D283B9EB080274EB060240F10000D0F10C
:10405800010041F0D4831A9825931128C1F0DB831D
:1040680091F91A00A7F1C00A1990088BA021249091
:10407800504607F0E5F80220002C08BF01202790E1
:1040880057F8BC0C514618BF204647F8BC0C27A867
:10409800A0220430022547F8C09C269007F01CF89F
:1040A8005046A02107F0CCF8022047F8C08C002E1B
:1040B80008BF01205090514657F8BC0C4FF0A002A1
:1040C80018BF304647F8BC0C50A804301B9007F0C6
:1040D80003F85046A02107F0B3F8BBF1000F08BF62
:1040E800012557F8BC0C514679954FF0A002249D44
:1040F80018BF584647F8BC0C79A80430259E47F8E5
:10410800C06C059006F0E8FF01209C21CDE9A200D3
:10411800A2A8083007F094F819EB060044F64253B9
:1041280044EB0B010138B0FA80F071F1000100F1A5
:10413800200228B218BFB1FA81F2811A45F2800232
:10414800C4F61053C4F213421324C1FB03240028FD
:1041580021B201910AD427A8294606F020F950A8CF
:10416800294606F01CF979A8294602E0404201B226
:10417800A2A806F014F90198A7F1C006B0F1FF3F14
:1041880002DDA2A8A1B20BE0404205B227A8294649
:10419800FFF7F2FD50A82946FFF7EEFD79A829465A
:1041A800FFF7EAFD2699301D279CA02247F8C04C4E
:1041B8001E9006F091FFDDF8E4E122947445704604
:1041C80088BF2046292881F09D820DF5F27CCDF824
:1041D8008CE068B1421E4FF00009032A00F0030189
:1041E8002591249006D200230022A7F1C00E29E0D1
:1041F800002363E020F0030AA7F1C00E0023002289
:104208000EEB82040CEB820103F0010304F1040CB1
:10421800013BD1E901659CE8081102F104027341F0
:10422800D1E903B155EB080520695CEB0B060DF5E8
:10423800F27C484104F1040168C149F10003924548
:104248002061DDD1259C764654B30CEB820006EB49
:104258008201013B4FF0000E40684D68684148609C
:104268004EF10003012C1BD0501C013B0CEB8001CC
:1042780006EB800049684568694141604EF10003DA
:10428800022C0DD0901C013B0CEB800106EB80004A
:1042980049684268514141604FF0000040F1000315
:1042A800D807DDE923E309D0A2AA272B01F2C882A7
:1042B80006EB830001330121416000E0A2AADDF88A
:1042C80088C247F8C03C9C4588BF6346292B81F0CB
:1042D8002081101D259002EB8300C6F1000B011D03
:1042E800301FC6F1080A4FEA83094FF00008064656
:1042F8002493CDE9170ACDF858B0C14500F0C58020
:1043080006EB09050B4653F8040D6A68841A18BFB2
:104318000124904238BF4FF0FF34CCBB259883422C
:1043280000F0B8800B4656F8090053F8082D141A07
:1043380018BF0124824238BF4FF0FF3444BB259890
:10434800834200F0AB800B4655F8042C53F80C0D53
:10435800841A18BF0124904238BF4FF0FF34BCB90B
:104368002598834200F0928151F8100D0AF1100A45
:1043780055F8082C103E0BF1100B08F11008841AA0
:1043880018BF0124904238BF4FF0FF34002CB4D03E
:10439800199A229B60B29042C0F28681292B81F043
:1043A800B880CDF890C083B16FF00300012100EB15
:1043B80083000C2801EB900202F0030E0CD20025BA
:1043C800269BBEF1000F30D14AE00021509827917A
:1043D80029286ED301F096B922F00300269B4642A5
:1043E8004FF000094FF00A08D3E900B4D3E90215E9
:1043F800A4FB0840A5FB08CAABFB085BA1FB08129D
:1044080015EB090554EB0B044841C3E900545CEB78
:1044180002014AF100090436C3E9020103F110035D
:10442800E2D14D46BEF1000F1AD018680A244FF0A9
:1044380000090026BEF1010FE0FB04591D600FD0F2
:104448005868BEF1020FE0FB0496C3F80490B14629
:1044580006D098684FF000090A21E0FB01699E60C8
:10446800B9F1000F1ED0229927A8DDF88CE0272982
:1044780001F2EF8100EB8100013140F8049F509870
:104488002791292815D301F03DB92498CBEB80005A
:10449800011DFEE02498CBEB8001FAE0249806EB9E
:1044A8008001F6E0DDE9221E50982791292881F045
:1044B800298170B16FF00301012201EB80010C2901
:1044C80002EB910303F003020DD200241B9E9ABB5A
:1044D8004CE00020BEF1290F50905AD34DF64C52B3
:1044E800704601F050B923F003011B9E4D424FF076
:1044F80000084FF00A0E2292D6E900B2D6E902135C
:10450800A2FB0E24A3FB0EA9ABFB0E3BA1FB0E1CCA
:1045180013EB080352EB0B026141C6E900325AEB78
:104528000C0449F100080435C6E9021406F1100626
:10453800E2D1229A4446CAB131684FF00A0E4FF0D0
:1045480000080025012AE1FB0E4834600ED071688E
:10455800022AE1FB0E85C6F80480A84606D0B16899
:104568004FF000080A22E1FB0258B560B8F1000FCD
:1045780000F08480DDF88CE0272801F2738150A9CF
:1045880001EB8001013041F8048FBEF1290F5090F2
:10459800A4D2BEF1000F10D06FF00300012100EB90
:1045A8008E000C2801EB900202F0030C08D20025C3
:1045B800059BBCF1000F2ED148E04FF0000E58E0EB
:1045C80022F00300059B46424FF000084FF00A0E08
:1045D800D3E900A4D3E90215A4FB0E40A5FB0EB94C
:1045E800AAFB0E5AA1FB0E1215EB080554EB0A04A0
:1045F8004841C3E900545BEB020149F10008043665
:10460800C3E9020103F11003E2D1DDF88CE045466D
:10461800BCF1000F1AD018680A244FF000080026D1
:10462800BCF1010FE0FB04581D600FD05868BCF1C5
:10463800020FE0FB0486C3F80480B04606D09868F1
:104648004FF000080A21E0FB01689E60B8F1000FF6
:104658000FD0DDF890C0BEF1270F01F20B8179A8C9
:1046680000EB8E000EF1010E40F8048FCDF8E4E166
:104678001DE0DDF890C0CDF8E4E118E0DDF88CE04D
:10468800BEF1290F5090FFF484AF27E72498CAEBB6
:1046980080011E98199A0C1A229B18BF4FF0FF34FC
:1046A80060B29042BFF67AAE019801300190259C25
:1046B8000DF54B7808F10400A022CDF82CC3214653
:1046C800049006F009FD4046012105F068FEA29815
:1046D800F4AEF490301D2146A022039006F0FCFCB5
:1046E8003046022105F05BFEA2980DF27445CDF824
:1046F8007404281D2146A022029006F0EDFC2846ED
:10470800032105F04CFEDDF874342799069399428D
:1047180088BF0B46282B00F2FC86A2A80A46C0F1E7
:104728000801C0F10400149050A81591C0F10801C7
:10473800C0F104001290C8F108001190A8F104001B
:104748001090C8F100000F90C6F108000E90301FBD
:104758000D9070420C90C5F108000B90281F0A902C
:1047680068420990A29890461F90CB980890F498B8
:1047780007900020209027A813910DF1240E20996E
:10478800219100EB83010C1D9EE8004C4FEA830C3D
:104798004FF000092493CC454DD00BEB0C05214676
:1047A80051F8043D6E689A1B18BF0122B34238BF06
:1047B8004FF0FF32BABB2698814241D021465BF8C0
:1047C8000C3051F8086DF21A18BF01229E4238BF0A
:1047D8004FF0FF323ABB2698814235D0214655F832
:1047E800046C51F80C3D9A1B18BF0122B34238BF24
:1047F8004FF0FF32BAB92698814229D054F8101DDB
:104808000EF1100E55F8083CABF1100B0AF1100A26
:1048180009F11009CA1A18BF0122994238BF4FF08E
:10482800FF32002AB7D0249B27ACD1B201291BD96B
:104838000021434697E0249BCAEB830104310AE038
:10484800249BCAEB830106E0249B0BEB830102E067
:10485800249BCEEB8301029A27AC8A1A18BF4FF02B
:10486800FF32D1B20129E3D8002B7AD05A1E03F0C7
:104878000300032A239004D200224FF0010927A83D
:104888002FE023F0030E27A800224FF001094FF074
:1048980000080DF2744100EB820301EB820503F17D
:1048A800040CD5E901410432D5E903BA09F0010540
:1048B800013D6FEA01019CE860126FEA04046C4153
:1048C8006FEA0B0571416FEA0A0655EB090556EBCD
:1048D8000C06C3E9014148F100099645C3E90356AE
:1048E800D7D1239E4FF0000C0446AEB30DF27441AD
:1048F80004EB820301EB8201B9F1010558684968AC
:104908006FEA0101414159604CF10009012E23D0A1
:10491800511C0DF27443B9F1010503EB810304EB5B
:1049280081015B6848686FEA030343414B604CF1BF
:104938000009022E10D0911C0DF27442B9F1010643
:1049480002EB810204EB810152684B686FEA0202B4
:104958005A414A604CF10009249B5FEAC97100F092
:10496800D886082127932391079924938B420846D8
:1049780088BF1846292880F0C58604EB8001DDF839
:1049880038A0DDE90CB90E1D229080004FF0000E12
:10499800704551D009EB0002334653F804CDD2F8E4
:1049A8000480BCEB080518BF0125C44538BF4FF08B
:1049B800FF35BDBB26998B4243D0334659F800409A
:1049C80053F8081D0D1B18BF0125A14238BF4FF031
:1049D800FF353DBB26998B4237D0334652F8044CFD
:1049E80053F80C1D0D1B18BF0125A14238BF4FF00D
:1049F800FF35BDB926998B422BD056F8101D0AF108
:104A0800100A52F8082CA9F110090BF1100B0EF13D
:104A1800100E8D1A18BF0125914238BF4FF0FF358F
:104A2800002DB5D0229A0DF19C0E0DF57479E9B2DE
:104A380001291DD9249A90E0229ACBEB82010431F6
:104A48000AE0229ACBEB820106E0229A09EB820166
:104A580002E0229ACAEB820103980DF19C0E0DF533
:104A680074790D1A18BF4FF0FF35E9B20129E1D862
:104A7800002A6DD0511E02F003000329249002D2AF
:104A8800002301212DE022F00308002301214FF02B
:104A9800000C09EB830601F00101D6E901540EEB85
:104AA80083020139D6E903A9D2E901166FEA040B9A
:104AB8006FEA0505D2E90304694103F1040356EBE3
:104AC8000B056FEA0A0670416FEA09067441C2E9EC
:104AD80001154CF100010DF574799845C2E90304FC
:104AE800D7D1249D4FF0000C75B309EB83000EEB72
:104AF80083020139406854686FEA000060415060E1
:104B08004CF10001012D1FD0581C013909EB80021E
:104B18000EEB8000526846686FEA020256EB02010B
:104B280041604CF10001022D0ED0981C013909EBAF
:104B380080020EEB8000526843686FEA020253EB72
:104B4800020141604CF10001229AC80700F0E1859A
:104B58002398279240F004002390089822928242DA
:104B680088BF1046292880F0CD850EEB8001DDF83E
:104B780044A0DDE90FB80E1D4FEA80094FF0000C84
:104B88002490E1454FD008EB0902334653F8044D11
:104B98005168651A18BF01258C4238BF4FF0FF35A0
:104BA800BDBB26998B4244D0334658F8091053F8B8
:104BB800084D651A18BF01258C4238BF4FF0FF35E4
:104BC8003DBB26998B4239D0334652F8044C53F8F2
:104BD8000C1D0D1B18BF0125A14238BF4FF0FF3532
:104BE800BDB926998B422ED056F8101D0AF1100A2D
:104BF80052F8082CA8F110080BF1100B0CF1100C4E
:104C08008D1A18BF0125914238BF4FF0FF35002D8E
:104C1800B7D0DDF890B00DF54B79E9B2012920D96C
:104C2800DDF888B09BE02498CBEB80018346043103
:104C38000DE02498CBEB8001834608E0DDF890B0C6
:104C480008EB8B0103E0DDF890B0CAEB8B01049A06
:104C58000DF54B798D1A18BF4FF0FF35E9B20129D0
:104C6800DED8BBF1000F75D0ABF101020BF00300E9
:104C7800032A229005D200234FF001080DF19C0E63
:104C88002FE02BF0030C0DF19C0E00234FF00108D0
:104C9800002009EB83050EEB8302D5E901410433BB
:104CA800D5E903A908F00105013D6FEA010BD2E936
:104CB80001566FEA0404D2E903186C4156EB0B0560
:104CC8006FEA0A0671416FEA090656EB08060DF508
:104CD8004B7940F100089C45C2E90145C2E9031639
:104CE800D7D12298002478B309EB83010EEB830215
:104CF800B8F10105496856686FEA010171415160D0
:104D080044F1000801281FD0591CB8F1010509EB2E
:104D180081020EEB810152684E686FEA020272410D
:104D28004A6044F1000802280ED0991CB8F1010627
:104D380009EB81020EEB810152684B686FEA0202AF
:104D48005A414A6044F10008DDF890B05FEAC87142
:104D580000F0DF842398CDF89CB0023023901F9890
:104D6800834588BF5846292880F0CC840EEB800103
:104D7800DDE9149A0C1D0DF522784FEA800E4FF0EC
:104D8800000C2490E64551D0214658F80E2051F8E1
:104D9800045DAB1A18BF0123954238BF4FF0FF33AB
:104DA800CBBB269A914246D008EB0E02214651F819
:104DB800085D52F8046CAB1B18BF0123B54238BF1D
:104DC8004FF0FF333BBB269B994238D0214652F81F
:104DD800086C51F80C5DAB1B18BF0123B54238BFF6
:104DE8004FF0FF33BBB9269B99422CD054F8101DC5
:104DF8000AF1100A52F80C2C09F11009A8F1100850
:104E08000CF1100C8B1A18BF0123914238BF4FF0D8
:104E1800FF33002BB6D0219E27AD249C4FF000090C
:104E2800D9B201291ED95C46239994E0249C08EB49
:104E3800840104310AE0249C08EB840106E0249CE8
:104E4800C9EB840102E0249CCAEB8401259A27ADB2
:104E58004FF00009219E8B1A18BF4FF0FF33D9B2CB
:104E68000129E0D8002C73D0611E04F00300032947
:104E7800229004D2002101220DF19C0B2FE024F096
:104E8800030E0DF19C0B0DF5227C002101220CEB89
:104E9800810602F00102D6E901540BEB8103013AC5
:104EA800D6E90398D3E901266FEA040A6FEA0505F3
:104EB800D3E903046A4101F1040156EB0A056FEADC
:104EC800090670416FEA08067441C3E901254FF0ED
:104ED800000949F100028E45C3E90304D7D1229C99
:104EE8005D4684B3A2A805EB810300EB8100013A7B
:104EF8005E6840686FEA00007041586049F100023E
:104F0800012C20D0481CA2AB013A03EB800305EB2F
:104F180080005B6846686FEA030356EB0302426051
:104F280049F10002022C0ED0881CA2A9013A01EB1B
:104F3800800105EB8000496843686FEA0101594127
:104F4800416049F10002219ED007249C00F0E183D2
:104F58002399279401311A98864200F0E683509AE3
:104F680001F130001C9994422292249488551046ED
:104F780088BF2046292880F0C583711C209105EB45
:104F88008001DDE9128E0D1D50AB4FEA800C4FF009
:104F98000009CC4558D0294653F80C2051F8046D27
:104FA800B6EB020A18BF4FF0010A964238BF4FF01D
:104FB800FF3ABAF1000F43D1269A914248D003EB49
:104FC8000C02294651F8086D52F8044CB6EB040A55
:104FD80018BF4FF0010AA64238BF4FF0FF3ABAF1A6
:104FE800000F2DD1269CA14235D0294652F8086CD5
:104FF80051F80C4DB4EB060A18BF4FF0010AB44241
:1050080038BF4FF0FF3ABAF1000F19D1269CA142E0
:1050180024D055F8101D0EF1100E52F80C2C08F182
:105028001008103B09F11009B1EB020A18BF4FF044
:10503800010A914238BF4FF0FF3ABAF1000FA8D0E9
:10504800249C4FF0000914E003EB8000043007E0D3
:1050580003EB800004E0C8EB800001E0CEEB8000A9
:105068001B994FF00009249CB0EB010A18BF4FF0C0
:10507800FF3A1E98A022269947F8C04C06F02CF853
:10508800DDF8E4C1CDF88CC0644588BFA446BCF106
:10509800290F80F03A83BCF1000F09D0ACF101026E
:1050A8000CF00300032A1D9005D2002300222AE0F9
:1050B8004FF0000C67E02CF0030800230022A7F152
:1050C800C00003F0010300EB820579A800EB82041D
:1050D800013BD4E901B602F10402D5E90131D4E972
:1050E800039453EB0B03D5E903E071415EEB09062A
:1050F8004FF000096041C5E9013149F100039045CD
:10510800C5E90360DBD11D9D7DB379A8A7F1C00176
:1051180000EB820001EB8201013B40684E68704160
:10512800486049F10003012D1FD0501C79A9A7F14F
:10513800C006013B01EB800106EB80004968466828
:105148007141416049F10003022D0ED0901C79A9EC
:10515800A7F1C002013B01EB800102EB8000496826
:1051680042685141416049F10003D8070BD0BCF1B6
:10517800270F00F2E282A7F1C000012100EB8C00AA
:105188000CF1010C41601F9847F8C0CC604588BFFE
:105198008446BCF1290F80F0B882A2A8DDF86080AF
:1051A80000EB8C00DDE9166100F104094FEA8C0E72
:1051B8000024A64546D001EB0E0B4A4652F8040DD2
:1051C800DBF80450431B18BF0123A84238BF4FF037
:1051D800FF33A3BB2598824238D04A4651F80E00C7
:1051E80052F8085D2B1A18BF0123854238BF4FF0CB
:1051F800FF3323BB259882422BD04A465BF8045CD8
:1052080052F80C0D431B18BF0123A84238BF4FF0BA
:10521800FF33A3B9259882421ED059F8100D08F122
:1052280010085BF8082C103910361034831A18BF90
:105238000123904238BF4FF0FF33002BB9D0DDF87F
:10524800908012E0C6EB8C00011D07E0C6EB8C01D4
:1052580004E001EB8C0101E0C8EB8C011E98DDF83D
:1052680090800B1A18BF4FF0FF33199A4FFA8AF142
:105278009142A4BF58B29042C0F24F81B8F1290FB1
:1052880080F06482DDE92254B8F1000F4FF00A0C77
:105298000ED06FF00300012100EB88000C2801EB11
:1052A800900101F0030206D20026269B82BB46E04D
:1052B8004FF0000851E021F00300269B46424FF0D2
:1052C800000E4FF00A0C2192D3E90095D3E902426F
:1052D800A5FB0C50A2FB0CA8A9FB0C21A4FB0C4BB2
:1052E80012EB0E0269416041C3E900215AEB0B053C
:1052F80048F1000E0436C3E9020503F11003E3D1B7
:10530800DDE923487646DDE921254FF00A0CB2B1E4
:1053180018684FF0000E012AE0FB0C6E1E600ED0DC
:1053280058680026022AE0FB0CE6C3F804E0B646FB
:1053380005D098684FF0000EE0FB0C6E9E60BEF141
:10534800000F0AD0B8F1270F00F2048227A800EB5B
:10535800880008F1010840F804EF292DCDF89C8059
:1053680080F0018227A875B16FF00300012100EBDE
:1053780085000C2801EB900101F0030205D20026FC
:105388001B9B8ABB47E0002552E021F003001B9BD2
:1053980046424FF0000E4FF00A0C2192CDF8908053
:1053A800D3E90095D3E90242A5FB0C50A2FB0CA857
:1053B800A9FB0C21A4FB0C4B12EB0E0269416041C6
:1053C800C3E900215AEB0B0548F1000E0436C3E986
:1053D800020503F11003E3D1DDE923487646DDE950
:1053E80021254FF00A0CB2B118684FF0000E012ABF
:1053F800E0FB0C6E1E600ED058680026022AE0FB07
:105408000CE6C3F804E0B64605D098684FF0000EE5
:10541800E0FB0C6E9E60BEF1000F08D0272D00F255
:10542800A68150A800EB8500013540F804EF27A8B5
:10543800292C509580F0A48174B16FF003000121EC
:1054480000EB84000C2801EB900101F0030205D267
:105458000026059B8ABB47E0002452E021F00300A8
:10546800059B46424FF0000E4FF00A0C2292CDF8F1
:105478009080D3E90095D3E90242A5FB0C50A2FB2A
:105488000CA8A9FB0C21A4FB0C4B12EB0E026941E2
:105498006041C3E900215AEB0B0548F1000E0436C0
:1054A800C3E9020503F11003E3D10DF1880876463C
:1054B8004FF00A0C98E81401B2B118684FF0000ECA
:1054C800012AE0FB0C6E1E600ED058680026022AE6
:1054D800E0FB0CE6C3F804E0B64605D098684FF048
:1054E800000EE0FB0C6E9E60BEF1000F08D0272C6A
:1054F80000F24F8179A800EB8400013440F804EFF2
:1055080027A8069B7994984588BF4346282B7FF6A1
:1055180034A94DF64C52184635E158B290426DDA2E
:10552800DDE92045914280F2838027AC01212046A5
:1055380004F035FFA2982799814288BF0846292898
:1055480080F0E08004EB80014FEA800C0B1DA2A9DB
:10555800C1F1080EA1F1040AC1F100084FF00009D9
:10556800CC454FD00AEB0C011A4652F8044D4D6851
:10557800661B18BF0126AC4238BF4FF0FF36BEBBD2
:10558800269CA24242D01A465AF80C4052F8085DAE
:105598002E1B18BF0126A54238BF4FF0FF363EBB71
:1055A800269CA24235D01A4651F8045C52F80C4D9C
:1055B800661B18BF0126AC4238BF4FF0FF36BEB994
:1055C800269CA24228D053F8102D0EF1100E51F847
:1055D800081CAAF1100A08F1100809F11009561A56
:1055E80018BF01268A4238BF4FF0FF36002EB7D0C9
:1055F800DDE92045F0B201281AD96CE01A99019822
:10560800209C6AE0C8EB8000043007E0C8EB80000B
:1056180004E00AEB800001E0CEEB80002599DDE98B
:105628002045461A18BF4FF0FF36F0B2012852D86D
:105638001A98854280F0FB801C98294600EB0408E4
:1056480040464A1C1FD0034613F8016D392E2FD14E
:105658001C9A9A4217D0024612F8023D392B2AD1D9
:105668001C9B93420FD0024612F8033D392B24D1DC
:105678001C9B934207D010F8042D0439392AE0D036
:10568800481C02311BE01C99312008702DB11C9870
:1056980029463022013005F062FD1A998C4280F0CB
:1056A800F2803020AC1C88F800000198013014E02A
:1056B8000846114603E0481E01E0881E01391C9B7C
:1056C8008D421A5C02F101021A5404D35818611A67
:1056D800302205F044FD1A9901988C429FBF009929
:1056E80008811C98C1E900049EBF0DF2BC5DBDE8AD
:1056F800000FF0BD4CF65C222046C0F6000204F014
:1057080031FBFEDE4DF64C523DE04DF64C52604604
:1057180039E04DF65C504DF64C52C0F60000C0F62C
:1057280000021A2102F004FCFEDE4CF62C2201468F
:10573800C0F6000202F014FCFEDE4DF64C52604644
:10574800C0F60002282102F00BFCFEDE4DF64C529A
:10575800404618E04DF64C524046C0F6000228215B
:1057680002F0FEFBFEDE4DF64C5228460BE04DF6ED
:105778004C522846C0F60002282102F0F1FBFEDE5A
:105788004DF64C522046C0F60002282104F0EAFAF1
:10579800FEDE4DF64C522046C0F60002282102F0EB
:1057A800DFFBFEDE4CF6D3004CF6F002C0F600003C
:1057B800C0F6000213E04CF600104CF62012C0F6BA
:1057C8000000C0F600021D2102F0B2FBFEDE4CF61E
:1057D80030104CF64C12C0F60000C0F600021C2136
:1057E80002F0A6FBFEDE4CF65C104CF69412C0F6F6
:1057F8000000C0F60002362102F09AFBFEDE4CF6ED
:10580800A4104CF6DC12C0F60000C0F600023721E6
:1058180002F08EFBFEDE4CF6EC104CF61C22C0F6B5
:105828000000C0F600022D2102F082FBFEDE1A996C
:105838004CF63C22C0F60002204604F093FAFEDE45
:105848004DF64C521846C0F60002282102F088FB9B
:10585800FEDE4DF64C520846C0F60002282102F042
:105868007FFBFEDE4DF64C52C0F60002282102F006
:1058780077FBFEDE4DF64C527046C0F6000228213A
:1058880002F06EFBFEDE4CF64C222046C0F600020B
:1058980002F066FBFEDEF0B503AF2DE9000FADF5B3
:1058A8006D7DD1E90085159058EA0500189301F03F
:1058B800BC81D1E9020E50EA0E0301F0BF81D1E9A3
:1058C800043453EA040601F0C58113EB08034FF0D2
:1058D800000C55EB04035CF1000341F0C7811792FB
:1058E800B8EB000275EB0E004CF10000D0F101009E
:1058F80041F0C8810DF5447A0E8BA021504605F081
:105908009FFC0220CDF81083002D08BF01202090B5
:105918000DF1800BC598514618BF2846C5900BF16C
:105928000400A0221D9005F0D7FB01209C21CDE9A1
:10593800490049A8083005F083FCB8F1010044F695
:105948004253B0FA80F075F1000100F1200230B244
:1059580018BFB1FA81F2811A45F28002C4F61053D9
:10596800C4F213421325C1FB032500280FFA85F85A
:1059780002D420A8314602E0404201B249A804F00E
:105988000EFD49A8B8F1FF3F00F1040902DD49A85E
:10599800A9B203E0C8F1000001B220A8FEF7ECF9B3
:1059A8000AF10400499E4946A022C4961A9005F0BF
:1059B80093FB1898CDF864800A28CDF858900446CF
:1059C800C0F09580282E00F289804CF60029044604
:1059D800C3F69A39002E7AD00AEB860000F1040843
:1059E8006FF0030000EB860101200C2900EB910009
:1059F80000F0030603D20021002E42D167E020F018
:105A0800030000214542CDE91B6458F8100D4A46B1
:105A18001F900023D8F80CA0D8E9014B504605F098
:105A280011FB00FB19A11E9058464A46002321F09D
:105A3800404105F007FB824600FB19B04A460023A7
:105A480020F04041204605F0FDFA064600FB1940CB
:105A58001F9C1E994A46C8F80C10002320F04041AC
:105A6800204605F0EFFAA0FB091288E84104611A04
:105A78000435CAD1DDE91B640DF1800B0DF5447ABC
:105A88002EB358F8045C4A460023284605F0DAFA93
:105A9800012E48F8040C1AD000FB195058F8085C7D
:105AA8004A46002320F04041284605F0CBFA022E52
:105AB80048F8080C0BD000FB195158F80C0C4A4652
:105AC800002321F0404105F0BDFA48F80C0C093CD0
