:020000040800F2
:1000000000000220A90100087B390008DF5C00081D
:100010007B3900087B3900087B39000800000000AC
:100020000000000000000000000000007B39000814
:100030007B390008000000007B390008DD2600083D
:100040007B3900087B3900087B3900087B390008C0
:10005000000000007B390008251800087B390008E3
:100060007B3900087B3900087B3900087B390008A0
:100070007B3900087B3900087B3900087B39000890
:100080007B3900087B3900087B3900087B39000880
:100090007B3900087B3900087B3900087B39000870
:1000A0007B3900087B3900087B3900087B39000860
:1000B0007B3900087B3900087B3900087B39000850
:1000C0007B3900087B3900087B390008AD1800082F
:1000D0007B3900087B3900087B3900087B39000830
:1000E0007B3900087B3900087B3900087B39000820
:1000F0007B3900087B3900087B3900087B39000810
:100100007B390008E51B00087B3900087B390008B3
:100110007B3900087B3900087B3900087B390008EF
:100120007B3900087B3900087B3900087B390008DF
:100130007B3900087B3900087B3900087B390008CF
:100140007B3900087B3900087B3900087B390008BF
:100150007B3900087B3900087B3900087B390008AF
:100160007B3900087B3900087B3900087B3900089F
:100170007B3900087B3900087B3900087F190008AB
:100180007B3900087B3900080000000000000000F7
:10019000000000000000000000000000000000005F
:0801A0007B3900087B390008DF
:1001A80080B56F4603F0E6FB40F2840040F20001A0
:1001B800C2F20000C2F20001814208D240F20001FE
:1001C8000022C2F2000141F8042B8142FBD340F225
:1001D800000040F20001C2F20000C2F200018142B8
:1001E8000DD247F6DC2140F20002C0F60001C2F24F
:1001F800000251F8043B42F8043B8242F9D34EF620
:100208008850CEF20000016841F47001016003F0EB
:10021800ABFBFEDE43F20800C4F2010001684A06A7
:1002280042BF0120002170478A0642BF01210120F8
:100238007047CA0642BF012002217047C90707BF9D
:100248000120042101790020704704F02EBDD4D488
:10025800B0B502AF84B005682878DFE800F0023254
:10026800122246F64E026C46C0F6000220460723CC
:1002780004F0F1FC46F6A002681C0390C0F60002E8
:100288002EE046F655026C46C0F6000220460623CC
:1002980004F0E1FC46F68002681CC0F600020390F8
:1002A8001EE046F66D026C46C0F6000220460323A7
:1002B80004F0D1FC46F67002681C0390C0F60002F8
:1002C8000EE046F65B026C46C0F6000220460923A3
:1002D80004F0C1FC46F69002681C0390C0F60002C8
:1002E80003A9204603F096FE204603F003FF04B05E
:1002F800B0BD80B56F4682B00068FF22CDE900022C
:10030800684602F06EFE02B080BDF0B503AF4DF84E
:1003180004BD86B00A4646F2D36105681046C0F6A9
:100328000001052204F08AFC02ACCDE9020146F284
:10033800C06646F2BC6105ABC0F60006C0F6000117
:10034800204603220595009603F0A5FD46F2D061EC
:10035800681C05AB0590C0F60001204603220096F4
:1003680003F099FDA81C059046F2D86046F2AC61EE
:10037800C0F6000005AB0090C0F60001204604223C
:1003880003F089FD204603F024FE06B05DF804BBA7
:10039800F0BDD0B502AF84B00068007830B1012854
:1003A8000BD046F27C62C0F600020AE001AC46F2CD
:1003B8008862C0F60002072305E046F28262C0F6B2
:1003C800000201AC0623204604F045FC204603F059
:1003D80091FE04B0D0BDD4D4B0B502AF84B00568E6
:1003E8002878DFE800F00313272E350001AC46F229
:1003F800B062C0F600020423204604F02CFC46F24A
:100408003072681CC0F6000200900EE001AC46F2A3
:10041800D362C0F600020523204604F01CFC46F215
:100428001472681C0090C0F600026946204603F06A
:10043800F1FD16E001AC46F28A72C0F600020C2308
:100448000CE001AC46F27D72C0F600020D2305E017
:1004580001AC46F26E72C0F600020F23204604F08B
:10046800FAFB204603F046FE04B0B0BDB0B502AFBB
:1004780084B005682878DFE800F0040B1B2F343BB4
:10048800424901AC46F24072C0F60002062343E03E
:1004980001AC46F22472C0F600020923204604F09B
:1004A800DAFB46F23072681CC0F6000200900EE0DB
:1004B80001AC46F20972C0F600020A23204604F095
:1004C800CAFB46F21472681C0090C0F60002694626
:1004D800204603F09FFD22E046F20272C0F60002B9
:1004E80003E046F2FB62C0F6000201AC072313E00A
:1004F80001AC46F2F662C0F6000205230CE001AC3E
:1005080046F2E862C0F600020E2305E001AC46F2AE
:10051800F822C0F600021023204604F09CFB204677
:1005280003F0E8FD04B0B0BDD0B502AF84B00068F8
:100538000078012806D101AC46F23832C0F6000234
:10054800102305E001AC46F28F62C0F600020D23CD
:10055800204604F080FB204603F0CCFD04B0D0BD5B
:10056800F0B503AF4DF804BD86B00A4646F2B06157
:1005780005681046C0F60001042204F05FFB02ACD7
:10058800CDE9020146F2C06646F2BC6105ABC0F691
:100598000006C0F60001204603220595009603F0E8
:1005A8007AFC46F2D061681C05AB0590C0F60001E4
:1005B80020460322009603F06EFC204603F009FD56
:1005C80006B05DF804BBF0BDD0B502AF84B00068DA
:1005D8000078DFE800F003080D141B2246F2B4622D
:1005E800C0F6000216E046F66402C0F6000203E018
:1005F80046F65B02C0F6000201AC092313E001AC29
:1006080046F65502C0F6000206230CE046F29C624C
:10061800C0F6000201AC042305E001AC46F64E0228
:10062800C0F600020723204604F015FB204603F01D
:1006380061FD04B0D0BD084645F6BC61C0F60001B6
:10064800022204F035B97047704770477047704709
:1006580070477047704770477047704770477047DA
:10066800704770477047704740F206000021C2F299
:10067800000000F0E3B840F20F000021C2F20000D1
:1006880000F0DCB840F20C000021C2F2000000F0DB
:10069800D5B840F209000021C2F2000000F0CEB83F
:1006A80040F203000021C2F2000000F0C7B840F297
:1006B80012000021C2F2000000F0C0B840F215009C
:1006C8000021C2F2000000F0B9B840F20000002199
:1006D800C2F2000000F0B2B802F06FBB0278042A40
:1006E80018BF03F0E5B845F6D0720846C0F6000218
:1006F80011460A2204F094BAD0B502AF0446062087
:1007080003F03AF90438C0B20B289FBF4EF61851CF
:10071800CEF200014454D0BD46F23C020C21C0F692
:10072800000203F061FAFEDE03F05EB903F05AB985
:10073800F0B503AF4DF804BD86B0044640F2300072
:10074800C2F20000016CA1426ED900EBC40350F85C
:1007580034200DF1080C5B68019005948CE80E00BC
:1007680084B301A800F10805601EB4EB500F33D024
:1007780044080298A04238D9019800EBC4012846E1
:1007880002F0FCFA064602F021FB0599F2B2C0B26B
:10079800824213D1A14231D00298A04238D901989F
:1007A800002C00EBC40350F834205B6840F831207B
:1007B80000EBC10043600594D6D100210198DDE922
:1007C800032300E0002140F8312000EBC100436022
:1007D80006B05DF804BBF0BD46F24C0046F2D0020C
:1007E800C0F60000C0F6000210E046F2E00046F253
:1007F8000C12C0F60000C0F6000211E046F24C00F0
:1008080046F25012C0F60000C0F60002232108E0AC
:1008180046F2E00046F26012C0F60000C0F60002A0
:10082800292103F0C9F9FEDE46F21C1046F24012F7
:10083800C0F60000C0F600022221F2E7B0B502AF10
:10084800044601200D4602F0BBFA01061FBFC0B2E4
:100858006178B1FBF0F202FB10101FBF20448570D5
:10086800481C607018BFB0BD45F6505046F20422CF
:10087800C0F60000C0F60002392103F09DF9FEDE43
:10088800B0B502AF044608200D4602F099FA0106F9
:100898001FBFC0B240F21E01C2F200014A781FBF5A
:1008A800B2FBF0F303FB102001EB4000C5701FBF43
:1008B8008470501C4870B0BD45F6505046F2042272
:1008C800C0F60000C0F60002392103F075F9FEDE1B
:1008D800D0B502AF0446012002F072FA217862789E
:1008E800914201D10020D0BD02061FBFC0B2B1FBAA
:1008F800F0F202FB101001311FBF217020448178F3
:10090800012018BFD0BD45F6505046F20422C0F66B
:100918000000C0F60002392103F04EF9FEDEF0B502
:1009280003AF2DE900078EB004460068914688465B
:10093800013002F049FA00F1010A064607F84AAC0C
:10094800256802F03BFA297810B1BFF35F8FFFE703
:1009580017F84A0C07F8491CC9B288421DD0022072
:10096800246802F02DFA01063DD0C0B2F1B2B1FB05
:10097800F0F202FB101004EB400080F8039080F8BE
:10098800028002F01BFA10B1BFF35F8FFFE784F813
:1009980001A00EB0BDE80007F0BD02200DA9079028
:1009A80008A806900020CDE904000320039046F231
:1009B800C020C0F60000029043F6A910C0F600005F
:1009C8000B90CDE90901A7F14A000C900CA80890FA
:1009D800A7F1490046F274210D9002A8C0F6000163
:1009E80003F023F9FEDE45F6505046F27422C0F6B5
:1009F8000000C0F60002392103F0DEF8FEDEF0B593
:100A080003AF2DE900078EB004460068914688467A
:100A1800013002F0D9F900F1010A064607F84AAC9C
:100A2800256802F0CBF9297810B1BFF35F8FFFE793
:100A380017F84A0C07F8491CC9B288421DD008208B
:100A4800246802F0BDF901063DD0C0B2F1B2B1FB95
:100A5800F0F202FB101004EB400080F8039080F8DD
:100A6800028002F0ABF910B1BFF35F8FFFE784F8A3
:100A780001A00EB0BDE80007F0BD02200DA9079047
:100A880008A806900020CDE904000320039046F250
:100A9800C020C0F60000029043F6A910C0F600007E
:100AA8000B90CDE90901A7F14A000C900CA8089019
:100AB800A7F1490046F274210D9002A8C0F6000182
:100AC80003F0B3F8FEDE45F6505046F27422C0F645
:100AD8000000C0F60002392103F06EF8FEDEF0B522
:100AE80003AF2DE9000B8EB006460068884601303A
:100AF80002F06AF900F10109054607F84A9C3468D2
:100B080002F05CF9217810B1BFF35F8FFFE717F8A7
:100B18004A0C07F8491CC9B288421AD00120366825
:100B280002F04EF901063AD0C0B2E9B2B1FBF0F2D8
:100B380002FB1010304480F8028002F03FF910B137
:100B4800BFF35F8FFFE786F801900EB0BDE8000B9A
:100B5800F0BD02200DA9079008A806900020CDE955
:100B680004000320039046F2C020C0F60000029063
:100B780043F6A910C0F600000B90CDE90901A7F1D2
:100B88004A000C900CA80890A7F1490046F274217D
:100B98000D9002A8C0F6000103F047F8FEDE45F606
:100BA800505046F27422C0F60000C0F60002392107
:100BB80003F002F8FEDEB0B502AF8EB0029140F24B
:100BC8007401C2F2000101900978012946D1012A75
:100BD8002AD143F60F1101A8C0F60001079302F0CD
:100BE80098FE04460D4645F6410107A8C0F60001E7
:100BF80002F0B9FECDE9050103A902200C910021FC
:100C08000D900B91CDE9090146F27830C0F600004D
:100C1800CDE90345089008A801F0FFFFF0B146F2BE
:100C28009430C0F600001FE043F60F1101A8C0F68B
:100C3800000102F06EFECDE9030103A901200C9129
:100C480000210D900B91CDE9090146F2A430C0F6C0
:100C58000000089008A801F0E0FF08B90EB0B0BD88
:100C680046F2AC30C0F6000045F62C73009045F60D
:100C7800BE6008AAC0F60000C0F600032B2102F0EF
:100C8800FAFEFEDED0B502AFADF5047D0978DFE8E7
:100C980001F06B6B03205A3D43AC8DF80C01601CCE
:100CA800114640F2031204F01DFF02A8214600F08D
:100CB800F1FC9DF80900042856D043AC02A94FF472
:100CC8008272204604F04DFF46F2EC30C0F6000078
:100CD80058E043AC8DF80C01601C114640F2031239
:100CE80004F000FF02A8214600F01CFC9DF8090052
:100CF800042839D043AC02A94FF48272204604F08C
:100D080030FF46F2DC30C0F600003BE043AC8DF823
:100D18000C01601C114640F2031204F0E3FE02A825
:100D2800214600F0F6FA9DF8090004281CD043ACCF
:100D380002A94FF48272204604F013FF46F2BC3039
:100D4800C0F600001EE043AC8DF80C01601C114693
:100D580040F2031204F0C6FE02A8214600F08AFB06
:100D68009DF80900042802D10DF5047DD0BD43ACDF
:100D780002A94FF48272204604F0F3FE46F2CC300A
:100D8800C0F6000045F61C73009045F6BE60C0F63C
:100D98000003C0F600002B21224602F06CFEFEDEA6
:100DA8005FFA81FC80B56F46DFE80CF00218111F6E
:100DB8001378012B23D0022B1DD140F2023120F8E9
:100DC800021B511C40F2011204F08CFE80BD127807
:100DD800042A1BD0062A0ED100211CE01278042A0E
:100DE80017D0062A07D1032115E01278072A02D165
:100DF8004FF4C0610FE001220170427080BD40F2E3
:100E08000121B2F801200180428080BD40F20251E8
:100E180001E040F20141018080BDD4D4B0B502AFF9
:100E280084B004460078DFE800F0040B1222373E55
:100E3800450001AC46F26572C0F6000209233FE0A6
:100E480001AC46F25F72C0F60002062338E001AD3D
:100E580046F22472C0F600020923284603F0FBFE7E
:100E680046F23072601CC0F6000200900EE001AD40
:100E780046F20972C0F600020A23284603F0EBFE88
:100E880046F21472601C0090C0F6000269462846BB
:100E980003F0C0F8284617E001AC46F25372C0F6DA
:100EA80000020C230CE001AC46F24672C0F60002C8
:100EB8000D2305E001AC46F20832C0F6000210230B
:100EC800204603F0C8FE204603F014F904B0B0BD74
:100ED800B0B502AF84B004460078DFE800F0030A3A
:100EE8001A2F360001AC46F26572C0F600020923DB
:100EF80031E001AD46F22472C0F60002092328460B
:100F080003F0A9FE46F23072601CC0F600020090A1
:100F18000EE001AD46F20972C0F600020A23284627
:100F280003F099FE46F21472601C0090C0F60002AD
:100F38006946284603F06EF8284610E001AC46F2F0
:100F4800B672C0F600020A2305E001AC46F29672BA
:100F5800C0F600020823204603F07DFE204603F079
:100F6800C9F804B0B0BDF0B503AF2DE9000FADF27C
:100F7800744D02904EF6F050CEF200000022007838
:100F88004FF00008C0071FBF40F27400C2F2000013
:100F98000121017046F2C0700C21C0F60000FFF775
:100FA8000AFE03AC204602F0B2F80DF154094ECC0B
:100FB80048464EC094E84E004EC0A8200D9C02F052
:100FC800D1FB02F0D4FB0DF1380ACDE91E044FF035
:100FD800010B49465046CDF874B002F0A1F802F072
:100FE800CCFB02F002FC02F039FC00200D24C4F214
:100FF8000200C16821F00301C160016821F003010A
:1010080001604FF6084043F60041CFF6FF70C4F286
:1010180001010A5822F00F020A50886840F00100C6
:10102800886043F60C40C4F20100026822F0010215
:101038000260086840F0010008600D20022102F0FB
:10104800DDFB514648464CC94CC091E86C006CC069
:10105800142002F086FB064640F20840C4F24720FE
:10106800C0F800B4C0F800B0C0F8008040F600082E
:10107800C4F20008D8F8180064F3CE20C8F81800A5
:10108800D8F8000040F08000C8F80000484602F098
:1010980062FB0446484602F062FB0546304602F011
:1010A80062FB002800F0D980E9B2012918BF0221AB
:1010B8006143B1FBF0F0411E0A0C0BEB1141C8F87B
:1010C800282089B2002900F0C880B0FBF1F0B0F503
:1010D800803F80F0CB80C8F82C000124D8F80000AD
:1010E8000021002540F00400C8F80000C8F81440AA
:1010F800D8F8000020F00400C8F80000A7F120008C
:10110800C8F8004002F0CDFB0520052102F03EFBA7
:101118000620052102F03AFB0720052102F036FBE4
:1011280041F20000C4F20200C16821F0C001C160B0
:10113800416821F008014160016864F3871101608A
:1011480008218161012002F00DFB02F010FBBAE8D2
:101158000E00044648460EC09AE84E004EC043F6BC
:101168004400C4F20200016841F48051016048461D
:1011780002F0F3FA43F20401002CC4F201010D60FD
:1011880000F08780A042C0F08E80B0FBF4F2032A02
:1011980002D24FF451701EE0062A02D24FF4537067
:1011A80019E00C2A02D24FF4557014E0182A02D222
:1011B8004FF457700FE0302A02D24FF459700AE00A
:1011C800602A02D24FF45B7005E04FF45F70C02ACA
:1011D80038BF4FF45D7041F8040C086840F02000F7
:1011E800086015A840F2022104F072FD0020DBA976
:1011F800CDF8630201249890CDE996004FF48070F1
:10120800ADF86C039AA88DF86E4300F043FA9DF888
:101218006902042853D14FF00F40DBA9DB909AA84C
:101228008DF8704300F075F89DF86902042852D1D2
:1012380096A8029C90E86C00002021466CC115A974
:1012480040F20222A074208204F1130004F04AFC48
:101258000DF2744DBDE8000FF0BD45F6006045F68F
:10126800E452C0F60000C0F600021AE0022045F67B
:10127800FC638DF86C0345F6E450C0F60000DBAA69
:10128800009045F6BE60C0F60000C0F600032B21B2
:1012980037E045F6006045F67462C0F60000C0F617
:1012A8000002192108E045F6846045F6AC62C0F6F4
:1012B8000000C0F60002282102F07EFCFEDEDBAC56
:1012C8009AA94FF48272204604F04BFC46F2D8707B
:1012D800C0F600000AE0DBAC9AA94FF482722046FF
:1012E80004F03FFC46F2E870C0F6000045F61C73B7
:1012F800009045F6BE60C0F60003C0F600002B2142
:10130800224602F0B8FBFEDE80B56F4602F075FBA0
:10131800FCE7F0B503AF4DF8048DC2B0804601A8D4
:101328004FF4827204F0DEFB02F058FB044602F030
:1013380059FB02F06BFB40F20000C2F20000FFF71D
:10134800C7FA0646E0070D4608BF02F04DFBF00756
:1013580006D101A940464FF4827204F0C3FB2CE089
:10136800E8B240F297218001C2F2000150FA85F0FC
:101378004FF4827201EB800001A904F0B3FB02F084
:101388002DFB044602F02EFB02F040FB0320294609
:10139800FFF776FAE00708BF02F026FB4EF20420BA
:1013A8004FF40031CEF20000016040464FF48271E4
:1013B80004F08BFC042088F8010042B05DF8048B2F
:1013C800F0BDF0B503AF4DF8048DC2B0804601A85A
:1013D8004FF4817204F086FB02F000FB044602F031
:1013E80001FB02F013FB40F20300C2F20000FFF71A
:1013F8006FFA0646E0070D4608BF02F0F5FAF00757
:1014080006D101A940464FF4817204F06BFB2DE030
:10141800E8B240F29B31C001C2F2000150FA85F0F7
:101428004FF4817201EB400001A904F05BFB02F06C
:10143800D5FA044602F0D6FA02F0E8FA0220294664
:10144800FFF71EFAE00708BF02F0CEFA4EF20420BA
:101458004FF40031CEF20000016008F1010040F2C3
:10146800011104F032FC052088F8000042B05DF854
:10147800048BF0BDF0B503AF4DF8048DC2B08046C3
:1014880001A84FF4827204F02DFB02F0A7FA04467B
:1014980002F0A8FA02F0BAFA40F20600C2F200001E
:1014A800FFF716FA0646E0070D4608BF02F09CFA59
:1014B800F00706D101A940464FF4827204F012FBEE
:1014C8002CE0E8B240F29D418001C2F2000150FADE
:1014D80085F04FF4827201EB800001A904F002FB51
:1014E80002F07CFA044602F07DFA02F08FFA052039
:1014F8002946FFF7C5F9E00708BF02F075FA4EF272
:1015080004204FF40031CEF20000016040464FF451
:10151800827104F0DAFB042088F8010042B05DF81B
:10152800048BF0BDF0B503AF4DF8048DC2B0804612
:1015380001A84FF4827204F0D5FA02F04FFA04467B
:1015480002F050FA02F062FA40F20C00C2F2000017
:10155800FFF7BEF90646E0070D4608BF02F044FA59
:10156800F00706D101A940464FF4827204F0BAFA96
:101578002CE0E8B240F2A3618001C2F2000150FA07
:1015880085F04FF4827201EB800001A904F0AAFAF9
:1015980002F024FA044602F025FA02F037FA002095
:1015A8002946FFF76DF9E00708BF02F01DFA4EF271
:1015B80004204FF40031CEF20000016040464FF4A1
:1015C800827104F082FB042088F8010042B05DF8C3
:1015D800048BF0BDF0B503AF4DF8048D82B08046A2
:1015E80002F0FCF9044602F0FDF902F00FFA40F2AD
:1015F8000F00C2F20000FFF76BF90646E0070D4640
:1016080008BF02F0F1F9F00701D101203EE0052002
:1016180060F31F2502F0E2F9044602F0E3F902F054
:10162800F5F940F2300604F00104C2F20006CDE9F3
:101638000085306C50B140F230016846C2F20001BA
:1016480001F0A5FBC0B2FF280FD107E04EF2100051
:10165800CEF20000016841F0020101604EF604502C
:101668004FF08061CEF200000160306CDDE90012BD
:1016780046F8301006EBC003316C5A600131316412
:10168800FFF756F80CB902F0AFF9002002B05DF888
:10169800048BF0BDF0B503AF4DF8048DC2B08046A1
:1016A80001A84FF4827204F01DFA02F097F904467B
:1016B80002F098F902F0AAF940F21200C2F2000012
:1016C800FFF706F90646E0070D4608BF02F08CF959
:1016D800F00706D101A940464FF4827204F002FADD
:1016E8002CE0E8B240F2A7718001C2F2000150FA82
:1016F80085F04FF4827201EB800001A904F0F2F941
:1017080002F06CF9044602F06DF902F07FF901204D
:101718002946FFF7B5F8E00708BF02F065F94EF271
:1017280004204FF40031CEF20000016040464FF42F
:10173800827104F0CAFA042088F8010042B05DF80A
:10174800048BF0BDF0B503AF2DE9000B82B00D4658
:10175800804602F043F9064602F044F902F056F9D1
:1017680040F21500C2F20000FFF7B2F80446F00795
:10177800894608BF02F038F9E0074AD040F6AC00C5
:101788005FFA89F6C2F2000040F8268040F6B00001
:10179800C2F20000855502F021F9044602F022F950
:1017A80002F034F940F2300506F5E061C2F20005B6
:1017B80004F00104286CCDE9008150B140F23001F9
:1017C8006846C2F2000101F0E2FAC0B2FF280FD168
:1017D80007E04EF21000CEF20000016841F002016D
:1017E80001604EF604504FF08061CEF200000160B7
:1017F800286CDDE9001245F8301005EBC003296CB0
:101808005A6001312964FEF793FF0CB902F0ECF835
:101818000225284602B0BDE8000BF0BDD0B502AFE6
:10182800ADF5047D01F0C1FA02F0E9F804460020A4
:101838008DF80E0140F20120ADF80C0102A843A971
:10184800FFF770FE9DF80900042801BF43F6004029
:10185800C4F201000121416101BF016821F00101C9
:101868000160204602BF0DF5047DBDE8D04002F0BE
:10187800CAB843AC02A94FF48272204604F071F949
:1018880046F2F87045F61C73C0F60000C0F6000377
:10189800009045F6BE60C0F600002B21224602F0FB
:1018A800EAF8FEDEB0B502AFADF5447D01F07DFA91
:1018B80002F0A5F843F204050446C4F2010568687D
:1018C800C0070CD16868800717D446F6380016217F
:1018D800C0F6000000220025FFF76DF916E046F675
:1018E80018001221C0F600000022FFF764F92868EA
:1018F80020F040002860042508E046F62A000E2162
:10190800C0F600000022FFF756F903258DF80E52A5
:1019180040F2013083ADADF80C02E81C01A940F299
:10192800011204F0DFF842A82946FFF7A3FD9DF84D
:101938000901042801BF20460DF5447DBDE8B040EB
:1019480002F061B883AC42A94FF48272204604F0D9
:1019580008F946F6080045F61C73C0F60000C0F604
:101968000003009045F6BE60C0F600002B21224619
:1019780002F081F8FEDEF0B503AF2DE9000FC3B029
:1019880040F2180440F2840B40F296280DF1080A40
:10199800C2F20004C2F2000BC2F20008204601F0B5
:1019A80013FA054601F00AFA617810B1BFF35F8FA8
:1019B800FFE7C8B2EEB2864200F0D980022001F0FB
:1019C800FFF9010600F0DB80C0B20135B6FBF0F18B
:1019D80001FB106004EB4000468801F0EFF910B1FC
:1019E800BFF35F8FFFE7310AF00725702FD140F270
:1019F8000F00C2F20000CDE902005046FFF76FF871
:101A0800D02002F000F8DBF800000A2855D2102197
:101A18005844C4F20201096801F001014171DBF880
:101A280000000130CBF8000001F07CF905464AF2CD
:101A38008020C0F2190001F0B4F90146284601F0EF
:101A480077F9FFF7C7FD002800F08A80A3E040F689
:101A5800AC00C2F2000050F82100019040F6B0003E
:101A6800C2F20000465C40F21500C2F20000CDE967
:101A780002005046FFF733F8E02001F0C4FF40466B
:101A880001F003FF814600043BD0404625465446FA
:101A980001F001FF8246404601F0E9FEF0074FF0F1
:101AA80000084FF69C705FD01FFA8AF11FFA89F27E
:101AB800A2468A422C4627D129E0002005211BF89E
:101AC800012001310F291044F9D105280BD946F21C
:101AD800444140F20120ADF808000420C0F600019E
:101AE8005246FFF7CFF8002043F600418BF8040078
:101AF800C4F20101CBF80000086840F0010008605A
:101B08002EE0404601F0B3FE4FF00108642040F299
:101B1800962509EB0001C2F20005284601F0C1FE36
:101B2800284601F0ABFE2878012811D14EF28070CA
:101B3800C0F24C0001F035F90146019801F0F8F8BF
:101B48004146FFF7FFFDC0B20228A84608D030E0A2
:101B5800284601F08CFE2846002101F0A2FEA84686
:101B6800F02001F050FF19E7A2462C46CFE70020ED
:101B780043B0BDE8000FBDE8F04001F044BF45F6B2
:101B8800505046F27422C0F60000C0F60002392117
:101B980002F012F8FEDE46F2344045F62C73C0F629
:101BA8000000C0F60003009045F6BE60C0F60000D5
:101BB8000EE08DF8080046F26830C0F6000045F6E1
:101BC8003C73009045F6BE60C0F60000C0F6000306
:101BD80002AA2B2101F04FFFFEDED4D4F0B503AFEB
:101BE8002DE9000FADF2346D0DF5A66909F102007B
:101BF800059009F10500039009F10300019001F037
:101C0800FEFE049040F21E08C2F20008404601F0B1
:101C1800DBF8054601F0D2F898F8011010B1BFF3CF
:101C28005F8FFFE7C8B2ECB2844200F0438408201B
:101C380001F0C6F8010600F04584C0B20135B4FBD6
:101C4800F0F101FB104008EB4000448801F0B6F8C1
:101C580010B1BFF35F8FFFE788F80050E0B24FEA9A
:101C6800142ADFE810F00700480070006803B90084
:101C7800130127040AEB8A1040F2A361C2F20001A3
:101C880001EB800051464578847840F20C00C2F29E
:101C98000000CDF83405CDF830054846FEF71FFFA3
:101CA800D02001F0B0FE022D40F0418340F28406BE
:101CB800B4FA84F1C2F200063079490900280246D4
:101CC80018BF012241EA020318BF01EA02032043B8
:101CD800337140F02C8301F025F8FFF77BFC0028D6
:101CE80000F0258346F20C401B21C0F600000022BC
:101CF800FEF761FF1BE30AEB8A1040F2A771C2F2FC
:101D0800000101EB800051464578847840F21200CA
:101D1800C2F20000CDF83405CDF830054846FEF78C
:101D2800DEFE012D7FF472AF40F29620C2F2000071
:101D38000078002800F0DB81022C18BF002C00F08E
:101D4800F1810120EFE140F29B310AEBCA10C2F2A7
:101D580000010DF1180B11F8106001EB4000C11CD7
:101D68004478FF228578584603F0BCFE40F2030011
:101D78005146C2F20000CDF83405CDF8300548468A
:101D8800FEF7ADFE47A85946FF2203F0EAFED02031
:101D980001F039FE46F2483AC0F6000ADFE816F0CC
:101DA800C70205008C011201C702012049468DF8BF
:101DB800320540F20530ADF830050DF585608DF837
:101DC80034558DF83345FFF755FB9DF82904042851
:101DD80000F0AD8200F00DBC40F2A1510AEBCA1030
:101DE800C2F2000147AC11F8106001EB4000C11CC1
:101DF80090F801B0FF228578204603F073FE40F288
:101E080009005146C2F20000CDF83405CDF830057E
:101E18004846FEF764FE0DF585602146FF2203F073
:101E2800A0FED02001F0EFFD40F29404B01EC2F2F3
:101E38000004042800F27B82DFE810F00500980116
:101E48007F01D2017B0143F204024FF40021C4F266
:101E58000102106840F04000106041F21800C4F21E
:101E68000200016084F8005284F802B0506841060C
:101E780000F13483810600F13383C10600F1328317
:101E8800800740F1318382F808B050E240F29D416A
:101E98000AEB8A10C2F2000106AE11F820B001EB7D
:101EA8008000811C457830464FF4817203F01AFE99
:101EB80040F206005146C2F20000CDF83405CDF8D4
:101EC80030054846FEF70BFED02001F09CFD47A8E0
:101ED800314640F294064FF48172C2F2000603F0D4
:101EE80040FE032D40F023820DF5856547A94FF488
:101EF8008172284603F035FE317848462A46FEF7B7
:101F08004FFF059988A840F2011234469DF83055D4
:101F18009DF8316503F0E6FD2570DFE816F008024C
:101F2800C401070007000D000D000D0040F29400E9
:101F3800C2F2000080F801B088A9484640F20112B8
:101F480003F00FFE01F04AFD824601F04BFD01F05F
:101F58005DFD40F20900C2F20000FEF7B9FC04463C
:101F68005FEACA700D4608BF01F03EFDE00700F0C9
:101F7800C382E8B240F2A151C001C2F2000150FA96
:101F880085F040F2011201EB4000494600F8016B70
:101F980003F0A8FD01F022FD044601F023FD01F045
:101FA80035FD04202946FEF76BFCE00708BF01F069
:101FB8001BFD4EF210004FF40031CEF20000C0F8C5
:101FC800F411B4E140F29405C2F2000595F801025B
:101FD80068B1002428191021012290F801315046D7
:101FE800FEF7E9FD95F8010201348442F2D346F286
:101FF800586140F20370ADF830050520C0F60001C5
:102008004A46FEF73FFE00F08DFE044647F60020E4
:10201800C0F6032000F0C5FE0146204600F088FE09
:10202800824601F0DBFC064601F0DCFC01F0EEFC28
:1020380040F20000C2F20000FEF74AFC0446F00736
:102048000D4608BF01F0D0FCE00700F0E082EEB2D8
:102058000521B00140F2972250FA85F0C8F60071C8
:10206800C2F2000242F8201002EB80000121017147
:1020780005304946FF2203F035FD01F0AFFC044668
:1020880001F0B0FC01F0C2FC40F2300504F001049C
:10209800C2F20005CDF82C64286CCDF828A40028DD
:1020A80000F0DE800DF58560294600F070FEC0B2B4
:1020B800FF2840F0E480DBE0022047A98DF83205D4
:1020C80040F20530ADF83005FF2203988DF83455FD
:1020D8008DF8334503F006FD0DF585604946FFF799
:1020E800C9F99DF82904042800F02181B5E2601E91
:1020F800022817D240F296200121C2F20000017096
:1021080000F010FE0121FFF71DFBC0B202283FF4CA
:102118007DAD46F2D8201E21C0F600000022FEF751
:102128004AFD73E5002040F29621C2F200010870D2
:102138006CE50020A4F80002F9E02046FEF76AF8F2
:10214800C00740F0F38194F8010243F20402C4F29C
:102158000102002800F0B2800138FE2800F2ED816B
:10216800204480F8011194F80102A8E005980DF5C3
:102178008561FF228DF831558DF830B503F0B2FC3A
:1021880043F204034FF40021C4F20103186840F03D
:102198004000186041F21800C4F20200016084F89F
:1021A800005284F802B05DB10020FE2800F0CA8118
:1021B800059A411C8D42125C2044C2700846F4D135
:1021C8005868410600F1C381810600F1C281C10649
:1021D80000F1C181800740F1C08183F808B0A6E012
:1021E8002046FEF717F8C00740F0C98194F801129D
:1021F80094F80002013184F80112C9B2814211D168
:10220800217846F278424846C0F60002FEF7C8FD3B
:1022180041F218019DF8300520700820C4F202012F
:10222800086084E043F20403C4F20103186840F034
:102238004000186094F80102FF2800F0A7812044AC
:10224800807859684A0600F1AA818A0600F1A981B6
:10225800CA0600F1A881890740F1A781187266E0D3
:102268004EF21001CEF20001086840F0020008604A
:102278004EF604504FF08061CEF200000160286CE9
:10228800DDF82814DDF82C2445F8301005EBC003E0
:10229800296C5A6001312964FEF74AFA002C46D1AC
:1022A80001F0A2FB43E04FF48060ADF8300540F246
:1022B8009400C2F20000411C04201CE0002094F8A5
:1022C800001288421BD1217846F278424846C0F66F
:1022D8000002FEF765FD41F218029DF8300504F88A
:1022E800010B0820C4F2020210604FF40070ADF830
:1022F8003005042021464A46FEF7C4FC17E0106862
:1023080040F0400010605068410600F15681810697
:1023180000F15581C10600F15481800740F15381D5
:102328000020107294F80102013084F80102E020C4
:1023380001F069FB6AE440F297210AEB8A10C2F2C5
:102348000001C9AE11F8202001EB8000411D029266
:10235800FF22447890F802B090F80380057930465F
:1023680003F0C0FB40F200005146C2F20000CDF875
:102378003405CDF830054846FEF7B1FB06A83146CE
:10238800FF2203F0EEFB002C7FF43CAC47A806A923
:10239800FF225C46DDF808B003F0E3FB40F6B1002D
:1023A800C2F20000007800F00301022924D00128BD
:1023B8005946234626D038BB002B57D0012B23D1B2
:1023C80040F6B1000224C2F2000047A90470FF22BF
:1023D80001988DF832558DF8318503F083FB0DF5A2
:1023E800856049468DF83045FEF7EBFF9DF82804D7
:1023F80005283FF407AC45E1032C1BD05946042CB3
:1024080004D018E0022B1DD0042B14D181F0040055
:1024180046F6481100F00700C0F60001012251F805
:10242800203046F2FC50C0F600001C21FEF7C3FB2A
:10243800FFF7E8BB012040F6B101C2F200010870C5
:10244800FFF7E0BB40F6B1010020C2F200010870BE
:1024580003208DF830050DF585604946FEF7B1FF7C
:102468009DF8280405283FF4CDAB19E140F6B101E9
:102478000120C2F200018DF8300508700DF5856065
:1024880049468DF832558DF83185FEF79AFF9DF84B
:10249800280405283FF4B6AB0DF5A6640DF5856153
:1024A8004FF48172204603F05CFB46F24860C0F6A8
:1024B800000002E1049801F0A6FA0DF2346DBDE8BF
:1024C800000FF0BD45F6505046F27422C0F60000E9
:1024D800C0F60002392101F06FFBFEDE002004E0A7
:1024E800012002E0022000E004208DF8300546F2C9
:1024F800EC50C0F600006DE0C9AC0DF5A66540F2E1
:1025080001122046294603F02CFB681C214640F2A4
:1025180001128DF8306503F0E5FA46F2584045F6A9
:102528000C73C0F60000C0F600038EE046F29C5023
:102538008DF83015C0F600004CE046F2AC52C0F6FB
:10254800000228E046F2CC52C0F6000222E0002049
:1025580004E0012002E0022000E004208DF81800C9
:1025680046F2DC50C0F6000045F6EC63009045F6F4
:10257800BE60C0F60000C0F6000306AA35E046F2C9
:1025880068408DF83015C0F6000023E046F27C5212
:10259800C0F60002FF20FF2101F026FBFEDE00202E
:1025A80004E0012002E0022000E004208DF830055C
:1025B80046F28C50C0F600000CE0002004E0012038
:1025C80002E0022000E004208DF8300546F2BC50FD
:1025D800C0F6000045F6EC63009045F6BE600DF5C8
:1025E800A662C0F60000C0F600032B2101F043FAF2
:1025F800FEDE0DF5A6640DF585614FF48272204666
:1026080003F0AFFA46F26C60C0F6000032E00DF558
:1026180085640DF5A665FF222046294603F0A1FA38
:10262800012021468DF834050520C8F60070FF22E8
:10263800CDF83005681D03F055FA46F2FC3045F632
:102648001C73C0F60000C0F60003009045F6BE609B
:10265800C0F600002B212A46C8E70DF5A6640DF543
:1026680085614FF48272204603F07BFA46F25C6083
:10267800C0F6000045F61C73009045F6BE60C0F633
:10268800000321E00DF5A6640DF585614FF4817214
:10269800204603F066FA46F23860C0F600000CE007
:1026A8000DF5A6640DF585614FF48172204603F09F
:1026B80058FA46F22860C0F6000045F64C730090C0
:1026C80045F6BE60C0F60003C0F600002B21224686
:1026D8008CE7D4D4F0B503AF2DE9000F87B04EF2E4
:1026E800100840F2300540F21E090DF1140ACEF22E
:1026F8000008C2F20005C2F2000901F06FF90446B1
:1027080001F070F901F082F9286C0394D8B12868B7
:10271800049000F04AFB059004A8514600F037FBEE
:10272800C0B2FF2817D000F03DFB06460C46DDE995
:10273800040100F010FB00F033FBA0FB060111B30D
:102748006FF07F402DE0D8F80000002620F002004E
:10275800C8F800002AE0286C002800F01E81B0F1BB
:10276800010A05EBCA004068C5F840A020D06E6891
:10277800BAF1010F55F83A1002900191C5E900101D
:1027880019D100244AE0002C00F01181844201D9BB
:10279800012006E0B0FBF4F06FF07F41884228BFCB
:1027A80008460026C8F80400C8F8086008244AE06B
:1027B800040A064645E04FF000094FF0010808F109
:1027C8000104544513D2C14518BFA14500F0C68085
:1027D80005EBC80005EBC40100F0D0FA5FFA80FBF6
:1027E80000F0F4FAC0B2834508BF444600E044460E
:1027F800A14500F0BC80A24540F2C38005EBC401AE
:1028080055F83400496845F8390005EBC900A14678
:102818004160600000F10108D045D0D3019845F827
:10282800340005EBC400029941602046FDF780FFA3
:102838004EF2100840F21E09340ACEF20008C2F225
:1028480000090DF1140A039810F0010008BF01F007
:10285800CBF8E0B2DFE800F005401D29114C6735E0
:102868007E0001F0BBF8044601F0BCF801F0CEF898
:1028780050460321CDE9059960E001F0AFF8044620
:1028880001F0B0F801F0C2F8CDE9059950460021F1
:1028980054E001F0A3F8044601F0A4F801F0B6F8FA
:1028A800CDE905995046052148E001F097F804461E
:1028B80001F098F801F0AAF8CDE9059950460421ED
:1028C8003CE001F08BF8044601F08CF801F09EF82A
:1028D80040F21800012115E001F080F8044601F0EB
:1028E80081F801F093F8CDE905995046022125E0D9
:1028F80001F074F8044601F075F801F087F840F229
:1029080018000021C2F20000CDE905005046324609
:10291800FEF705F8E00708BF01F066F84FF400403D
:10292800C8F8F801E9E601F059F8044601F05AF848
:1029380001F06CF8CDE90599504601213246FEF7C1
:102948005EF8E00708BF01F04FF84FF40030C8F810
:10295800F401D2E607B0BDE8000FF0BD46F24C0026
:1029680046F2D002C0F60000C0F6000207E046F2C8
:102978004C0046F25012C0F60000C0F600022321B7
:1029880008E046F2E00046F26012C0F60000C0F629
:102998000002292101F010F9FEDE46F2701046F21D
:1029A800F412C0F60000C0F600022D21F2E745F649
:1029B800006045F6C072C0F60000C0F6000219219A
:1029C800E8E780B56F46ADF5067DFDF7AFFEFDF78C
:1029D8007CFEFDF765FEFDF747FEFDF75AFEFDF7A5
:1029E80051FEFDF748FEFDF762FEFDF767FE40F277
:1029F80081000124C2F200004EF2100504704EF26C
:102A08000640CEF20000F02180F84910CEF2000511
:102A18004FF400414022C5F8F810E02180F82B104F
:102A28004FF40031C5F8F410D0210170C5F8F0203A
:102A380041770820C5F8F400E020FDF75DFE28681E
:102A480040F004002860286840F0010028604EF635
:102A5800FC50CEF20000016841F080710160FDF782
:102A68003BFE00F0A8F940F280006E46C2F200007A
:102A780004703046FEF777FA314640F2840091E858
:102A88003C00C2F200003CC040F29620C2F20000B6
:102A98009DF81010017040F6B1009DF81120C2F2A7
:102AA8000000027040F2940006F11301C2F2000027
:102AB80040F2022203F016F8FDF736FEFEF724FC7A
:102AC800FEDEB0B502AF86B00A4646F6B00104464F
:102AD8001046C0F600010D2202F0B0F8CDE902015F
:102AE80046F6C40002AD46F6BD01C0F6000005ABCF
:102AF8000090C0F6000128460622059401F0CBF9A3
:102B0800601C059046F6D80046F6D401C0F60000D1
:102B180005AB0090C0F600012846032201F0BBF97E
:102B2800284601F056FA06B0B0BD80B56F4682B0AF
:102B380000228029019203D28DF8041001222FE08F
:102B480002220B4662F39F13B1F5006F05D28DF890
:102B58000530C02343EA911120E0B1F5803F0DD242
:102B68008DF806308B0962F39F13E02242EA113197
:102B78008DF805308DF80410032211E08DF8073028
:102B88008B0962F39F138DF806300B0B62F39F13CA
:102B9800F02242EA914104228DF805308DF80410A4
:102BA800006801A900F092F802B080BDF0B503AF4B
:102BB8004DF804BD88B0019002AA91E8785046F615
:102BC80068111046C0F6000180E8785001A801F0AD
:102BD8001DFC08B05DF804BBF0BD70470068FFF746
:102BE800A4BFF0B503AF4DF804BD88B0006802AAD1
:102BF800019091E87850104646F66811C0F6000139
:102C080080E8785001A801F001FC08B05DF804BB29
:102C1800F0BD0068006800F059B8F0B503AF2DE9C1
:102C2800000B88B0814600F0D9FE054600F0DAFEB8
:102C380000F0ECFE40F2780605F00108C2F200064A
:102C48003068012811D0032002A9049004200390C1
:102C580046F2B860C0F6000001250290012000F09D
:102C68005FF8411C11D0C6E90050301D019002AA3E
:102C780099E87A10104680E87A1046F6681101A89B
:102C8800C0F6000101F0C2FB0546B8F1000F08BF0D
:102C980000F0AAFE284608B0BDE8000BF0BD80B5DC
:102CA8006F4684B0032001A903900420029046F2E5
:102CB800B860C0F600000190012000F031F801462C
:102CC8000130B0FA80F0400904B080BD0AB3F0B515
:102CD80003AF2DE9000B84B001AB0C4607C301A973
:102CE80081460520154600F01BF880B10DF1040857
:102CF800854210D306460390281A4146044405200D
:102D0800CDE9019400F00CF800283546F0D10020F8
:102D180002E000207047012004B0BDE8000BF0BDC0
:102D2800ABBE704741F20400CEF200000068704765
:102D3800B1F1FF3FC4BF0844704780B56F4646F6FF
:102D4800182046F64022C0F60000C0F600022721EF
:102D580000F032FFFEDE401AB0F1FF3FC8BF7047F7
:102D680080B56F4646F6E61046F60822C0F6000023
:102D7800C0F60002212100F01FFFFEDE096800688E
:102D8800401A18BF012048BF4FF0FF30704709684C
:102D98000068401A18BF012048BF4FF0FF30704745
:102DA8007047704701200121704741F20400CEF2BC
:102DB8000000006870470020704770470020704787
:102DC800FF2828BFFF20704700787047FF20704712
:102DD800F0B503AF2DE9000F85B0D1E9004AD2E97B
:102DE80000E396685445039300F282800A7A002A29
:102DF8007ED1D1E9032346F60049D1F814B0C0F2D8
:102E0800DC29544504933DD2CDE90106D2F800806F
:102E1800B8F1000F00F08A8004FB09F1002C70D093
:102E2800DBF80020002A75D0B1FBF8F000FB08F5AC
:102E3800B5FBF4F0B5FBF2F2A9EB000304980668C1
:102E4800BEEB030018BF01209E4538BF4FF0FF308E
:102E5800B6EB020C04F1010248BFCCF1000C30B90A
:102E6800039DB5EB0C0018BF0120654505DBC0B21A
:102E7800012804BFCDE9024C9E46494492451446B8
:102E8800CCD104E034D1CDE90106D2F80080B8F104
:102E9800000F4BD0BAF1000F33D0DBF80020CAB3D3
:102EA8000AFB09F0B0FBF8F000FB08F3B3FBFAF0FB
:102EB800B3FBF2F2A9EB00010498BEEB010506682A
:102EC80018BF01258E4538BF4FF0FF35B21A48BFED
:102ED8005242DDE901062DB9039B9D1A18BF012551
:102EE800934205DBEBB2012B02BF564603928E4696
:102EF8000399C0F800E0C0E9011605B0BDE8000F6D
:102F0800F0BD46F6E02046F6C422C0F60000C0F642
:102F1800000207E046F6E02046F67042C0F60000E0
:102F2800C0F60002192100F047FEFEDE46F6E0205A
:102F380046F66042C0F60000C0F60002F2E7F0B5BF
:102F480003AF2DE9000BD0E9003E73452FD8057A71
:102F58006DBBD0E903C8734515D2D8F80090DCF8EA
:102F680000504BB39D4230D3B5FBF3F05E1CB9FB68
:102F7800F0F404FB109088423CBF1A460146B6455F
:102F88003346EED100E012D1BEF1000F14D0DCF8C8
:102F98000030734519D3D8F80000B3FBFEF3B0FB3B
:102FA800F3F606FB130088423CBF7246014608460A
:102FB8001146BDE8000BF0BD46F6E02046F6C422F7
:102FC800C0F60000C0F6000207E046F6E02046F62C
:102FD8005042C0F60000C0F60002192100F0ECFDD6
:102FE800FEDE0A46D0E90031184600F000B8F0B518
:102FF80003AF2DE9000B84B0054610460C4601F0DE
:1030080042FECDE900017CB146F6FC2803AEC0F6CD
:103018000008E946484631464246039501F001F961
:10302800013C05F10105F5D1684601F001F904B04C
:10303800BDE8000BF0BDD0B502AF0B68D3F800E0D7
:10304800BEF1000F1ED032B38B68D3F800C0BCF1BC
:10305800000F29D046F600434968C0F2DC2382609D
:1030680002FB03F40968B4FBFEF404FB0EF4B4FBA2
:10307800F2F29A1A0260B4FBFCF2891A48BF49427C
:103088004160D0BD46F6E02046F66042C0F600003A
:10309800C0F6000210E046F6E02046F6C422C0F66C
:1030A8000000C0F6000207E046F6E02046F670424F
:1030B800C0F60000C0F60002192100F07DFDFEDE1A
:1030C80080B56F46C9B1026812688A4221BF40685C
:1030D800B2FBF1F20068B0FBF2F324BF03FB12006D
:1030E80080BD46F6E02046F65042C0F60000C0F625
:1030F8000002192100F060FDFEDE46F6E02046F6EB
:10310800C422C0F60000C0F60002F2E770470021B2
:1031180080F8281001628161016181600160704757
:10312800F0B503AF2DE9000FA3B0D1E900A58046A3
:1031380046F6004C43F6000BBAF1000F04BF42F20A
:103148000045C0F2F405D1E90809C0F2DC2C089565
:10315800C4F2020B002808BFA946CDF82490A9455F
:1031680004BF91F82800002800F00F81B9F1000F82
:10317800CDF810A000F098824DF68360C4F21B30A1
:10318800A5FB00624CF60046C1F6BF16B6FBF9F681
:1031980026F0010A48F27F46C0F21E06BAF1080F6F
:1031A80028BF4FF0080AAC1991F828600AFB09F308
:1031B8000591A4FB0001CDF828A03046604606968C
:1031C800002E029308BF18460B900BA8119008A870
:1031D80010900020C90C8DF83C00900CB1EB924F78
:1031E8000E900D9100F269828142CDF8008007951A
:1031F80002D2481C0D9002E001208DF83C000DF130
:10320800340808F10C000390FFF75AFF8E46414638
:103218000DF1680B91E87C008446584661467CC0F5
:10322800584672465C46FFF78AFE002900F04F8236
:10323800089E44F2402343F6000BC0F20F03B6FB8E
:10324800F1F0C4F2020BA0F574220C90A2F51072F2
:103258009A4200F24582069AA2B30AA8129009A8D7
:1032680011900CA81090002002918DF83C000920C4
:103278000DF14C0A03990E9005200D90504604223A
:10328800FFF7D9FE2146204698E87C1080E87C109C
:1032980020AA9AE86800104668C016A8FFF798FDAB
:1032A8000C98002800F02F82189946F60045C0F2C5
:1032B800DC25DDF828A0DDF800806943B1FBF0F4D7
:1032C80002990BE0DDF80080B14200F23882029AE0
:1032D80046F60045C0F2DC25B2FBF0F404FB0052D0
:1032E800531E49F68172C1F25E62AB42A3FB0262D1
:1032F800C0F0008247F6C073049E03EA84154FF0BD
:103308000053002E18BF4FF0015301F03F066043F1
:10331800334459194FF4403303EACA33920D03F585
:10332800403303F44033194402F00F0341EA0361C8
:10333800CBF80410079B994502D1099E059906E030
:103348000599BAF1000F00F0E781B0FBFAF6DDF855
:1033580010A0B0FBF2F09945019005D1002001249E
:1033680005903546012316E0A6F1B77044F20042F5
:10337800A0F55850C0F69502904200F2D681002080
:10338800012300243546059005E00020012406901D
:10339800012005900023D1E90202002808BF2A462F
:1033A800002A00F03781A5F1010E03930EEB02000D
:1033B800B0FBF2F2012A0FD0022A09D0002A00F04D
:1033C8003281D01E032836D24FF0900C042205E03B
:1033D8004FF0800C022201E04FF0000C4DF68066A1
:1033E800D1E90403B5FBF2F9C0F28026B1453246B3
:1033F80038BF4A46002818BF1A46002A00F01C8128
:10340800A9F1010304949818B0FBF2F2012A0FD035
:10341800022A09D0002A00F01881D01E032812D2EF
:1034280004204FF4A05219E002204FF4805215E016
:103438000120002212E0901F062880F0BB804FF088
:10344800A00C0822CAE7901F4FF4E05206284FF05C
:10345800100038BF4FF4C05238BF0820B9FBF0F451
:103468000795B442029000F2F9804BF60050D1E97A
:103478000656C0F201508145014638BF4946002D25
:1034880018BF3146002900F0F2800B44B3FBF1F37A
:10349800012B0FD0022B09D0002B00F0F180D91E90
:1034A80003290AD204254FF4204310E002254FF4E3
:1034B80000430CE00125002309E0991F4FF4604305
:1034C8001025062938BF4FF4404338BF0825B9FBFB
:1034D800F5F6864200F2DE8045F2C7414FEADE107B
:1034E800C0F21E11BAF1000FA0FB0101DBF80004C5
:1034F8004FEAD0004FEA912160F3DF0141F4E06028
:10350800CBF8000409D0DBF8000040F48030CBF899
:103518000000DBF800008003FBD5059848B9DBF80C
:10352800000040F08070CBF80000DBF8000080015C
:10353800FBD5DBF8081042EA0C004FF6F0421843BE
:1035480091430843CBF80800102000F04FFADBF84D
:103558000800049920F00300002908BF4FF0020A70
:103568005044CBF80800029888F81800079888F8A3
:103578001950C8E90094C8F80C000398C8F810005E
:1035880001990698C8F80860C8F8141070B1059831
:10359800B0BB46F60040C0F2DC20401A4DF2C141F3
:1035A80048BF4042C0F20101884229DA23B0BDE891
:1035B800000FF0BDA2F10C001C2803D24FF0B00C94
:1035C80010220BE7A2F12800382803D24FF0C00CD4
:1035D800402203E7A2F16000602803D24FF0D00C2C
:1035E8008022FBE6A2F1C0004FF0F00C4FF400720D
:1035F800C02838BF4FF0E00C38BF4FF48072EDE6BA
:1036080046F6785046F6A452C0F60000C0F600020E
:103618002C219DE046F6E02046F6E042C0F6000088
:10362800C0F6000293E046F6B45046F6FC52C0F6E7
:103638000000C0F600022BE046F6E02046F6F04215
:10364800C0F60000C0F6000281E046F6B45046F627
:10365800EC52C0F60000C0F6000219E046F6005031
:1036680046F62452C0F60000C0F600021AE046F6FC
:10367800E02046F63452C0F60000C0F6000266E0CC
:1036880046F6B45046F6DC52C0F60000C0F600021A
:1036980028215DE046F6445046F66852C0F6000020
:1036A800C0F60002242153E046F6E02046F69432A4
:1036B800C0F60000C0F6000249E046F60C3046F6B7
:1036C800A432C0F60000C0F600022B2140E046F606
:1036D800E02046F6B432C0F60000C0F6000236E03C
:1036E80046F6C43046F60042C0F60000C0F60002B6
:1036F8003C212DE046F6E02046F63042C0F60000B8
:10370800C0F6000223E046F6E02046F61042C0F676
:103718000000C0F600021AE046F6E02046F64042F5
:10372800C0F60000C0F6000211E046F6804046F6FA
:10373800D042C0F60000C0F60002502108E046F66C
:10374800E02046F62042C0F60000C0F6000219212B
:1037580000F032FAFEDE4068704780687047007EED
:103768007047704770474FF47A714843704744F286
:103778004021C0F20F014843704743F63000C4F2BD
:103788000200016841F0010101607047D0B502AF45
:1037980000248300C4F20204202B0BD201FA03FE9A
:1037A8000F21D4F820C099402CEA010141EA0E010A
:1037B80021620CE003F01C03D4F824C001FA03FED4
:1037C8000F2199402CEA010141EA0E0161621E2194
:1037D80001EA4000022123680322814002FA00F036
:1037E80023EA000008432060D0BD43F63000C4F24D
:1037F8000200016841F0080101607047D0B502AFCE
:1038080040F600448300C4F20204202B0BD201FAD4
:1038180003FE0F21D4F820C099402CEA010141EAA7
:103828000E0121620CE003F01C03D4F824C001FA55
:1038380003FE0F2199402CEA010141EA0E01616261
:103848001E2101EA4000022123680322814002FA76
:1038580000F023EA000008432060D0BD43F63000A2
:10386800C4F20200016841F010010160704740F2A3
:1038780010400021C4F201200160704740F210405E
:103888000121C4F201200160704740F63800C4F2FB
:1038980000000068704740F62C00C4F20000006881
:1038A800704788B240F63801C4F2000108607047DA
:1038B800D0B502AF84B00078DFE800F00217091035
:1038C80001AC46F61A62C0F60002072313E001AC09
:1038D80046F60C62C0F6000203230CE001AC46F683
:1038E8000F62C0F600020B2305E001AC46F6216228
:1038F800C0F600020923204601F0ADF9204600F089
:10390800F9FB04B0D0BD0A46D0E90031184601F0F1
:10391800DFB97047D0B502AF84B00078DFE800F0B7
:103928000215070E46F2AE72C0F6000203E046F238
:10393800A672C0F6000201AC08230CE001AC46F602
:103948002A62C0F60002092305E001AC46F633629C
:10395800C0F600020323204601F07DF9204600F05E
:10396800C9FB04B0D0BD704780B56F46FFF729F892
:10397800FEDEFEE77047D4D4C1B20F20DFE801F0C5
:103988000406080A0C0E0F00042070470520704733
:10399800062070470B2070470C2070470E20704798
:1039A800B0B502AF056808460C4601F03FF928B1EA
:1039B80028462146BDE8B04001F06BBD204601F025
:1039C80039F928B128462146BDE8B04001F091BD3B
:1039D80028462146BDE8B04001F0EFBE00F00AB825
:1039E80000BE704772B6704762B67047400801382B
:1039F800FDD17047EFF31080704730BF7047EFF389
:103A08001180C0B2704780F3118870477047006812
:103A1800FEE77047B0B502AF86B00C46054601F028
:103A280098FDA8B946F638630022C0F60003D4E929
:103A3800060105920493CDE902220122019246F67D
:103A48003C62C0F6000200926A4600F0DFFC10B14A
:103A5800012006B0B0BD281D214606B0BDE8B04023
:103A680001F077BD4CF2A95046F65C31C6F265000C
:103A7800C3F6D431704780B56F468EB08DE80F001D
:103A88000AA902200891002109900791CDE90501B2
:103A980046F67460C0F60000D7F808C0049045F6F2
:103AA8003310C0F600000D9002A80C9045F6771070
:103AB800C0F6000061460B9068460A9004A800F022
:103AC800B4F8FEDEF0B503AF4DF804BD8EB00C4679
:103AD8000546D1E906010C22CB6846F69461C0F68A
:103AE8000001984728B1012630460EB05DF804BBA6
:103AF800F0BDA86838B1019045F64B12D4E906012B
:103B0800C0F6000217E0D5E90060C1683046884772
:103B18004AF61E12C7F6F26251404BF6F442CEF650
:103B2800C742504008431CD1019645F63D12D4E9DE
:103B38000601C0F60002039201AA0292012602AA17
:103B48000D960C9200220B920A920222099246F6D6
:103B5800A462C0F60002089208AA00F057FC0028E8
:103B6800C2D1EA6845F64103C0F60003D4E906016C
:103B780002F10C060793CDE9053602F10803049318
:103B880045F67713C0F60003CDE9022302AB032202
:103B98000C9300230D920B93CDE9092346F6B862E6
:103BA800C0F60002089208AA00F030FC064630462B
:103BB8000EB05DF804BBF0BD80B56F4688B0944682
:103BC80046F63862C0F60002CDE9060100230492E9
:103BD8000122684661460593CDE90233019206AA9F
:103BE800009200F022F8FEDE80B56F468CB0CDE979
:103BF800000108A902200691002107900591CDE94E
:103C0800030146F6E460C0F600006946029045F6F6
:103C18004100C0F600000B90CDE9090101A8089009
:103C280002A8114600F001F8FEDE80B56F4684B0A8
:103C3800CDE9020146F68460C0F60000019046F620
:103C48003860C0F600000090684601F025FFFEDEEF
:103C5800F0B503AF2DE9000F81B0002A00F0FE8017
:103C680090468A4681460BE0CB6851465A469847AB
:103C7800002840F0F880DA44B8EB0B0800F0EE803A
:103C8800D9F80800007858B1D9E900010422CB68B6
:103C980046F2A061C0F600019847002840F0E38092
:103CA8004FF0000B414608E0B8EB0B014FF0000065
:103CB80038BF0146C34500F2AB800AEB0B02082966
:103CC80023D2002900F0A38050180023D15C0A29D0
:103CD80000F08F80D1180131814200F098800E7871
:103CE8000A2E7AD00131814200F091800E780A2E96
:103CF80075D00131814200F08A800E780A2E70D08A
:103D0800013104338142E1D181E0D01C20F003006D
:103D1800801A24D0884288BF084600B315180023AB
:103D2800D65C0A2E65D0D6180136AE4212D0347849
:103D38000A2C52D00136AE420CD034780A2C4ED020
:103D48000136AE4206D034780A2C4AD00136043304
:103D5800AE42E5D1A1F10803984203D91AE0A1F1D6
:103D680008030020165815186D6886F00A34A4F167
:103D7800013424EA060685F00A34A4F1013424EA61
:103D880005052E4316F0803F02D108309842E9D944
:103D980088426DD888423AD00A4400EB0B010AEBFE
:103DA800010300215E5C0A2E22D05E18013696427D
:103DB8002DD035780A2D16D00136964227D0357881
:103DC8000A2D12D00136964221D035780A2D0ED010
:103DD800013604319642E5D119E0013309E0023396
:103DE80007E0033305E0013102E0023100E003316E
:103DF8000B1803EB0B0000F1010B4045BFF454AF67
:103E08001AF800000A287FF44FAF012001E00020D3
:103E1800C346D9F80810D8450870D9E900013FF41D
:103E280023AF2CD91AF90B2012F1410F27DDCB68EB
:103E380051465A469847B0B91AF90B0010F1410F8C
:103E48003FF719AF46F61C704146C0F600005A46C7
:103E580000905046434601F041F8FEDE002001B0D4
:103E6800BDE8000FF0BD012001B0BDE8000FF0BDB6
:103E780047F25802C0F6000200F0CDFFFEDE46F61B
:103E88000C704146C0F600000022009050465B4688
:103E980001F024F8FEDEF0B503AF2DE9000F8DB078
:103EA800044600794FF0010900284FF001007ED147
:103EB8000D4621681646D7F808A062799846087812
:103EC80040072FD4D1E9060346F6317146F6337C14
:103ED800C0F60001002AC0F6000C08BF6146DB6886
:103EE8004FF0020208BF0322984700285ED12168DC
:103EF8003246D1E90601CB6829469847002855D1B2
:103F080021680222D1E90601CB6846F66F61C0F646
:103F180000019847002849D1DAF80C20404621686A
:103F2800904744E052B9D1E906010322CB6846F62E
:103F38002C71C0F600019847C0BB21680120CA69EE
:103F480007F8410CA7F1410AD1E905B0D1E903CE40
:103F5800CDF808A091F82030D1F808A0CDE90002EA
:103F680046F6F460C0F600000A680B906846496897
:103F78008DF8303006AB0A90CDF824B083E80054B1
:103F8800CDE9042129463246FFF762FE70B946F6AC
:103F98006F616846C0F600010222FFF759FE28B992
:103FA800B86804A9C2684046904740B10120207112
:103FB800204684F805900DB0BDE8000FF0BDDDE99E
:103FC8000A010222CB6846F62F71C0F60001984715
:103FD800EDE7D0B502AF044600796179B1B108B117
:103FE800012012E02168D1E906020978D36849075F
:103FF80005D446F637710222C0F6000104E046F601
:1040080036710122C0F6000198472071002818BFB8
:104018000120D0BDF0B503AF2DE9000B8EB00446EA
:10402800007A48B1012061682072481C606020460F
:104038000EB0BDE8000BF0BD16460D46D4E90012DF
:104048000878400719D4D1E9060346F6317146F6D7
:104058003B7CC0F60001002AC0F6000C08BF614690
:10406800DB684FF0020208BF012298470028D9D127
:10407800F268284621689047D5E75AB9D1E9060180
:104088000222CB6846F63971C0F60001984700282D
:10409800C8D121680120CB6907F83D0CA7F13D0282
:1040A800D1E90580D1E903CE039291F820908A687E
:1040B800CDE9010346F6F463C0F6000308680C93E3
:1040C80001AB49680B9305AB8DF83490CDF8288087
:1040D80083E8075005A92846F26890470028A1D12F
:1040E800DDE90B010222CB6846F62F71C0F600010C
:1040F800984798E7B0B502AF0446057A406808B318
:104108000DB101251DE0012810D1607A70B1216838
:10411800087840070AD4D1E906010122CB6846F69F
:104128003C71C0F600010125984750B92168012269
:10413800D1E90601CB6846F63D71C0F60001984703
:1041480005462572002D18BF01252846B0BDF0B5DB
:1041580003AF2DE900078EB0044600794FF001093E
:104168000125002856D188462168164660790A78C4
:1041780052070FD450B1D1E906010222CB6846F6A6
:104188003171C0F600019847C0BB2168F26840460B
:1041980090473EE058B9D1E906010122CB6846F6BE
:1041A8003E71C0F600010125984798BB216801209F
:1041B800CA6907F83D0CA7F13D03D1E905A5D1E986
:1041C80003CE039391F820008B68CDE9015246F69F
:1041D800F465C0F600050A680C9501AD49688DF8CC
:1041E800340007A80B95CDF828A080E80850404671
:1041F800CDE9052105A9F268904708B1012509E034
:10420800DDE90B010222CB6846F62F71C0F60001EA
:104218009847054684F8059025710EB0BDE800075B
:10422800F0BDD0B502AF0446FFF791FF2046D0BDE0
:10423800017900291CBF012070470168D1E90602F5
:1042480046F64071D368C0F600010122184780B5D0
:104258006F4682B08C460021BCF1800F019107D2D5
:104268008DF804C001A90122FFF7F2FC02B080BD5D
:10427800BCF5006F0FD20222614662F39F118DF8E0
:104288000510C02141EA9C118DF8041001A9FFF71F
:10429800DFFC02B080BD0222634601A962F39F13CE
:1042A800BCF5803F11D28DF806304FEA9C1362F3BB
:1042B8009F13E02242EA1C328DF804208DF8053065
:1042C8000322FFF7C5FC02B080BD8DF807304FEA26
:1042D8009C1362F39F138DF806304FEA1C3362F388
:1042E8009F13F02242EA9C428DF8042004228DF8A4
:1042F8000530FFF7ADFC02B080BDF0B503AF4DF857
:1043080004BD88B0019002AA91E8785047F23801BC
:104318001046C0F6000180E8785001A800F076F851
:1043280008B05DF804BBF0BD0068FFF791BC80B52C
:104338006F4682B000688C460021BCF1800F019165
:1043480007D28DF804C001A90122FFF781FC02B051
:1043580080BDBCF5006F0FD20222614662F39F1147
:104368008DF80510C02141EA9C118DF8041001A9AF
:10437800FFF76EFC02B080BD0222634601A962F31A
:104388009F13BCF5803F11D28DF806304FEA9C137D
:1043980062F39F13E02242EA1C328DF804208DF864
:1043A80005300322FFF754FC02B080BD8DF80730BA
:1043B8004FEA9C1362F39F138DF806304FEA1C33C3
:1043C80062F39F13F02242EA9C428DF804200422F3
:1043D8008DF80530FFF73CFC02B080BDF0B503AFA7
:1043E8004DF804BD88B0006802AA019091E87850A1
:1043F800104647F23801C0F6000180E8785001A85D
:1044080000F004F808B05DF804BBF0BDF0B503AFE8
:104418002DE9000F8DB014460322D4F808B08DF8AA
:104428003020202205920022BBF1000F04920B914C
:104438000A900892069271D0E268D4E9006A52455F
:1044480088BF5246002A039600F09580CDE901A264
:10445800D6E90032CE681946B047002840F0A1805E
:1044680002980025D4F810904FF01008A0F1010A26
:104478000BEB8501D1E90532D1E901040E7F0590E6
:104488000BEB08008DF8306004946BB1022B0DD053
:1044980009EBC20343F61726C0F600065B68B34271
:1044A80004D159F832201268012400E000245BF896
:1044B8000830CDE90642C96869B102290DD009EB77
:1044C800C30143F61722C0F600024968914204D19D
:1044D80059F833100B68012100E0002150F8102C26
:1044E800099359F8320009EBC2025268089104A9ED
:1044F8009047002855D1BAF1000F57D00399DDE94C
:104508000A034A19DB68D2E902129847AAF1010A9C
:1045180008F1200808350028AAD042E0D4F8149001
:10452800D4E9006AD14588BFD146B9F1000F039696
:1045380026D0D6E90032CE6824691946B04780BB38
:104548000398A9F1010504340DF1100800F10806DB
:1045580054F8040C41462268904710BB95B1DDE938
:104568000A03D6E90012DB689847013D083608348B
:104578000028EDD015E04FF00009CA4504D819E02D
:104588004FF00009CA4515D9039A4946DDE90A03DF
:104598004E46DB6852F8311002EBC9025268984760
:1045A80040B101200DB0BDE8000FF0BDDDE901A963
:1045B800CA45E9D800200DB0BDE8000FF0BDD4D43D
:1045C800F0B503AF2DE9000F83B0D7E902649A462E
:1045D8008346E1B1DBF800E02B211EF0010008BFA3
:1045E8004FF4881100EB04085FEA4E7017D5BAF152
:1045F800000F24D0AAF101000AF0030C032821D2ED
:104608004FF000091346BCF1000F4BD165E0DBF811
:1046180000E004F101082D215FEA4E70E7D4002282
:104628004FF0000ADBF8080001285ED058465346D0
:1046380000F01CF9002800F07980012594E04FF083
:1046480000094AE002912AF003014D424FF00009A7
:1046580011461346CDE900461A78587802F0C00290
:104668009E78DC78802A00F0C00008BF09F10109B3
:10467800802806F0C00008BF09F10109802804F06D
:10468800C00008BF09F10109802808BF09F1010924
:1046980004330435E0D10A46DDE900460299BCF14D
:1046A800000F1AD0187800F0C000802808BF09F160
:1046B8000109BCF1010F10D0587800F0C000802823
:1046C80008BF09F10109BCF1020F06D0987800F083
:1046D800C000802808BF09F1010908EB0A00A0EB17
:1046E8000908DBF808000128A0D1DBF80C90C145C7
:1046F80015D95FEA0E7026D40192A9EB08009BF841
:10470800202000258146032A08BF01220291DFE804
:1047180002F0450241024FF0000905463EE05846C6
:10472800534600F0A3F8002840F07A80DBF81C100C
:104738002246DBF81800CB68314603B0BDE8000F0D
:10474800BDE8F0401847DBF804000125029030204E
:104758009BF8203001935346CBF8040058468BF859
:10476800205000F083F820B1284603B0BDE8000FC0
:10477800F0BD9BF82020A9EB08010020B146032AD0
:1047880008BF01220D46DFE802F036023302002599
:10479800084630E0411C45084FEA51090135013D02
:1047A80008D0DBE90602DBF80410126990470028FC
:1047B800F5D035E0DDE9012158465346DBF80480A1
:1047C80000F054F860BBDBE906012246CB683146AD
:1047D800984728BBDBE906A409F101060125013E3B
:1047E80032D022695046414690470028F7D0BBE7AF
:1047F800480801314D08461C013E08D0DBE9060295
:10480800DBF80410126990470028F5D008E0DBE9CE
:1048180006012246CB684946DBF80480984728B150
:104828000125284603B0BDE8000FF0BDDBE9069A74
:104838006E1C0125013E0DD0DAF81020484641468D
:1048480090470028F6D08FE70025284603B0BDE83A
:10485800000FF0BD019800258BF820000298CBF8D6
:104868000400284603B0BDE8000FF0BDF0B503AF63
:104878004DF804BD1C4615460646B1F5881F08D0FC
:10488800D6E906021269904718B101205DF804BB09
:10489800F0BD4DB1D6E906012246CB6829465DF840
:1048A80004BBBDE8F040184700205DF804BBF0BD2C
:1048B800F0B503AF2DE9000F81B0D0F808E08346CA
:1048C800006991460C46BEF1010F13D1012814D09E
:1048D800B9F1000F00F02081A9F1010E09F0030CD5
:1048E800BEF1030F6AD200232146BCF1000F40F04D
:1048F8008A80A0E0012840F02981DBF8143004EB1D
:1049080009050022204600942BBB85424FD0014662
:10491800009C11F9013BB3F1FF3F40F39C80002A52
:1049280018BF4A4540F0E2802046E8E011F8010B44
:1049380000F03F0808464FF4E01101EA864141EAD9
:104948000A3141EA8C114144B1F5881F2FD0011B6F
:10495800013B0A44D9D0854229D0044610F9011BED
:10496800B1F1FF3FF3DCCEB2A84207D06178A01CBA
:1049780001F03F0A0146E02EE9D304E04FF0000AB7
:104988002946E02EE3D3A94207D011F8010B00F025
:104998003F0C0846F02EDAD304E04FF0000C29460D
:1049A800F02ED4D3A942C1D14FF00008C3E74A463C
:1049B800009CBEF1010F40F02981A8E029F0030115
:1049C80000234E42A04621460D784C78887805F0A1
:1049D800C005CA78802D04F0C00408BF0133802CBC
:1049E80000F0C00008BF0133802802F0C00008BFF3
:1049F8000133802808BF013304310436E4D144462A
:104A0800BCF1000F17D0087800F0C000802808BF5C
:104A18000133BCF1010F0ED0487800F0C0008028A7
:104A280008BF0133BCF1020F05D0887800F0C00040
:104A3800802808BF0133DBF80C80A9EB0300404550
:104A480080F08480BEF1030F12D200222346BCF10D
:104A5800000F32D166E0DBB2A94200F0AC804178A9
:104A6800023001F03F018901E02B80F0A98056E770
:104A780029F0030000224642A646234618785D78AE
:104A880000F0C0009C78D978802805F0C00008BFE5
:104A98000132802804F0C00008BF0132802801F0EC
:104AA800C00008BF0132802808BF01320433043631
:104AB800E4D17446BCF1000F34D0187800F0C0007F
:104AC800802808BF0132BCF1010F2BD0587800F0C4
:104AD800C000802808BF0132BCF1020F22D09878AC
:104AE80000F0C000802808BF01321BE04A4504D20C
:104AF800A05610F1400FBFF617AF00200022002883
:104B08000CBF4A460446BEF1010F40F07F80914633
:104B1800B9F1000F7FF4E0AEDBF80C80B8F1000FBC
:104B280014D000229BF820002546C31E18BF034658
:104B3800A2EB090000EB080100208A46DFE803F039
:104B480010020C024FF0000A084609E0DBF81C10BE
:104B58004A46DBF818005BE0480801314FEA510A81
:104B6800441C013C08D0DBE90602DBF8041012699A
:104B780090470028F5D014E0DBE906014A46CB68E7
:104B88002946DBF80480984758B9DBE906650AF13D
:104B98000104013C0AD02A69304641469047002862
:104BA800F7D0012001B0BDE8000FF0BD002001B032
:104BB800BDE8000FF0BD00212846E02BFFF4AFAEA2
:104BC800A84207D010F8016B06F03F06F02BFFF45F
:104BD800A6AE04E000262846F02BFFF4A0AE314331
:104BE8004FF4E01606EA8343A8421ABF007800F0A3
:104BF8003F00002043EA81110844B0F5881F7FF484
:104C08008EAE4A46BEF1010F3FF481AFDBE90601E3
:104C1800CB68214601B0BDE8000FBDE8F040184759
:104C2800D0E90630D0F80CC0184660470078C0F3C9
:104C3800001070470078C0F340107047D0B502AF3D
:104C480004468069E369DB689847014600282046E6
:104C580018BF0121D0BDF0B503AF4DF804BD0D4616
:104C68000646D1E906011C46CB68114622469847FC
:104C78003072B4FA84F0400970720020C6E900501E
:104C88005DF804BBF0BDD0B502AF04468069E169A8
:104C98000122CB6846F63F71C0F6000198470146ED
:104CA8000028204618BF0121D0BD00780A4638B137
:104CB80046F2A8611046C0F600010422FFF7F8BDCD
:104CC80047F250011046C0F600010522FFF7F0BD7B
:104CD8000B46014610461A46FFF7EABDF0B503AF8A
:104CE8002DE9000F81B00C460546D1E906010A6995
:104CF8002721904720B1012001B0BDE8000FF0BD89
:104D08002D68A5F109001E2818D802264FF0740A4C
:104D1800DFE800F032101818221818181818181898
:104D280018181818181818181818181818161818FD
:104D38001818160002264FF06E0A10E05C2D01D1FB
:104D4800022618E0284600F018FE48B9284600F068
:104D58004BFA28B10126F4E702264FF0720A0BE05D
:104D680045F001004FF00509B0FA80F0032607214D
:104D780081EA90000090AA461C254FF002084FF0E7
:104D8800040B06E0D4E906021269904700287FF474
:104D9800B2AF30465C210126DFE800F0330302069B
:104DA800F0E700265146EDE75FFA89F0DFE800F00A
:104DB800290307171B2029F0FF097D211FE0009A0E
:104DC800572105EA82002AFA00F000F00F000A28AD
:104DD80038BF302101447AB1013A00920FE068F3FC
:104DE80007097B210BE00326752166F30709C9E74C
:104DF8006BF307095C2102E0012060F30709032631
:104E0800C0E7D4E906010A69272101B0BDE8000F0F
:104E1800BDE8F040104780B56F468CB0CDE9000181
:104E280008A902200691002107900591CDE9030108
:104E380047F29C00C0F6000001A9029045F6410027
:104E4800C0F600000B90CDE909016846089002A859
:104E58001146FEF7EAFEFEDE80B56F468CB0CDE95E
:104E6800000108A902200691002107900591CDE9CB
:104E7800030147F2AC00C0F6000001A9029045F614
:104E88004100C0F600000B90CDE909016846089082
:104E980002A81146FEF7C9FEFEDE80B56F468CB04B
:104EA800CDE9000108A9022006910021079005918B
:104EB800CDE9030147F2E000C0F6000001A9029025
:104EC80045F64100C0F600000B90CDE9090168469F
:104ED800089002A81146FEF7A8FEFEDE80B56F46D0
:104EE8009AB0B1F5807FCDE9002302D801248E461F
:104EF8003FE0C1F1000C4FF4807E8E4504D210F9DA
:104F08000E4014F1410F33DC0CEB0E05AEF1010637
:104F1800012D2AD08E4206D200EB0E0414F9014C62
:104F280014F1410F21DCAEF10206022D1DD08E4294
:104F380006D200EB0E0414F9024C14F1410F14DCF4
:104F4800AEF10306032D10D08E4206D200EB0E04FC
:104F580014F9034C14F1410F07DCBEF1040E4FF0B5
:104F6800000406D0042DC8D103E00024B64600E0B2
:104F78000024052647F2F005D7F808C0002CCDE933
:104F8800020E18BF0026059646F63866C0F60005DC
:104F9800C0F6000618BF35468A42049598BF8B4272
:104FA80026D98A4210A988BF134603200E910021F2
:104FB8000F900D91CDE90B0147F21810C0F60000D3
:104FC80004A90A9045F67710C0F6000008931590DA
:104FD800CDE9130102A8129045F64100C0F6000081
:104FE800119008A810900AA86146FEF71EFEFEDE82
:104FF8009A4220D910A904200E9100210F900D91FA
:10500800CDE90B0147F24010C0F6000004A90A9050
:1050180045F67710C0F600001790CDE9150102A8F3
:10502800149045F6410001A9C0F600001390CDE99F
:1050380011016846D6E7002A18BF91421ED11A46C8
:10504800002A069218BF8A421FD113460DF11C0888
:105058008B4208D146F644602B21C0F60000624618
:10506800FEF7AAFDFEDEC418254615F9012BB2F19C
:10507800FF3FD6B245DD0796012187E0E0D9865685
:1050880016F1400FA8BF1A46DAE7A0F1010E8C1CF2
:1050980001F103094E1C01F104088A4206D20EEB05
:1050A800020393F9013013F1410FCEDC531E18BFF0
:1050B8009642CBD08B4204D21EF9025015F1410F13
:1050C800C4DC931E18BF9442C0D08B4206D20EEBAC
:1050D800020515F9015C15F1410FB7DCD31E18BFA5
:1050E8009145B3D08B4206D20EEB020515F9025C4E
:1050F80015F1410FAADC131FA8D090451A46CCD150
:10510800A4E70844854208D10024054606F01F019B
:10511800DF2E0AD844EA811029E06178A51C01F045
:105128003F0406F01F01DF2EF4D9854203D14FF06A
:10513800000E054603E015F8012B02F03F0E4EEA7B
:105148008414F02E11D34FF4E01202EA8141854213
:105158001ABF287800F03F00002041EA8411084473
:10516800B0F5881F3FF476AF01E044EA01308028AB
:10517800079001D2012109E0B0F5006F01D20221A8
:1051880004E00421B0F5803F38BF0321194410AA78
:105198000E920022CDE9083105210F9108A80D9241
:1051A800CDE90B1247F28C11C0F6000104AA0A914E
:1051B80045F67711C0F600011991CDE9171202A939
:1051C800169143F61D21C0F60001CDE9140144F6FD
:1051D800E540C0F60000CDE9128045F64100C0F672
:1051E8000000119006A8FDE6F0B503AF2DE9000711
:1051F800B0F5803F47D247F2FC1E47F24E281FFA0F
:1052080080F9C0F6000EC3B24FEA192C4FF0000A1D
:10521800C0F6000875466E7850462A780235B244C2
:10522800624524D18245C0F00D81BAF5917F00F224
:10523800118108EB00029019D6B1144614F8011B2D
:1052480099426BD0844213D05178994266D0911C10
:1052580081420DD09178994260D0D11C814207D00B
:10526800111DD278043E9A420A46E5D156E003D889
:105278000EF152008542CED147F270340121C0F6BA
:10528800000420465AE0B0F5003F6CD247F2A54E24
:1052980047F2F1481FFA80F9C0F6000EC3B24FEA90
:1052A800192C4FF0000AC0F6000875466E78504673
:1052B8002A780235B244624524D18245C0F0C280C2
:1052C800BAF1AF0F00F2D08008EB00029019D6B106
:1052D800144614F8011B994220D0844213D0517807
:1052E80099421BD0911C81420DD09178994215D0DA
:1052F800D11C814207D0111DD278043E9A420A4639
:10530800E5D10BE003D80EF14C008542CED147F22F
:10531800A0540121C0F60004204673E0002101F0EA
:105328000100BDE80007F0BD1846B9EB06095AD4DC
:1053380004F2351281F00101904254D0034613F86B
:10534800016B75B2002DEFD504F23512934200F0CF
:105358009480427805F07F03023042EA0326B9EBD5
:105368000609E5D53FE04EF6B5414EF6B553CFF602
:10537800FC714218C0F20A039A424FF0000121BFA3
:1053880040F2E252CFF6FD72024440F2E25328BFE7
:105398009A4228D341F21F4240F61F43CFF6FD72CE
:1053A80002449A4221BF43F25E12CFF6FD720244D4
:1053B8000E2A18D34FF6FE724BF61E03C0F21F02D8
:1053C800C0F2020302409A420DD045F62212CFF6EF
:1053D800FD720244222A21BF44F6CB02CFF6FD72A9
:1053E80002440B2A22D201F00100BDE80007F0BDFB
:1053F8001846B9EB0609F6D404F2A31281F00101AC
:105408009042F0D0034613F8016B75B2002DEFD52A
:1054180004F2A312934230D0427805F07F030230A1
:1054280042EA0326B9EB0609E6D5DCE740F2F012BA
:105438000021C0F20E02904238BF01210846BDE8A3
:105448000007F0BD47F2DC125146C0F60002FFF734
:1054580024FDFEDE47F2DC125046C0F600024FF48F
:105468009171FFF7F9FCFEDE47F2DC125046C0F6F8
:105478000002AF21FFF7F0FCFEDE46F6446047F27B
:10548800EC12C0F60000C0F600022B21FEF794FBD8
:10549800FEDE80B56F46A2B002788C4602F00F039C
:1054A80003F157000A2B38BF03F130000023B3EB98
:1054B800121F0BD0130903F15701A02A38BF03F1BB
:1054C80030018DF886107E22022301E07F2201231D
:1054D8008DF8870002A8104446F66C72CDE90003E7
:1054E800C0F60002604601210223FFF769F822B0E6
:1054F80080BD80B56F46A2B002788C4602F00F03DB
:1055080003F137000A2B38BF03F130000023B3EB57
:10551800121F0BD0130903F13701A02A38BF03F17A
:1055280030018DF886107E22022301E07F220123BC
:105538008DF8870002A8104446F66C72CDE9000386
:10554800C0F60002604601210223FFF739F822B0B5
:1055580080BDF0B503AF2DE9000FA3B08C460968F4
:10556800CA0656D40468880600F1958048F21F538D
:1055780046F66E7242F210784445C5F2EB13C0F657
:105588000002C0F0E68041F259794EF2FF0E0DF1AB
:105598000C0B0023CDF2B7194FF0640AC0F2F55E88
:1055A800CDF808C0A4FB090548F21F51C5F2EB115C
:1055B80074454FEA553000FB18450446AEB2A6FBC9
:1055C800016C0BEB0301A3F104034FEA5C1606FB25
:1055D8001A5532F81660A1F82360ADB232F81550AA
:1055E800A1F82550DED8DDF808C003F1270148F2FC
:1055F8001F530446C5F2EB13632C00F3AE80234619
:105608000A2BC0F2BA80881E32F8131003AA11526E
:10561800B8E000680DF10C0E8122002100F00F03A4
:1056280003F157040A2B38BF03F130040EEB0203D1
:10563800B1EB101F03F8024C6FD0060906F00F06F5
:1056480006F157050A2E38BF06F13005B1EB102FC9
:1056580003F8035C64D0060A06F00F0606F1570546
:105668000A2E38BF06F13005B1EB103F03F8045C91
:1056780059D0060B043A06F00F0606F157050A2E14
:1056880038BF06F1300503F8055C030CB1EB104F89
:105698001846C3D13FE00DF10C0E8122002104F021
:1056A8000F000EEB020300F137060A2838BF00F19D
:1056B8003006B1EB141F03F8026C2ED0200900F05D
:1056C8000F0000F137060A2838BF00F13006B1EBA9
:1056D800142F03F8036C23D0200A00F00F0000F108
:1056E80037060A2838BF00F13006B1EB143F03F83B
:1056F800046C18D0200B043A00F00F0000F13706B4
:105708000A2838BF00F13006200CB1EB144F0446CC
:1057180003F8056CC3D1501E07E0901E013A04E05F
:10572800D01E023A01E0101F033A81283DD2C2F18F
:10573800810146F66C727044C0F60002CDE90001A2
:10574800604601210223FEF73BFF23B0BDE8000FAE
:10575800F0BD2721632C7FF752AFA0B20239A0FB1E
:10576800030303AE64205B0903FB104080B232F8E8
:10577800100070520A2BBFF646AF481E03AA03F169
:1057880030011154C0F1270103AA104446F63862CB
:10579800CDE90001C0F60002604601210023FEF7B2
:1057A8000FFF23B0BDE8000FF0BD46F65C72802104
:1057B800C0F60002FFF72FFBFEDE80B56F468CB007
:1057C8000278642A15D348F21F53D0B2C5F2EB13FE
:1057D800A0FB030364205B0903FB102046F66E72EE
:1057E800C0F60002C0B232F81000ADF82D00242037
:1057F80003E00A2A06D22620134603F1300202AB40
:105808001A5408E046F66E70C0F6000030F8120030
:10581800ADF82D002520C0F1270202AB1844002363
:10582800CDE9000246F638620846C0F600020121BA
:10583800FEF7C6FE0CB080BDF0B503AF2DE9000F32
:105848008DB0046848F21F5046F66E780D4642F255
:1058580010718C42C5F2EB10C0F600083BD341F240
:1058680059794EF2FF0E0DF10C0B0023CDF2B7194A
:105878004FF0640AC0F2F55E0295A4FB0925744551
:105888004FEA553202FB11450BEB0301A3F1040368
:105898001446AEB2A6FB006C4FEA5C1606FB1A551E
:1058A80038F81660A1F82360ADB238F81550A1F8A1
:1058B800255042F21071E0D8029D03F127011446E9
:1058C800632C0BDC23460A2B17DB023938F813004C
:1058D80003AA505216E02721632CF3DDA2B2023945
:1058E800A2FB002303AE64225B0903FB124292B2BF
:1058F80038F8122072520A2BE7DA013903AA03F1A9
:1059080030005054C1F1270003AA114446F638620A
:10591800CDE90010C0F60002284601210023FEF759
:105928004FFE0DB0BDE8000FF0BDD0E90020C36800
:105938001046184700680B46D0E900121846FEF7D3
:10594800B7BFF0B503AF2DE9000B86B0D0F800E083
:105958006A46D1E906C113469EE8710383E87103DC
:105968006046FEF753FD06B0BDE8000BF0BD0B46E0
:10597800D0E900121846FEF79BBFD0B502AF40F63B
:1059880024520F2147F29C7EC0F20102904238BF98
:10599800002101F10803C0F6000E5EF82320D202B0
:1059A800B2EBC02F98BF19460A1D5EF82230DB0201
:1059B800B3EBC02F98BF11468A1C5EF82230DB0279
:1059C800B3EBC02F98BF11464A1C5EF82230DB02A9
:1059D800B3EBC02F98BF11465EF821200023D202F6
:1059E800B2EBC02F38BF012308BF013319441E2969
:1059F80040D81E290BD140F2B12C01290ED34B1EE1
:105A08001F2B3DD25EF823306FF35F5307E00EEB98
:105A1800810252684FEA525C0129F0D200235EF8F5
:105A28002110490D4A1C944518D0A0EB030EACF187
:105A3800010347F6180C40F2B1200022C0F6000C12
:105A4800814288BF084688420BD01CF80140224496
:105A5800724503D801318B42F5D1194601F0010096
:105A6800D0BD47F27C7240F2B121C0F60002FEF7C9
:105A7800BBF8FEDE47F26C720846C0F6000204E08E
:105A880047F28C721846C0F600021F21FEF7ACF8E8
:105A9800FEDE0068FEF716B880B56F468AB0009043
:105AA800FDF7A0FFFDF7FBF8C8B9012001910790A9
:105AB80008A806900020CDE904000220039047F6CC
:105AC800CC20C0F6000002A9029045F69B20C0F643
